{
	"@chainlink/contracts/src/v0.7/tests/MockV3Aggregator.sol": {
		"MockV3Aggregator": {
			"abi": [
				{
					"inputs": [
						{
							"internalType": "uint8",
							"name": "_decimals",
							"type": "uint8"
						},
						{
							"internalType": "int256",
							"name": "_initialAnswer",
							"type": "int256"
						}
					],
					"stateMutability": "nonpayable",
					"type": "constructor"
				},
				{
					"anonymous": false,
					"inputs": [
						{
							"indexed": true,
							"internalType": "int256",
							"name": "current",
							"type": "int256"
						},
						{
							"indexed": true,
							"internalType": "uint256",
							"name": "roundId",
							"type": "uint256"
						},
						{
							"indexed": false,
							"internalType": "uint256",
							"name": "updatedAt",
							"type": "uint256"
						}
					],
					"name": "AnswerUpdated",
					"type": "event"
				},
				{
					"anonymous": false,
					"inputs": [
						{
							"indexed": true,
							"internalType": "uint256",
							"name": "roundId",
							"type": "uint256"
						},
						{
							"indexed": true,
							"internalType": "address",
							"name": "startedBy",
							"type": "address"
						},
						{
							"indexed": false,
							"internalType": "uint256",
							"name": "startedAt",
							"type": "uint256"
						}
					],
					"name": "NewRound",
					"type": "event"
				},
				{
					"inputs": [],
					"name": "decimals",
					"outputs": [
						{
							"internalType": "uint8",
							"name": "",
							"type": "uint8"
						}
					],
					"stateMutability": "view",
					"type": "function"
				},
				{
					"inputs": [],
					"name": "description",
					"outputs": [
						{
							"internalType": "string",
							"name": "",
							"type": "string"
						}
					],
					"stateMutability": "pure",
					"type": "function"
				},
				{
					"inputs": [
						{
							"internalType": "uint256",
							"name": "",
							"type": "uint256"
						}
					],
					"name": "getAnswer",
					"outputs": [
						{
							"internalType": "int256",
							"name": "",
							"type": "int256"
						}
					],
					"stateMutability": "view",
					"type": "function"
				},
				{
					"inputs": [
						{
							"internalType": "uint80",
							"name": "_roundId",
							"type": "uint80"
						}
					],
					"name": "getRoundData",
					"outputs": [
						{
							"internalType": "uint80",
							"name": "roundId",
							"type": "uint80"
						},
						{
							"internalType": "int256",
							"name": "answer",
							"type": "int256"
						},
						{
							"internalType": "uint256",
							"name": "startedAt",
							"type": "uint256"
						},
						{
							"internalType": "uint256",
							"name": "updatedAt",
							"type": "uint256"
						},
						{
							"internalType": "uint80",
							"name": "answeredInRound",
							"type": "uint80"
						}
					],
					"stateMutability": "view",
					"type": "function"
				},
				{
					"inputs": [
						{
							"internalType": "uint256",
							"name": "",
							"type": "uint256"
						}
					],
					"name": "getTimestamp",
					"outputs": [
						{
							"internalType": "uint256",
							"name": "",
							"type": "uint256"
						}
					],
					"stateMutability": "view",
					"type": "function"
				},
				{
					"inputs": [],
					"name": "latestAnswer",
					"outputs": [
						{
							"internalType": "int256",
							"name": "",
							"type": "int256"
						}
					],
					"stateMutability": "view",
					"type": "function"
				},
				{
					"inputs": [],
					"name": "latestRound",
					"outputs": [
						{
							"internalType": "uint256",
							"name": "",
							"type": "uint256"
						}
					],
					"stateMutability": "view",
					"type": "function"
				},
				{
					"inputs": [],
					"name": "latestRoundData",
					"outputs": [
						{
							"internalType": "uint80",
							"name": "roundId",
							"type": "uint80"
						},
						{
							"internalType": "int256",
							"name": "answer",
							"type": "int256"
						},
						{
							"internalType": "uint256",
							"name": "startedAt",
							"type": "uint256"
						},
						{
							"internalType": "uint256",
							"name": "updatedAt",
							"type": "uint256"
						},
						{
							"internalType": "uint80",
							"name": "answeredInRound",
							"type": "uint80"
						}
					],
					"stateMutability": "view",
					"type": "function"
				},
				{
					"inputs": [],
					"name": "latestTimestamp",
					"outputs": [
						{
							"internalType": "uint256",
							"name": "",
							"type": "uint256"
						}
					],
					"stateMutability": "view",
					"type": "function"
				},
				{
					"inputs": [
						{
							"internalType": "int256",
							"name": "_answer",
							"type": "int256"
						}
					],
					"name": "updateAnswer",
					"outputs": [],
					"stateMutability": "nonpayable",
					"type": "function"
				},
				{
					"inputs": [
						{
							"internalType": "uint80",
							"name": "_roundId",
							"type": "uint80"
						},
						{
							"internalType": "int256",
							"name": "_answer",
							"type": "int256"
						},
						{
							"internalType": "uint256",
							"name": "_timestamp",
							"type": "uint256"
						},
						{
							"internalType": "uint256",
							"name": "_startedAt",
							"type": "uint256"
						}
					],
					"name": "updateRoundData",
					"outputs": [],
					"stateMutability": "nonpayable",
					"type": "function"
				},
				{
					"inputs": [],
					"name": "version",
					"outputs": [
						{
							"internalType": "uint256",
							"name": "",
							"type": "uint256"
						}
					],
					"stateMutability": "view",
					"type": "function"
				}
			],
			"devdoc": {
				"kind": "dev",
				"methods": {},
				"title": "MockV3Aggregator",
				"version": 1
			},
			"evm": {
				"assembly": "    /* \"@chainlink/contracts/src/v0.7/tests/MockV3Aggregator.sol\":373:2387  contract MockV3Aggregator is AggregatorV2V3Interface {... */\n  mstore(0x40, 0x80)\n    /* \"@chainlink/contracts/src/v0.7/tests/MockV3Aggregator.sol\":804:921  constructor(uint8 _decimals, int256 _initialAnswer) {... */\n  callvalue\n  dup1\n  iszero\n  tag_1\n  jumpi\n  0x00\n  dup1\n  revert\ntag_1:\n  pop\n  mload(0x40)\n  sub(codesize, bytecodeSize)\n  dup1\n  bytecodeSize\n  dup4\n  codecopy\n  dup2\n  dup2\n  add\n  0x40\n  mstore\n  0x40\n  dup2\n  lt\n  iszero\n  tag_2\n  jumpi\n  0x00\n  dup1\n  revert\ntag_2:\n  dup2\n  add\n  swap1\n  dup1\n  dup1\n  mload\n  swap1\n  0x20\n  add\n  swap1\n  swap3\n  swap2\n  swap1\n  dup1\n  mload\n  swap1\n  0x20\n  add\n  swap1\n  swap3\n  swap2\n  swap1\n  pop\n  pop\n  pop\n    /* \"@chainlink/contracts/src/v0.7/tests/MockV3Aggregator.sol\":873:882  _decimals */\n  dup2\n    /* \"@chainlink/contracts/src/v0.7/tests/MockV3Aggregator.sol\":862:870  decimals */\n  0x00\n  dup1\n    /* \"@chainlink/contracts/src/v0.7/tests/MockV3Aggregator.sol\":862:882  decimals = _decimals */\n  0x0100\n  exp\n  dup2\n  sload\n  dup2\n  0xff\n  mul\n  not\n  and\n  swap1\n  dup4\n  0xff\n  and\n  mul\n  or\n  swap1\n  sstore\n  pop\n    /* \"@chainlink/contracts/src/v0.7/tests/MockV3Aggregator.sol\":888:916  updateAnswer(_initialAnswer) */\n  tag_5\n    /* \"@chainlink/contracts/src/v0.7/tests/MockV3Aggregator.sol\":901:915  _initialAnswer */\n  dup2\n    /* \"@chainlink/contracts/src/v0.7/tests/MockV3Aggregator.sol\":888:900  updateAnswer */\n  shl(0x20, tag_6)\n    /* \"@chainlink/contracts/src/v0.7/tests/MockV3Aggregator.sol\":888:916  updateAnswer(_initialAnswer) */\n  0x20\n  shr\n  jump\t// in\ntag_5:\n    /* \"@chainlink/contracts/src/v0.7/tests/MockV3Aggregator.sol\":804:921  constructor(uint8 _decimals, int256 _initialAnswer) {... */\n  pop\n  pop\n    /* \"@chainlink/contracts/src/v0.7/tests/MockV3Aggregator.sol\":373:2387  contract MockV3Aggregator is AggregatorV2V3Interface {... */\n  jump(tag_7)\n    /* \"@chainlink/contracts/src/v0.7/tests/MockV3Aggregator.sol\":925:1197  function updateAnswer(int256 _answer) public {... */\ntag_6:\n    /* \"@chainlink/contracts/src/v0.7/tests/MockV3Aggregator.sol\":991:998  _answer */\n  dup1\n    /* \"@chainlink/contracts/src/v0.7/tests/MockV3Aggregator.sol\":976:988  latestAnswer */\n  0x01\n    /* \"@chainlink/contracts/src/v0.7/tests/MockV3Aggregator.sol\":976:998  latestAnswer = _answer */\n  dup2\n  swap1\n  sstore\n  pop\n    /* \"@chainlink/contracts/src/v0.7/tests/MockV3Aggregator.sol\":1022:1037  block.timestamp */\n  timestamp\n    /* \"@chainlink/contracts/src/v0.7/tests/MockV3Aggregator.sol\":1004:1019  latestTimestamp */\n  0x02\n    /* \"@chainlink/contracts/src/v0.7/tests/MockV3Aggregator.sol\":1004:1037  latestTimestamp = block.timestamp */\n  dup2\n  swap1\n  sstore\n  pop\n    /* \"@chainlink/contracts/src/v0.7/tests/MockV3Aggregator.sol\":1043:1054  latestRound */\n  0x03\n  0x00\n    /* \"@chainlink/contracts/src/v0.7/tests/MockV3Aggregator.sol\":1043:1056  latestRound++ */\n  dup2\n  sload\n  dup1\n  swap3\n  swap2\n  swap1\n  0x01\n  add\n  swap2\n  swap1\n  pop\n  sstore\n  pop\n    /* \"@chainlink/contracts/src/v0.7/tests/MockV3Aggregator.sol\":1087:1094  _answer */\n  dup1\n    /* \"@chainlink/contracts/src/v0.7/tests/MockV3Aggregator.sol\":1062:1071  getAnswer */\n  0x04\n    /* \"@chainlink/contracts/src/v0.7/tests/MockV3Aggregator.sol\":1062:1084  getAnswer[latestRound] */\n  0x00\n    /* \"@chainlink/contracts/src/v0.7/tests/MockV3Aggregator.sol\":1072:1083  latestRound */\n  sload(0x03)\n    /* \"@chainlink/contracts/src/v0.7/tests/MockV3Aggregator.sol\":1062:1084  getAnswer[latestRound] */\n  dup2\n  mstore\n  0x20\n  add\n  swap1\n  dup2\n  mstore\n  0x20\n  add\n  0x00\n  keccak256\n    /* \"@chainlink/contracts/src/v0.7/tests/MockV3Aggregator.sol\":1062:1094  getAnswer[latestRound] = _answer */\n  dup2\n  swap1\n  sstore\n  pop\n    /* \"@chainlink/contracts/src/v0.7/tests/MockV3Aggregator.sol\":1128:1143  block.timestamp */\n  timestamp\n    /* \"@chainlink/contracts/src/v0.7/tests/MockV3Aggregator.sol\":1100:1112  getTimestamp */\n  0x05\n    /* \"@chainlink/contracts/src/v0.7/tests/MockV3Aggregator.sol\":1100:1125  getTimestamp[latestRound] */\n  0x00\n    /* \"@chainlink/contracts/src/v0.7/tests/MockV3Aggregator.sol\":1113:1124  latestRound */\n  sload(0x03)\n    /* \"@chainlink/contracts/src/v0.7/tests/MockV3Aggregator.sol\":1100:1125  getTimestamp[latestRound] */\n  dup2\n  mstore\n  0x20\n  add\n  swap1\n  dup2\n  mstore\n  0x20\n  add\n  0x00\n  keccak256\n    /* \"@chainlink/contracts/src/v0.7/tests/MockV3Aggregator.sol\":1100:1143  getTimestamp[latestRound] = block.timestamp */\n  dup2\n  swap1\n  sstore\n  pop\n    /* \"@chainlink/contracts/src/v0.7/tests/MockV3Aggregator.sol\":1177:1192  block.timestamp */\n  timestamp\n    /* \"@chainlink/contracts/src/v0.7/tests/MockV3Aggregator.sol\":1149:1161  getStartedAt */\n  0x06\n    /* \"@chainlink/contracts/src/v0.7/tests/MockV3Aggregator.sol\":1149:1174  getStartedAt[latestRound] */\n  0x00\n    /* \"@chainlink/contracts/src/v0.7/tests/MockV3Aggregator.sol\":1162:1173  latestRound */\n  sload(0x03)\n    /* \"@chainlink/contracts/src/v0.7/tests/MockV3Aggregator.sol\":1149:1174  getStartedAt[latestRound] */\n  dup2\n  mstore\n  0x20\n  add\n  swap1\n  dup2\n  mstore\n  0x20\n  add\n  0x00\n  keccak256\n    /* \"@chainlink/contracts/src/v0.7/tests/MockV3Aggregator.sol\":1149:1192  getStartedAt[latestRound] = block.timestamp */\n  dup2\n  swap1\n  sstore\n  pop\n    /* \"@chainlink/contracts/src/v0.7/tests/MockV3Aggregator.sol\":925:1197  function updateAnswer(int256 _answer) public {... */\n  pop\n  jump\t// out\n    /* \"@chainlink/contracts/src/v0.7/tests/MockV3Aggregator.sol\":373:2387  contract MockV3Aggregator is AggregatorV2V3Interface {... */\ntag_7:\n  dataSize(sub_0)\n  dup1\n  dataOffset(sub_0)\n  0x00\n  codecopy\n  0x00\n  return\nstop\n\nsub_0: assembly {\n        /* \"@chainlink/contracts/src/v0.7/tests/MockV3Aggregator.sol\":373:2387  contract MockV3Aggregator is AggregatorV2V3Interface {... */\n      mstore(0x40, 0x80)\n      callvalue\n      dup1\n      iszero\n      tag_1\n      jumpi\n      0x00\n      dup1\n      revert\n    tag_1:\n      pop\n      jumpi(tag_2, lt(calldatasize, 0x04))\n      shr(0xe0, calldataload(0x00))\n      dup1\n      0x8205bf6a\n      gt\n      tag_15\n      jumpi\n      dup1\n      0x8205bf6a\n      eq\n      tag_9\n      jumpi\n      dup1\n      0x9a6fc8f5\n      eq\n      tag_10\n      jumpi\n      dup1\n      0xa87a20ce\n      eq\n      tag_11\n      jumpi\n      dup1\n      0xb5ab58dc\n      eq\n      tag_12\n      jumpi\n      dup1\n      0xb633620c\n      eq\n      tag_13\n      jumpi\n      dup1\n      0xfeaf968c\n      eq\n      tag_14\n      jumpi\n      jump(tag_2)\n    tag_15:\n      dup1\n      0x313ce567\n      eq\n      tag_3\n      jumpi\n      dup1\n      0x4aa2011f\n      eq\n      tag_4\n      jumpi\n      dup1\n      0x50d25bcd\n      eq\n      tag_5\n      jumpi\n      dup1\n      0x54fd4d50\n      eq\n      tag_6\n      jumpi\n      dup1\n      0x668a0f02\n      eq\n      tag_7\n      jumpi\n      dup1\n      0x7284e416\n      eq\n      tag_8\n      jumpi\n    tag_2:\n      0x00\n      dup1\n      revert\n        /* \"@chainlink/contracts/src/v0.7/tests/MockV3Aggregator.sol\":479:509  uint8 public override decimals */\n    tag_3:\n      tag_16\n      tag_17\n      jump\t// in\n    tag_16:\n      mload(0x40)\n      dup1\n      dup3\n      0xff\n      and\n      dup2\n      mstore\n      0x20\n      add\n      swap2\n      pop\n      pop\n      mload(0x40)\n      dup1\n      swap2\n      sub\n      swap1\n      return\n        /* \"@chainlink/contracts/src/v0.7/tests/MockV3Aggregator.sol\":1201:1547  function updateRoundData(... */\n    tag_4:\n      tag_18\n      0x04\n      dup1\n      calldatasize\n      sub\n      0x80\n      dup2\n      lt\n      iszero\n      tag_19\n      jumpi\n      0x00\n      dup1\n      revert\n    tag_19:\n      dup2\n      add\n      swap1\n      dup1\n      dup1\n      calldataload\n      0xffffffffffffffffffff\n      and\n      swap1\n      0x20\n      add\n      swap1\n      swap3\n      swap2\n      swap1\n      dup1\n      calldataload\n      swap1\n      0x20\n      add\n      swap1\n      swap3\n      swap2\n      swap1\n      dup1\n      calldataload\n      swap1\n      0x20\n      add\n      swap1\n      swap3\n      swap2\n      swap1\n      dup1\n      calldataload\n      swap1\n      0x20\n      add\n      swap1\n      swap3\n      swap2\n      swap1\n      pop\n      pop\n      pop\n      tag_20\n      jump\t// in\n    tag_18:\n      stop\n        /* \"@chainlink/contracts/src/v0.7/tests/MockV3Aggregator.sol\":513:548  int256 public override latestAnswer */\n    tag_5:\n      tag_21\n      tag_22\n      jump\t// in\n    tag_21:\n      mload(0x40)\n      dup1\n      dup3\n      dup2\n      mstore\n      0x20\n      add\n      swap2\n      pop\n      pop\n      mload(0x40)\n      dup1\n      swap2\n      sub\n      swap1\n      return\n        /* \"@chainlink/contracts/src/v0.7/tests/MockV3Aggregator.sol\":430:474  uint256 public constant override version = 0 */\n    tag_6:\n      tag_23\n      tag_24\n      jump\t// in\n    tag_23:\n      mload(0x40)\n      dup1\n      dup3\n      dup2\n      mstore\n      0x20\n      add\n      swap2\n      pop\n      pop\n      mload(0x40)\n      dup1\n      swap2\n      sub\n      swap1\n      return\n        /* \"@chainlink/contracts/src/v0.7/tests/MockV3Aggregator.sol\":595:630  uint256 public override latestRound */\n    tag_7:\n      tag_25\n      tag_26\n      jump\t// in\n    tag_25:\n      mload(0x40)\n      dup1\n      dup3\n      dup2\n      mstore\n      0x20\n      add\n      swap2\n      pop\n      pop\n      mload(0x40)\n      dup1\n      swap2\n      sub\n      swap1\n      return\n        /* \"@chainlink/contracts/src/v0.7/tests/MockV3Aggregator.sol\":2264:2385  function description() external pure override returns (string memory) {... */\n    tag_8:\n      tag_27\n      tag_28\n      jump\t// in\n    tag_27:\n      mload(0x40)\n      dup1\n      dup1\n      0x20\n      add\n      dup3\n      dup2\n      sub\n      dup3\n      mstore\n      dup4\n      dup2\n      dup2\n      mload\n      dup2\n      mstore\n      0x20\n      add\n      swap2\n      pop\n      dup1\n      mload\n      swap1\n      0x20\n      add\n      swap1\n      dup1\n      dup4\n      dup4\n      0x00\n    tag_29:\n      dup4\n      dup2\n      lt\n      iszero\n      tag_31\n      jumpi\n      dup1\n      dup3\n      add\n      mload\n      dup2\n      dup5\n      add\n      mstore\n      0x20\n      dup2\n      add\n      swap1\n      pop\n      jump(tag_29)\n    tag_31:\n      pop\n      pop\n      pop\n      pop\n      swap1\n      pop\n      swap1\n      dup2\n      add\n      swap1\n      0x1f\n      and\n      dup1\n      iszero\n      tag_32\n      jumpi\n      dup1\n      dup3\n      sub\n      dup1\n      mload\n      0x01\n      dup4\n      0x20\n      sub\n      0x0100\n      exp\n      sub\n      not\n      and\n      dup2\n      mstore\n      0x20\n      add\n      swap2\n      pop\n    tag_32:\n      pop\n      swap3\n      pop\n      pop\n      pop\n      mload(0x40)\n      dup1\n      swap2\n      sub\n      swap1\n      return\n        /* \"@chainlink/contracts/src/v0.7/tests/MockV3Aggregator.sol\":552:591  uint256 public override latestTimestamp */\n    tag_9:\n      tag_33\n      tag_34\n      jump\t// in\n    tag_33:\n      mload(0x40)\n      dup1\n      dup3\n      dup2\n      mstore\n      0x20\n      add\n      swap2\n      pop\n      pop\n      mload(0x40)\n      dup1\n      swap2\n      sub\n      swap1\n      return\n        /* \"@chainlink/contracts/src/v0.7/tests/MockV3Aggregator.sol\":1551:1876  function getRoundData(uint80 _roundId)... */\n    tag_10:\n      tag_35\n      0x04\n      dup1\n      calldatasize\n      sub\n      0x20\n      dup2\n      lt\n      iszero\n      tag_36\n      jumpi\n      0x00\n      dup1\n      revert\n    tag_36:\n      dup2\n      add\n      swap1\n      dup1\n      dup1\n      calldataload\n      0xffffffffffffffffffff\n      and\n      swap1\n      0x20\n      add\n      swap1\n      swap3\n      swap2\n      swap1\n      pop\n      pop\n      pop\n      tag_37\n      jump\t// in\n    tag_35:\n      mload(0x40)\n      dup1\n      dup7\n      0xffffffffffffffffffff\n      and\n      dup2\n      mstore\n      0x20\n      add\n      dup6\n      dup2\n      mstore\n      0x20\n      add\n      dup5\n      dup2\n      mstore\n      0x20\n      add\n      dup4\n      dup2\n      mstore\n      0x20\n      add\n      dup3\n      0xffffffffffffffffffff\n      and\n      dup2\n      mstore\n      0x20\n      add\n      swap6\n      pop\n      pop\n      pop\n      pop\n      pop\n      pop\n      mload(0x40)\n      dup1\n      swap2\n      sub\n      swap1\n      return\n        /* \"@chainlink/contracts/src/v0.7/tests/MockV3Aggregator.sol\":925:1197  function updateAnswer(int256 _answer) public {... */\n    tag_11:\n      tag_38\n      0x04\n      dup1\n      calldatasize\n      sub\n      0x20\n      dup2\n      lt\n      iszero\n      tag_39\n      jumpi\n      0x00\n      dup1\n      revert\n    tag_39:\n      dup2\n      add\n      swap1\n      dup1\n      dup1\n      calldataload\n      swap1\n      0x20\n      add\n      swap1\n      swap3\n      swap2\n      swap1\n      pop\n      pop\n      pop\n      tag_40\n      jump\t// in\n    tag_38:\n      stop\n        /* \"@chainlink/contracts/src/v0.7/tests/MockV3Aggregator.sol\":635:687  mapping(uint256 => int256) public override getAnswer */\n    tag_12:\n      tag_41\n      0x04\n      dup1\n      calldatasize\n      sub\n      0x20\n      dup2\n      lt\n      iszero\n      tag_42\n      jumpi\n      0x00\n      dup1\n      revert\n    tag_42:\n      dup2\n      add\n      swap1\n      dup1\n      dup1\n      calldataload\n      swap1\n      0x20\n      add\n      swap1\n      swap3\n      swap2\n      swap1\n      pop\n      pop\n      pop\n      tag_43\n      jump\t// in\n    tag_41:\n      mload(0x40)\n      dup1\n      dup3\n      dup2\n      mstore\n      0x20\n      add\n      swap2\n      pop\n      pop\n      mload(0x40)\n      dup1\n      swap2\n      sub\n      swap1\n      return\n        /* \"@chainlink/contracts/src/v0.7/tests/MockV3Aggregator.sol\":691:747  mapping(uint256 => uint256) public override getTimestamp */\n    tag_13:\n      tag_44\n      0x04\n      dup1\n      calldatasize\n      sub\n      0x20\n      dup2\n      lt\n      iszero\n      tag_45\n      jumpi\n      0x00\n      dup1\n      revert\n    tag_45:\n      dup2\n      add\n      swap1\n      dup1\n      dup1\n      calldataload\n      swap1\n      0x20\n      add\n      swap1\n      swap3\n      swap2\n      swap1\n      pop\n      pop\n      pop\n      tag_46\n      jump\t// in\n    tag_44:\n      mload(0x40)\n      dup1\n      dup3\n      dup2\n      mstore\n      0x20\n      add\n      swap2\n      pop\n      pop\n      mload(0x40)\n      dup1\n      swap2\n      sub\n      swap1\n      return\n        /* \"@chainlink/contracts/src/v0.7/tests/MockV3Aggregator.sol\":1880:2260  function latestRoundData()... */\n    tag_14:\n      tag_47\n      tag_48\n      jump\t// in\n    tag_47:\n      mload(0x40)\n      dup1\n      dup7\n      0xffffffffffffffffffff\n      and\n      dup2\n      mstore\n      0x20\n      add\n      dup6\n      dup2\n      mstore\n      0x20\n      add\n      dup5\n      dup2\n      mstore\n      0x20\n      add\n      dup4\n      dup2\n      mstore\n      0x20\n      add\n      dup3\n      0xffffffffffffffffffff\n      and\n      dup2\n      mstore\n      0x20\n      add\n      swap6\n      pop\n      pop\n      pop\n      pop\n      pop\n      pop\n      mload(0x40)\n      dup1\n      swap2\n      sub\n      swap1\n      return\n        /* \"@chainlink/contracts/src/v0.7/tests/MockV3Aggregator.sol\":479:509  uint8 public override decimals */\n    tag_17:\n      0x00\n      dup1\n      sload\n      swap1\n      0x0100\n      exp\n      swap1\n      div\n      0xff\n      and\n      dup2\n      jump\t// out\n        /* \"@chainlink/contracts/src/v0.7/tests/MockV3Aggregator.sol\":1201:1547  function updateRoundData(... */\n    tag_20:\n        /* \"@chainlink/contracts/src/v0.7/tests/MockV3Aggregator.sol\":1346:1354  _roundId */\n      dup4\n        /* \"@chainlink/contracts/src/v0.7/tests/MockV3Aggregator.sol\":1332:1354  latestRound = _roundId */\n      0xffffffffffffffffffff\n      and\n        /* \"@chainlink/contracts/src/v0.7/tests/MockV3Aggregator.sol\":1332:1343  latestRound */\n      0x03\n        /* \"@chainlink/contracts/src/v0.7/tests/MockV3Aggregator.sol\":1332:1354  latestRound = _roundId */\n      dup2\n      swap1\n      sstore\n      pop\n        /* \"@chainlink/contracts/src/v0.7/tests/MockV3Aggregator.sol\":1375:1382  _answer */\n      dup3\n        /* \"@chainlink/contracts/src/v0.7/tests/MockV3Aggregator.sol\":1360:1372  latestAnswer */\n      0x01\n        /* \"@chainlink/contracts/src/v0.7/tests/MockV3Aggregator.sol\":1360:1382  latestAnswer = _answer */\n      dup2\n      swap1\n      sstore\n      pop\n        /* \"@chainlink/contracts/src/v0.7/tests/MockV3Aggregator.sol\":1406:1416  _timestamp */\n      dup2\n        /* \"@chainlink/contracts/src/v0.7/tests/MockV3Aggregator.sol\":1388:1403  latestTimestamp */\n      0x02\n        /* \"@chainlink/contracts/src/v0.7/tests/MockV3Aggregator.sol\":1388:1416  latestTimestamp = _timestamp */\n      dup2\n      swap1\n      sstore\n      pop\n        /* \"@chainlink/contracts/src/v0.7/tests/MockV3Aggregator.sol\":1447:1454  _answer */\n      dup3\n        /* \"@chainlink/contracts/src/v0.7/tests/MockV3Aggregator.sol\":1422:1431  getAnswer */\n      0x04\n        /* \"@chainlink/contracts/src/v0.7/tests/MockV3Aggregator.sol\":1422:1444  getAnswer[latestRound] */\n      0x00\n        /* \"@chainlink/contracts/src/v0.7/tests/MockV3Aggregator.sol\":1432:1443  latestRound */\n      sload(0x03)\n        /* \"@chainlink/contracts/src/v0.7/tests/MockV3Aggregator.sol\":1422:1444  getAnswer[latestRound] */\n      dup2\n      mstore\n      0x20\n      add\n      swap1\n      dup2\n      mstore\n      0x20\n      add\n      0x00\n      keccak256\n        /* \"@chainlink/contracts/src/v0.7/tests/MockV3Aggregator.sol\":1422:1454  getAnswer[latestRound] = _answer */\n      dup2\n      swap1\n      sstore\n      pop\n        /* \"@chainlink/contracts/src/v0.7/tests/MockV3Aggregator.sol\":1488:1498  _timestamp */\n      dup2\n        /* \"@chainlink/contracts/src/v0.7/tests/MockV3Aggregator.sol\":1460:1472  getTimestamp */\n      0x05\n        /* \"@chainlink/contracts/src/v0.7/tests/MockV3Aggregator.sol\":1460:1485  getTimestamp[latestRound] */\n      0x00\n        /* \"@chainlink/contracts/src/v0.7/tests/MockV3Aggregator.sol\":1473:1484  latestRound */\n      sload(0x03)\n        /* \"@chainlink/contracts/src/v0.7/tests/MockV3Aggregator.sol\":1460:1485  getTimestamp[latestRound] */\n      dup2\n      mstore\n      0x20\n      add\n      swap1\n      dup2\n      mstore\n      0x20\n      add\n      0x00\n      keccak256\n        /* \"@chainlink/contracts/src/v0.7/tests/MockV3Aggregator.sol\":1460:1498  getTimestamp[latestRound] = _timestamp */\n      dup2\n      swap1\n      sstore\n      pop\n        /* \"@chainlink/contracts/src/v0.7/tests/MockV3Aggregator.sol\":1532:1542  _startedAt */\n      dup1\n        /* \"@chainlink/contracts/src/v0.7/tests/MockV3Aggregator.sol\":1504:1516  getStartedAt */\n      0x06\n        /* \"@chainlink/contracts/src/v0.7/tests/MockV3Aggregator.sol\":1504:1529  getStartedAt[latestRound] */\n      0x00\n        /* \"@chainlink/contracts/src/v0.7/tests/MockV3Aggregator.sol\":1517:1528  latestRound */\n      sload(0x03)\n        /* \"@chainlink/contracts/src/v0.7/tests/MockV3Aggregator.sol\":1504:1529  getStartedAt[latestRound] */\n      dup2\n      mstore\n      0x20\n      add\n      swap1\n      dup2\n      mstore\n      0x20\n      add\n      0x00\n      keccak256\n        /* \"@chainlink/contracts/src/v0.7/tests/MockV3Aggregator.sol\":1504:1542  getStartedAt[latestRound] = _startedAt */\n      dup2\n      swap1\n      sstore\n      pop\n        /* \"@chainlink/contracts/src/v0.7/tests/MockV3Aggregator.sol\":1201:1547  function updateRoundData(... */\n      pop\n      pop\n      pop\n      pop\n      jump\t// out\n        /* \"@chainlink/contracts/src/v0.7/tests/MockV3Aggregator.sol\":513:548  int256 public override latestAnswer */\n    tag_22:\n      sload(0x01)\n      dup2\n      jump\t// out\n        /* \"@chainlink/contracts/src/v0.7/tests/MockV3Aggregator.sol\":430:474  uint256 public constant override version = 0 */\n    tag_24:\n        /* \"@chainlink/contracts/src/v0.7/tests/MockV3Aggregator.sol\":473:474  0 */\n      0x00\n        /* \"@chainlink/contracts/src/v0.7/tests/MockV3Aggregator.sol\":430:474  uint256 public constant override version = 0 */\n      dup2\n      jump\t// out\n        /* \"@chainlink/contracts/src/v0.7/tests/MockV3Aggregator.sol\":595:630  uint256 public override latestRound */\n    tag_26:\n      sload(0x03)\n      dup2\n      jump\t// out\n        /* \"@chainlink/contracts/src/v0.7/tests/MockV3Aggregator.sol\":2264:2385  function description() external pure override returns (string memory) {... */\n    tag_28:\n        /* \"@chainlink/contracts/src/v0.7/tests/MockV3Aggregator.sol\":2319:2332  string memory */\n      0x60\n        /* \"@chainlink/contracts/src/v0.7/tests/MockV3Aggregator.sol\":2340:2380  return \"v0.6/tests/MockV3Aggregator.sol\" */\n      mload(0x40)\n      dup1\n      0x40\n      add\n      0x40\n      mstore\n      dup1\n      0x1f\n      dup2\n      mstore\n      0x20\n      add\n      0x76302e362f74657374732f4d6f636b563341676772656761746f722e736f6c00\n      dup2\n      mstore\n      pop\n      swap1\n      pop\n        /* \"@chainlink/contracts/src/v0.7/tests/MockV3Aggregator.sol\":2264:2385  function description() external pure override returns (string memory) {... */\n      swap1\n      jump\t// out\n        /* \"@chainlink/contracts/src/v0.7/tests/MockV3Aggregator.sol\":552:591  uint256 public override latestTimestamp */\n    tag_34:\n      sload(0x02)\n      dup2\n      jump\t// out\n        /* \"@chainlink/contracts/src/v0.7/tests/MockV3Aggregator.sol\":1551:1876  function getRoundData(uint80 _roundId)... */\n    tag_37:\n        /* \"@chainlink/contracts/src/v0.7/tests/MockV3Aggregator.sol\":1645:1659  uint80 roundId */\n      0x00\n        /* \"@chainlink/contracts/src/v0.7/tests/MockV3Aggregator.sol\":1667:1680  int256 answer */\n      dup1\n        /* \"@chainlink/contracts/src/v0.7/tests/MockV3Aggregator.sol\":1688:1705  uint256 startedAt */\n      0x00\n        /* \"@chainlink/contracts/src/v0.7/tests/MockV3Aggregator.sol\":1713:1730  uint256 updatedAt */\n      dup1\n        /* \"@chainlink/contracts/src/v0.7/tests/MockV3Aggregator.sol\":1738:1760  uint80 answeredInRound */\n      0x00\n        /* \"@chainlink/contracts/src/v0.7/tests/MockV3Aggregator.sol\":1783:1791  _roundId */\n      dup6\n        /* \"@chainlink/contracts/src/v0.7/tests/MockV3Aggregator.sol\":1793:1802  getAnswer */\n      0x04\n        /* \"@chainlink/contracts/src/v0.7/tests/MockV3Aggregator.sol\":1793:1812  getAnswer[_roundId] */\n      0x00\n        /* \"@chainlink/contracts/src/v0.7/tests/MockV3Aggregator.sol\":1803:1811  _roundId */\n      dup9\n        /* \"@chainlink/contracts/src/v0.7/tests/MockV3Aggregator.sol\":1793:1812  getAnswer[_roundId] */\n      0xffffffffffffffffffff\n      and\n      dup2\n      mstore\n      0x20\n      add\n      swap1\n      dup2\n      mstore\n      0x20\n      add\n      0x00\n      keccak256\n      sload\n        /* \"@chainlink/contracts/src/v0.7/tests/MockV3Aggregator.sol\":1814:1826  getStartedAt */\n      0x06\n        /* \"@chainlink/contracts/src/v0.7/tests/MockV3Aggregator.sol\":1814:1836  getStartedAt[_roundId] */\n      0x00\n        /* \"@chainlink/contracts/src/v0.7/tests/MockV3Aggregator.sol\":1827:1835  _roundId */\n      dup10\n        /* \"@chainlink/contracts/src/v0.7/tests/MockV3Aggregator.sol\":1814:1836  getStartedAt[_roundId] */\n      0xffffffffffffffffffff\n      and\n      dup2\n      mstore\n      0x20\n      add\n      swap1\n      dup2\n      mstore\n      0x20\n      add\n      0x00\n      keccak256\n      sload\n        /* \"@chainlink/contracts/src/v0.7/tests/MockV3Aggregator.sol\":1838:1850  getTimestamp */\n      0x05\n        /* \"@chainlink/contracts/src/v0.7/tests/MockV3Aggregator.sol\":1838:1860  getTimestamp[_roundId] */\n      0x00\n        /* \"@chainlink/contracts/src/v0.7/tests/MockV3Aggregator.sol\":1851:1859  _roundId */\n      dup11\n        /* \"@chainlink/contracts/src/v0.7/tests/MockV3Aggregator.sol\":1838:1860  getTimestamp[_roundId] */\n      0xffffffffffffffffffff\n      and\n      dup2\n      mstore\n      0x20\n      add\n      swap1\n      dup2\n      mstore\n      0x20\n      add\n      0x00\n      keccak256\n      sload\n        /* \"@chainlink/contracts/src/v0.7/tests/MockV3Aggregator.sol\":1862:1870  _roundId */\n      dup10\n        /* \"@chainlink/contracts/src/v0.7/tests/MockV3Aggregator.sol\":1775:1871  return (_roundId, getAnswer[_roundId], getStartedAt[_roundId], getTimestamp[_roundId], _roundId) */\n      swap5\n      pop\n      swap5\n      pop\n      swap5\n      pop\n      swap5\n      pop\n      swap5\n      pop\n        /* \"@chainlink/contracts/src/v0.7/tests/MockV3Aggregator.sol\":1551:1876  function getRoundData(uint80 _roundId)... */\n      swap2\n      swap4\n      swap6\n      swap1\n      swap3\n      swap5\n      pop\n      jump\t// out\n        /* \"@chainlink/contracts/src/v0.7/tests/MockV3Aggregator.sol\":925:1197  function updateAnswer(int256 _answer) public {... */\n    tag_40:\n        /* \"@chainlink/contracts/src/v0.7/tests/MockV3Aggregator.sol\":991:998  _answer */\n      dup1\n        /* \"@chainlink/contracts/src/v0.7/tests/MockV3Aggregator.sol\":976:988  latestAnswer */\n      0x01\n        /* \"@chainlink/contracts/src/v0.7/tests/MockV3Aggregator.sol\":976:998  latestAnswer = _answer */\n      dup2\n      swap1\n      sstore\n      pop\n        /* \"@chainlink/contracts/src/v0.7/tests/MockV3Aggregator.sol\":1022:1037  block.timestamp */\n      timestamp\n        /* \"@chainlink/contracts/src/v0.7/tests/MockV3Aggregator.sol\":1004:1019  latestTimestamp */\n      0x02\n        /* \"@chainlink/contracts/src/v0.7/tests/MockV3Aggregator.sol\":1004:1037  latestTimestamp = block.timestamp */\n      dup2\n      swap1\n      sstore\n      pop\n        /* \"@chainlink/contracts/src/v0.7/tests/MockV3Aggregator.sol\":1043:1054  latestRound */\n      0x03\n      0x00\n        /* \"@chainlink/contracts/src/v0.7/tests/MockV3Aggregator.sol\":1043:1056  latestRound++ */\n      dup2\n      sload\n      dup1\n      swap3\n      swap2\n      swap1\n      0x01\n      add\n      swap2\n      swap1\n      pop\n      sstore\n      pop\n        /* \"@chainlink/contracts/src/v0.7/tests/MockV3Aggregator.sol\":1087:1094  _answer */\n      dup1\n        /* \"@chainlink/contracts/src/v0.7/tests/MockV3Aggregator.sol\":1062:1071  getAnswer */\n      0x04\n        /* \"@chainlink/contracts/src/v0.7/tests/MockV3Aggregator.sol\":1062:1084  getAnswer[latestRound] */\n      0x00\n        /* \"@chainlink/contracts/src/v0.7/tests/MockV3Aggregator.sol\":1072:1083  latestRound */\n      sload(0x03)\n        /* \"@chainlink/contracts/src/v0.7/tests/MockV3Aggregator.sol\":1062:1084  getAnswer[latestRound] */\n      dup2\n      mstore\n      0x20\n      add\n      swap1\n      dup2\n      mstore\n      0x20\n      add\n      0x00\n      keccak256\n        /* \"@chainlink/contracts/src/v0.7/tests/MockV3Aggregator.sol\":1062:1094  getAnswer[latestRound] = _answer */\n      dup2\n      swap1\n      sstore\n      pop\n        /* \"@chainlink/contracts/src/v0.7/tests/MockV3Aggregator.sol\":1128:1143  block.timestamp */\n      timestamp\n        /* \"@chainlink/contracts/src/v0.7/tests/MockV3Aggregator.sol\":1100:1112  getTimestamp */\n      0x05\n        /* \"@chainlink/contracts/src/v0.7/tests/MockV3Aggregator.sol\":1100:1125  getTimestamp[latestRound] */\n      0x00\n        /* \"@chainlink/contracts/src/v0.7/tests/MockV3Aggregator.sol\":1113:1124  latestRound */\n      sload(0x03)\n        /* \"@chainlink/contracts/src/v0.7/tests/MockV3Aggregator.sol\":1100:1125  getTimestamp[latestRound] */\n      dup2\n      mstore\n      0x20\n      add\n      swap1\n      dup2\n      mstore\n      0x20\n      add\n      0x00\n      keccak256\n        /* \"@chainlink/contracts/src/v0.7/tests/MockV3Aggregator.sol\":1100:1143  getTimestamp[latestRound] = block.timestamp */\n      dup2\n      swap1\n      sstore\n      pop\n        /* \"@chainlink/contracts/src/v0.7/tests/MockV3Aggregator.sol\":1177:1192  block.timestamp */\n      timestamp\n        /* \"@chainlink/contracts/src/v0.7/tests/MockV3Aggregator.sol\":1149:1161  getStartedAt */\n      0x06\n        /* \"@chainlink/contracts/src/v0.7/tests/MockV3Aggregator.sol\":1149:1174  getStartedAt[latestRound] */\n      0x00\n        /* \"@chainlink/contracts/src/v0.7/tests/MockV3Aggregator.sol\":1162:1173  latestRound */\n      sload(0x03)\n        /* \"@chainlink/contracts/src/v0.7/tests/MockV3Aggregator.sol\":1149:1174  getStartedAt[latestRound] */\n      dup2\n      mstore\n      0x20\n      add\n      swap1\n      dup2\n      mstore\n      0x20\n      add\n      0x00\n      keccak256\n        /* \"@chainlink/contracts/src/v0.7/tests/MockV3Aggregator.sol\":1149:1192  getStartedAt[latestRound] = block.timestamp */\n      dup2\n      swap1\n      sstore\n      pop\n        /* \"@chainlink/contracts/src/v0.7/tests/MockV3Aggregator.sol\":925:1197  function updateAnswer(int256 _answer) public {... */\n      pop\n      jump\t// out\n        /* \"@chainlink/contracts/src/v0.7/tests/MockV3Aggregator.sol\":635:687  mapping(uint256 => int256) public override getAnswer */\n    tag_43:\n      mstore(0x20, 0x04)\n      dup1\n      0x00\n      mstore\n      keccak256(0x00, 0x40)\n      0x00\n      swap2\n      pop\n      swap1\n      pop\n      sload\n      dup2\n      jump\t// out\n        /* \"@chainlink/contracts/src/v0.7/tests/MockV3Aggregator.sol\":691:747  mapping(uint256 => uint256) public override getTimestamp */\n    tag_46:\n      mstore(0x20, 0x05)\n      dup1\n      0x00\n      mstore\n      keccak256(0x00, 0x40)\n      0x00\n      swap2\n      pop\n      swap1\n      pop\n      sload\n      dup2\n      jump\t// out\n        /* \"@chainlink/contracts/src/v0.7/tests/MockV3Aggregator.sol\":1880:2260  function latestRoundData()... */\n    tag_48:\n        /* \"@chainlink/contracts/src/v0.7/tests/MockV3Aggregator.sol\":1962:1976  uint80 roundId */\n      0x00\n        /* \"@chainlink/contracts/src/v0.7/tests/MockV3Aggregator.sol\":1984:1997  int256 answer */\n      dup1\n        /* \"@chainlink/contracts/src/v0.7/tests/MockV3Aggregator.sol\":2005:2022  uint256 startedAt */\n      0x00\n        /* \"@chainlink/contracts/src/v0.7/tests/MockV3Aggregator.sol\":2030:2047  uint256 updatedAt */\n      dup1\n        /* \"@chainlink/contracts/src/v0.7/tests/MockV3Aggregator.sol\":2055:2077  uint80 answeredInRound */\n      0x00\n        /* \"@chainlink/contracts/src/v0.7/tests/MockV3Aggregator.sol\":2114:2125  latestRound */\n      sload(0x03)\n        /* \"@chainlink/contracts/src/v0.7/tests/MockV3Aggregator.sol\":2134:2143  getAnswer */\n      0x04\n        /* \"@chainlink/contracts/src/v0.7/tests/MockV3Aggregator.sol\":2134:2156  getAnswer[latestRound] */\n      0x00\n        /* \"@chainlink/contracts/src/v0.7/tests/MockV3Aggregator.sol\":2144:2155  latestRound */\n      sload(0x03)\n        /* \"@chainlink/contracts/src/v0.7/tests/MockV3Aggregator.sol\":2134:2156  getAnswer[latestRound] */\n      dup2\n      mstore\n      0x20\n      add\n      swap1\n      dup2\n      mstore\n      0x20\n      add\n      0x00\n      keccak256\n      sload\n        /* \"@chainlink/contracts/src/v0.7/tests/MockV3Aggregator.sol\":2164:2176  getStartedAt */\n      0x06\n        /* \"@chainlink/contracts/src/v0.7/tests/MockV3Aggregator.sol\":2164:2189  getStartedAt[latestRound] */\n      0x00\n        /* \"@chainlink/contracts/src/v0.7/tests/MockV3Aggregator.sol\":2177:2188  latestRound */\n      sload(0x03)\n        /* \"@chainlink/contracts/src/v0.7/tests/MockV3Aggregator.sol\":2164:2189  getStartedAt[latestRound] */\n      dup2\n      mstore\n      0x20\n      add\n      swap1\n      dup2\n      mstore\n      0x20\n      add\n      0x00\n      keccak256\n      sload\n        /* \"@chainlink/contracts/src/v0.7/tests/MockV3Aggregator.sol\":2197:2209  getTimestamp */\n      0x05\n        /* \"@chainlink/contracts/src/v0.7/tests/MockV3Aggregator.sol\":2197:2222  getTimestamp[latestRound] */\n      0x00\n        /* \"@chainlink/contracts/src/v0.7/tests/MockV3Aggregator.sol\":2210:2221  latestRound */\n      sload(0x03)\n        /* \"@chainlink/contracts/src/v0.7/tests/MockV3Aggregator.sol\":2197:2222  getTimestamp[latestRound] */\n      dup2\n      mstore\n      0x20\n      add\n      swap1\n      dup2\n      mstore\n      0x20\n      add\n      0x00\n      keccak256\n      sload\n        /* \"@chainlink/contracts/src/v0.7/tests/MockV3Aggregator.sol\":2237:2248  latestRound */\n      sload(0x03)\n        /* \"@chainlink/contracts/src/v0.7/tests/MockV3Aggregator.sol\":2092:2255  return (... */\n      swap5\n      pop\n      swap5\n      pop\n      swap5\n      pop\n      swap5\n      pop\n      swap5\n      pop\n        /* \"@chainlink/contracts/src/v0.7/tests/MockV3Aggregator.sol\":1880:2260  function latestRoundData()... */\n      swap1\n      swap2\n      swap3\n      swap4\n      swap5\n      jump\t// out\n\n    auxdata: 0xa2646970667358221220f5a69fb71373fa4380062f9aaf01e9754d3188e8d2440076695bc79aabe1817264736f6c63430007060033\n}\n",
				"bytecode": {
					"linkReferences": {},
					"object": "608060405234801561001057600080fd5b506040516107403803806107408339818101604052604081101561003357600080fd5b810190808051906020019092919080519060200190929190505050816000806101000a81548160ff021916908360ff1602179055506100778161007e60201b60201c565b50506100ef565b806001819055504260028190555060036000815480929190600101919050555080600460006003548152602001908152602001600020819055504260056000600354815260200190815260200160002081905550426006600060035481526020019081526020016000208190555050565b610642806100fe6000396000f3fe608060405234801561001057600080fd5b50600436106100b45760003560e01c80638205bf6a116100715780638205bf6a1461020f5780639a6fc8f51461022d578063a87a20ce146102af578063b5ab58dc146102dd578063b633620c1461031f578063feaf968c14610361576100b4565b8063313ce567146100b95780634aa2011f146100da57806350d25bcd1461013257806354fd4d5014610150578063668a0f021461016e5780637284e4161461018c575b600080fd5b6100c16103b3565b604051808260ff16815260200191505060405180910390f35b610130600480360360808110156100f057600080fd5b81019080803569ffffffffffffffffffff1690602001909291908035906020019092919080359060200190929190803590602001909291905050506103c4565b005b61013a610439565b6040518082815260200191505060405180910390f35b61015861043f565b6040518082815260200191505060405180910390f35b610176610444565b6040518082815260200191505060405180910390f35b61019461044a565b6040518080602001828103825283818151815260200191508051906020019080838360005b838110156101d45780820151818401526020810190506101b9565b50505050905090810190601f1680156102015780820380516001836020036101000a031916815260200191505b509250505060405180910390f35b610217610487565b6040518082815260200191505060405180910390f35b6102656004803603602081101561024357600080fd5b81019080803569ffffffffffffffffffff16906020019092919050505061048d565b604051808669ffffffffffffffffffff1681526020018581526020018481526020018381526020018269ffffffffffffffffffff1681526020019550505050505060405180910390f35b6102db600480360360208110156102c557600080fd5b810190808035906020019092919050505061050a565b005b610309600480360360208110156102f357600080fd5b810190808035906020019092919050505061057b565b6040518082815260200191505060405180910390f35b61034b6004803603602081101561033557600080fd5b8101908080359060200190929190505050610593565b6040518082815260200191505060405180910390f35b6103696105ab565b604051808669ffffffffffffffffffff1681526020018581526020018481526020018381526020018269ffffffffffffffffffff1681526020019550505050505060405180910390f35b60008054906101000a900460ff1681565b8369ffffffffffffffffffff16600381905550826001819055508160028190555082600460006003548152602001908152602001600020819055508160056000600354815260200190815260200160002081905550806006600060035481526020019081526020016000208190555050505050565b60015481565b600081565b60035481565b60606040518060400160405280601f81526020017f76302e362f74657374732f4d6f636b563341676772656761746f722e736f6c00815250905090565b60025481565b600080600080600085600460008869ffffffffffffffffffff16815260200190815260200160002054600660008969ffffffffffffffffffff16815260200190815260200160002054600560008a69ffffffffffffffffffff16815260200190815260200160002054899450945094509450945091939590929450565b806001819055504260028190555060036000815480929190600101919050555080600460006003548152602001908152602001600020819055504260056000600354815260200190815260200160002081905550426006600060035481526020019081526020016000208190555050565b60046020528060005260406000206000915090505481565b60056020528060005260406000206000915090505481565b600080600080600060035460046000600354815260200190815260200160002054600660006003548152602001908152602001600020546005600060035481526020019081526020016000205460035494509450945094509450909192939456fea2646970667358221220f5a69fb71373fa4380062f9aaf01e9754d3188e8d2440076695bc79aabe1817264736f6c63430007060033",
					"opcodes": "PUSH1 0x80 PUSH1 0x40 MSTORE CALLVALUE DUP1 ISZERO PUSH2 0x10 JUMPI PUSH1 0x0 DUP1 REVERT JUMPDEST POP PUSH1 0x40 MLOAD PUSH2 0x740 CODESIZE SUB DUP1 PUSH2 0x740 DUP4 CODECOPY DUP2 DUP2 ADD PUSH1 0x40 MSTORE PUSH1 0x40 DUP2 LT ISZERO PUSH2 0x33 JUMPI PUSH1 0x0 DUP1 REVERT JUMPDEST DUP2 ADD SWAP1 DUP1 DUP1 MLOAD SWAP1 PUSH1 0x20 ADD SWAP1 SWAP3 SWAP2 SWAP1 DUP1 MLOAD SWAP1 PUSH1 0x20 ADD SWAP1 SWAP3 SWAP2 SWAP1 POP POP POP DUP2 PUSH1 0x0 DUP1 PUSH2 0x100 EXP DUP2 SLOAD DUP2 PUSH1 0xFF MUL NOT AND SWAP1 DUP4 PUSH1 0xFF AND MUL OR SWAP1 SSTORE POP PUSH2 0x77 DUP2 PUSH2 0x7E PUSH1 0x20 SHL PUSH1 0x20 SHR JUMP JUMPDEST POP POP PUSH2 0xEF JUMP JUMPDEST DUP1 PUSH1 0x1 DUP2 SWAP1 SSTORE POP TIMESTAMP PUSH1 0x2 DUP2 SWAP1 SSTORE POP PUSH1 0x3 PUSH1 0x0 DUP2 SLOAD DUP1 SWAP3 SWAP2 SWAP1 PUSH1 0x1 ADD SWAP2 SWAP1 POP SSTORE POP DUP1 PUSH1 0x4 PUSH1 0x0 PUSH1 0x3 SLOAD DUP2 MSTORE PUSH1 0x20 ADD SWAP1 DUP2 MSTORE PUSH1 0x20 ADD PUSH1 0x0 KECCAK256 DUP2 SWAP1 SSTORE POP TIMESTAMP PUSH1 0x5 PUSH1 0x0 PUSH1 0x3 SLOAD DUP2 MSTORE PUSH1 0x20 ADD SWAP1 DUP2 MSTORE PUSH1 0x20 ADD PUSH1 0x0 KECCAK256 DUP2 SWAP1 SSTORE POP TIMESTAMP PUSH1 0x6 PUSH1 0x0 PUSH1 0x3 SLOAD DUP2 MSTORE PUSH1 0x20 ADD SWAP1 DUP2 MSTORE PUSH1 0x20 ADD PUSH1 0x0 KECCAK256 DUP2 SWAP1 SSTORE POP POP JUMP JUMPDEST PUSH2 0x642 DUP1 PUSH2 0xFE PUSH1 0x0 CODECOPY PUSH1 0x0 RETURN INVALID PUSH1 0x80 PUSH1 0x40 MSTORE CALLVALUE DUP1 ISZERO PUSH2 0x10 JUMPI PUSH1 0x0 DUP1 REVERT JUMPDEST POP PUSH1 0x4 CALLDATASIZE LT PUSH2 0xB4 JUMPI PUSH1 0x0 CALLDATALOAD PUSH1 0xE0 SHR DUP1 PUSH4 0x8205BF6A GT PUSH2 0x71 JUMPI DUP1 PUSH4 0x8205BF6A EQ PUSH2 0x20F JUMPI DUP1 PUSH4 0x9A6FC8F5 EQ PUSH2 0x22D JUMPI DUP1 PUSH4 0xA87A20CE EQ PUSH2 0x2AF JUMPI DUP1 PUSH4 0xB5AB58DC EQ PUSH2 0x2DD JUMPI DUP1 PUSH4 0xB633620C EQ PUSH2 0x31F JUMPI DUP1 PUSH4 0xFEAF968C EQ PUSH2 0x361 JUMPI PUSH2 0xB4 JUMP JUMPDEST DUP1 PUSH4 0x313CE567 EQ PUSH2 0xB9 JUMPI DUP1 PUSH4 0x4AA2011F EQ PUSH2 0xDA JUMPI DUP1 PUSH4 0x50D25BCD EQ PUSH2 0x132 JUMPI DUP1 PUSH4 0x54FD4D50 EQ PUSH2 0x150 JUMPI DUP1 PUSH4 0x668A0F02 EQ PUSH2 0x16E JUMPI DUP1 PUSH4 0x7284E416 EQ PUSH2 0x18C JUMPI JUMPDEST PUSH1 0x0 DUP1 REVERT JUMPDEST PUSH2 0xC1 PUSH2 0x3B3 JUMP JUMPDEST PUSH1 0x40 MLOAD DUP1 DUP3 PUSH1 0xFF AND DUP2 MSTORE PUSH1 0x20 ADD SWAP2 POP POP PUSH1 0x40 MLOAD DUP1 SWAP2 SUB SWAP1 RETURN JUMPDEST PUSH2 0x130 PUSH1 0x4 DUP1 CALLDATASIZE SUB PUSH1 0x80 DUP2 LT ISZERO PUSH2 0xF0 JUMPI PUSH1 0x0 DUP1 REVERT JUMPDEST DUP2 ADD SWAP1 DUP1 DUP1 CALLDATALOAD PUSH10 0xFFFFFFFFFFFFFFFFFFFF AND SWAP1 PUSH1 0x20 ADD SWAP1 SWAP3 SWAP2 SWAP1 DUP1 CALLDATALOAD SWAP1 PUSH1 0x20 ADD SWAP1 SWAP3 SWAP2 SWAP1 DUP1 CALLDATALOAD SWAP1 PUSH1 0x20 ADD SWAP1 SWAP3 SWAP2 SWAP1 DUP1 CALLDATALOAD SWAP1 PUSH1 0x20 ADD SWAP1 SWAP3 SWAP2 SWAP1 POP POP POP PUSH2 0x3C4 JUMP JUMPDEST STOP JUMPDEST PUSH2 0x13A PUSH2 0x439 JUMP JUMPDEST PUSH1 0x40 MLOAD DUP1 DUP3 DUP2 MSTORE PUSH1 0x20 ADD SWAP2 POP POP PUSH1 0x40 MLOAD DUP1 SWAP2 SUB SWAP1 RETURN JUMPDEST PUSH2 0x158 PUSH2 0x43F JUMP JUMPDEST PUSH1 0x40 MLOAD DUP1 DUP3 DUP2 MSTORE PUSH1 0x20 ADD SWAP2 POP POP PUSH1 0x40 MLOAD DUP1 SWAP2 SUB SWAP1 RETURN JUMPDEST PUSH2 0x176 PUSH2 0x444 JUMP JUMPDEST PUSH1 0x40 MLOAD DUP1 DUP3 DUP2 MSTORE PUSH1 0x20 ADD SWAP2 POP POP PUSH1 0x40 MLOAD DUP1 SWAP2 SUB SWAP1 RETURN JUMPDEST PUSH2 0x194 PUSH2 0x44A JUMP JUMPDEST PUSH1 0x40 MLOAD DUP1 DUP1 PUSH1 0x20 ADD DUP3 DUP2 SUB DUP3 MSTORE DUP4 DUP2 DUP2 MLOAD DUP2 MSTORE PUSH1 0x20 ADD SWAP2 POP DUP1 MLOAD SWAP1 PUSH1 0x20 ADD SWAP1 DUP1 DUP4 DUP4 PUSH1 0x0 JUMPDEST DUP4 DUP2 LT ISZERO PUSH2 0x1D4 JUMPI DUP1 DUP3 ADD MLOAD DUP2 DUP5 ADD MSTORE PUSH1 0x20 DUP2 ADD SWAP1 POP PUSH2 0x1B9 JUMP JUMPDEST POP POP POP POP SWAP1 POP SWAP1 DUP2 ADD SWAP1 PUSH1 0x1F AND DUP1 ISZERO PUSH2 0x201 JUMPI DUP1 DUP3 SUB DUP1 MLOAD PUSH1 0x1 DUP4 PUSH1 0x20 SUB PUSH2 0x100 EXP SUB NOT AND DUP2 MSTORE PUSH1 0x20 ADD SWAP2 POP JUMPDEST POP SWAP3 POP POP POP PUSH1 0x40 MLOAD DUP1 SWAP2 SUB SWAP1 RETURN JUMPDEST PUSH2 0x217 PUSH2 0x487 JUMP JUMPDEST PUSH1 0x40 MLOAD DUP1 DUP3 DUP2 MSTORE PUSH1 0x20 ADD SWAP2 POP POP PUSH1 0x40 MLOAD DUP1 SWAP2 SUB SWAP1 RETURN JUMPDEST PUSH2 0x265 PUSH1 0x4 DUP1 CALLDATASIZE SUB PUSH1 0x20 DUP2 LT ISZERO PUSH2 0x243 JUMPI PUSH1 0x0 DUP1 REVERT JUMPDEST DUP2 ADD SWAP1 DUP1 DUP1 CALLDATALOAD PUSH10 0xFFFFFFFFFFFFFFFFFFFF AND SWAP1 PUSH1 0x20 ADD SWAP1 SWAP3 SWAP2 SWAP1 POP POP POP PUSH2 0x48D JUMP JUMPDEST PUSH1 0x40 MLOAD DUP1 DUP7 PUSH10 0xFFFFFFFFFFFFFFFFFFFF AND DUP2 MSTORE PUSH1 0x20 ADD DUP6 DUP2 MSTORE PUSH1 0x20 ADD DUP5 DUP2 MSTORE PUSH1 0x20 ADD DUP4 DUP2 MSTORE PUSH1 0x20 ADD DUP3 PUSH10 0xFFFFFFFFFFFFFFFFFFFF AND DUP2 MSTORE PUSH1 0x20 ADD SWAP6 POP POP POP POP POP POP PUSH1 0x40 MLOAD DUP1 SWAP2 SUB SWAP1 RETURN JUMPDEST PUSH2 0x2DB PUSH1 0x4 DUP1 CALLDATASIZE SUB PUSH1 0x20 DUP2 LT ISZERO PUSH2 0x2C5 JUMPI PUSH1 0x0 DUP1 REVERT JUMPDEST DUP2 ADD SWAP1 DUP1 DUP1 CALLDATALOAD SWAP1 PUSH1 0x20 ADD SWAP1 SWAP3 SWAP2 SWAP1 POP POP POP PUSH2 0x50A JUMP JUMPDEST STOP JUMPDEST PUSH2 0x309 PUSH1 0x4 DUP1 CALLDATASIZE SUB PUSH1 0x20 DUP2 LT ISZERO PUSH2 0x2F3 JUMPI PUSH1 0x0 DUP1 REVERT JUMPDEST DUP2 ADD SWAP1 DUP1 DUP1 CALLDATALOAD SWAP1 PUSH1 0x20 ADD SWAP1 SWAP3 SWAP2 SWAP1 POP POP POP PUSH2 0x57B JUMP JUMPDEST PUSH1 0x40 MLOAD DUP1 DUP3 DUP2 MSTORE PUSH1 0x20 ADD SWAP2 POP POP PUSH1 0x40 MLOAD DUP1 SWAP2 SUB SWAP1 RETURN JUMPDEST PUSH2 0x34B PUSH1 0x4 DUP1 CALLDATASIZE SUB PUSH1 0x20 DUP2 LT ISZERO PUSH2 0x335 JUMPI PUSH1 0x0 DUP1 REVERT JUMPDEST DUP2 ADD SWAP1 DUP1 DUP1 CALLDATALOAD SWAP1 PUSH1 0x20 ADD SWAP1 SWAP3 SWAP2 SWAP1 POP POP POP PUSH2 0x593 JUMP JUMPDEST PUSH1 0x40 MLOAD DUP1 DUP3 DUP2 MSTORE PUSH1 0x20 ADD SWAP2 POP POP PUSH1 0x40 MLOAD DUP1 SWAP2 SUB SWAP1 RETURN JUMPDEST PUSH2 0x369 PUSH2 0x5AB JUMP JUMPDEST PUSH1 0x40 MLOAD DUP1 DUP7 PUSH10 0xFFFFFFFFFFFFFFFFFFFF AND DUP2 MSTORE PUSH1 0x20 ADD DUP6 DUP2 MSTORE PUSH1 0x20 ADD DUP5 DUP2 MSTORE PUSH1 0x20 ADD DUP4 DUP2 MSTORE PUSH1 0x20 ADD DUP3 PUSH10 0xFFFFFFFFFFFFFFFFFFFF AND DUP2 MSTORE PUSH1 0x20 ADD SWAP6 POP POP POP POP POP POP PUSH1 0x40 MLOAD DUP1 SWAP2 SUB SWAP1 RETURN JUMPDEST PUSH1 0x0 DUP1 SLOAD SWAP1 PUSH2 0x100 EXP SWAP1 DIV PUSH1 0xFF AND DUP2 JUMP JUMPDEST DUP4 PUSH10 0xFFFFFFFFFFFFFFFFFFFF AND PUSH1 0x3 DUP2 SWAP1 SSTORE POP DUP3 PUSH1 0x1 DUP2 SWAP1 SSTORE POP DUP2 PUSH1 0x2 DUP2 SWAP1 SSTORE POP DUP3 PUSH1 0x4 PUSH1 0x0 PUSH1 0x3 SLOAD DUP2 MSTORE PUSH1 0x20 ADD SWAP1 DUP2 MSTORE PUSH1 0x20 ADD PUSH1 0x0 KECCAK256 DUP2 SWAP1 SSTORE POP DUP2 PUSH1 0x5 PUSH1 0x0 PUSH1 0x3 SLOAD DUP2 MSTORE PUSH1 0x20 ADD SWAP1 DUP2 MSTORE PUSH1 0x20 ADD PUSH1 0x0 KECCAK256 DUP2 SWAP1 SSTORE POP DUP1 PUSH1 0x6 PUSH1 0x0 PUSH1 0x3 SLOAD DUP2 MSTORE PUSH1 0x20 ADD SWAP1 DUP2 MSTORE PUSH1 0x20 ADD PUSH1 0x0 KECCAK256 DUP2 SWAP1 SSTORE POP POP POP POP POP JUMP JUMPDEST PUSH1 0x1 SLOAD DUP2 JUMP JUMPDEST PUSH1 0x0 DUP2 JUMP JUMPDEST PUSH1 0x3 SLOAD DUP2 JUMP JUMPDEST PUSH1 0x60 PUSH1 0x40 MLOAD DUP1 PUSH1 0x40 ADD PUSH1 0x40 MSTORE DUP1 PUSH1 0x1F DUP2 MSTORE PUSH1 0x20 ADD PUSH32 0x76302E362F74657374732F4D6F636B563341676772656761746F722E736F6C00 DUP2 MSTORE POP SWAP1 POP SWAP1 JUMP JUMPDEST PUSH1 0x2 SLOAD DUP2 JUMP JUMPDEST PUSH1 0x0 DUP1 PUSH1 0x0 DUP1 PUSH1 0x0 DUP6 PUSH1 0x4 PUSH1 0x0 DUP9 PUSH10 0xFFFFFFFFFFFFFFFFFFFF AND DUP2 MSTORE PUSH1 0x20 ADD SWAP1 DUP2 MSTORE PUSH1 0x20 ADD PUSH1 0x0 KECCAK256 SLOAD PUSH1 0x6 PUSH1 0x0 DUP10 PUSH10 0xFFFFFFFFFFFFFFFFFFFF AND DUP2 MSTORE PUSH1 0x20 ADD SWAP1 DUP2 MSTORE PUSH1 0x20 ADD PUSH1 0x0 KECCAK256 SLOAD PUSH1 0x5 PUSH1 0x0 DUP11 PUSH10 0xFFFFFFFFFFFFFFFFFFFF AND DUP2 MSTORE PUSH1 0x20 ADD SWAP1 DUP2 MSTORE PUSH1 0x20 ADD PUSH1 0x0 KECCAK256 SLOAD DUP10 SWAP5 POP SWAP5 POP SWAP5 POP SWAP5 POP SWAP5 POP SWAP2 SWAP4 SWAP6 SWAP1 SWAP3 SWAP5 POP JUMP JUMPDEST DUP1 PUSH1 0x1 DUP2 SWAP1 SSTORE POP TIMESTAMP PUSH1 0x2 DUP2 SWAP1 SSTORE POP PUSH1 0x3 PUSH1 0x0 DUP2 SLOAD DUP1 SWAP3 SWAP2 SWAP1 PUSH1 0x1 ADD SWAP2 SWAP1 POP SSTORE POP DUP1 PUSH1 0x4 PUSH1 0x0 PUSH1 0x3 SLOAD DUP2 MSTORE PUSH1 0x20 ADD SWAP1 DUP2 MSTORE PUSH1 0x20 ADD PUSH1 0x0 KECCAK256 DUP2 SWAP1 SSTORE POP TIMESTAMP PUSH1 0x5 PUSH1 0x0 PUSH1 0x3 SLOAD DUP2 MSTORE PUSH1 0x20 ADD SWAP1 DUP2 MSTORE PUSH1 0x20 ADD PUSH1 0x0 KECCAK256 DUP2 SWAP1 SSTORE POP TIMESTAMP PUSH1 0x6 PUSH1 0x0 PUSH1 0x3 SLOAD DUP2 MSTORE PUSH1 0x20 ADD SWAP1 DUP2 MSTORE PUSH1 0x20 ADD PUSH1 0x0 KECCAK256 DUP2 SWAP1 SSTORE POP POP JUMP JUMPDEST PUSH1 0x4 PUSH1 0x20 MSTORE DUP1 PUSH1 0x0 MSTORE PUSH1 0x40 PUSH1 0x0 KECCAK256 PUSH1 0x0 SWAP2 POP SWAP1 POP SLOAD DUP2 JUMP JUMPDEST PUSH1 0x5 PUSH1 0x20 MSTORE DUP1 PUSH1 0x0 MSTORE PUSH1 0x40 PUSH1 0x0 KECCAK256 PUSH1 0x0 SWAP2 POP SWAP1 POP SLOAD DUP2 JUMP JUMPDEST PUSH1 0x0 DUP1 PUSH1 0x0 DUP1 PUSH1 0x0 PUSH1 0x3 SLOAD PUSH1 0x4 PUSH1 0x0 PUSH1 0x3 SLOAD DUP2 MSTORE PUSH1 0x20 ADD SWAP1 DUP2 MSTORE PUSH1 0x20 ADD PUSH1 0x0 KECCAK256 SLOAD PUSH1 0x6 PUSH1 0x0 PUSH1 0x3 SLOAD DUP2 MSTORE PUSH1 0x20 ADD SWAP1 DUP2 MSTORE PUSH1 0x20 ADD PUSH1 0x0 KECCAK256 SLOAD PUSH1 0x5 PUSH1 0x0 PUSH1 0x3 SLOAD DUP2 MSTORE PUSH1 0x20 ADD SWAP1 DUP2 MSTORE PUSH1 0x20 ADD PUSH1 0x0 KECCAK256 SLOAD PUSH1 0x3 SLOAD SWAP5 POP SWAP5 POP SWAP5 POP SWAP5 POP SWAP5 POP SWAP1 SWAP2 SWAP3 SWAP4 SWAP5 JUMP INVALID LOG2 PUSH5 0x6970667358 0x22 SLT KECCAK256 CREATE2 0xA6 SWAP16 0xB7 SGT PUSH20 0xFA4380062F9AAF01E9754D3188E8D2440076695B 0xC7 SWAP11 0xAB 0xE1 DUP2 PUSH19 0x64736F6C634300070600330000000000000000 "
				},
				"gasEstimates": {
					"creation": {
						"codeDepositCost": "320400",
						"executionCost": "infinite",
						"totalCost": "infinite"
					},
					"external": {
						"decimals()": "1045",
						"description()": "infinite",
						"getAnswer(uint256)": "1229",
						"getRoundData(uint80)": "3128",
						"getTimestamp(uint256)": "1251",
						"latestAnswer()": "1050",
						"latestRound()": "1094",
						"latestRoundData()": "7105",
						"latestTimestamp()": "1005",
						"updateAnswer(int256)": "123810",
						"updateRoundData(uint80,int256,uint256,uint256)": "123068",
						"version()": "272"
					}
				},
				"methodIdentifiers": {
					"decimals()": "313ce567",
					"description()": "7284e416",
					"getAnswer(uint256)": "b5ab58dc",
					"getRoundData(uint80)": "9a6fc8f5",
					"getTimestamp(uint256)": "b633620c",
					"latestAnswer()": "50d25bcd",
					"latestRound()": "668a0f02",
					"latestRoundData()": "feaf968c",
					"latestTimestamp()": "8205bf6a",
					"updateAnswer(int256)": "a87a20ce",
					"updateRoundData(uint80,int256,uint256,uint256)": "4aa2011f",
					"version()": "54fd4d50"
				}
			},
			"storageLayout": {
				"storage": [
					{
						"astId": 115,
						"contract": "@chainlink/contracts/src/v0.7/tests/MockV3Aggregator.sol:MockV3Aggregator",
						"label": "decimals",
						"offset": 0,
						"slot": "0",
						"type": "t_uint8"
					},
					{
						"astId": 118,
						"contract": "@chainlink/contracts/src/v0.7/tests/MockV3Aggregator.sol:MockV3Aggregator",
						"label": "latestAnswer",
						"offset": 0,
						"slot": "1",
						"type": "t_int256"
					},
					{
						"astId": 121,
						"contract": "@chainlink/contracts/src/v0.7/tests/MockV3Aggregator.sol:MockV3Aggregator",
						"label": "latestTimestamp",
						"offset": 0,
						"slot": "2",
						"type": "t_uint256"
					},
					{
						"astId": 124,
						"contract": "@chainlink/contracts/src/v0.7/tests/MockV3Aggregator.sol:MockV3Aggregator",
						"label": "latestRound",
						"offset": 0,
						"slot": "3",
						"type": "t_uint256"
					},
					{
						"astId": 129,
						"contract": "@chainlink/contracts/src/v0.7/tests/MockV3Aggregator.sol:MockV3Aggregator",
						"label": "getAnswer",
						"offset": 0,
						"slot": "4",
						"type": "t_mapping(t_uint256,t_int256)"
					},
					{
						"astId": 134,
						"contract": "@chainlink/contracts/src/v0.7/tests/MockV3Aggregator.sol:MockV3Aggregator",
						"label": "getTimestamp",
						"offset": 0,
						"slot": "5",
						"type": "t_mapping(t_uint256,t_uint256)"
					},
					{
						"astId": 138,
						"contract": "@chainlink/contracts/src/v0.7/tests/MockV3Aggregator.sol:MockV3Aggregator",
						"label": "getStartedAt",
						"offset": 0,
						"slot": "6",
						"type": "t_mapping(t_uint256,t_uint256)"
					}
				],
				"types": {
					"t_int256": {
						"encoding": "inplace",
						"label": "int256",
						"numberOfBytes": "32"
					},
					"t_mapping(t_uint256,t_int256)": {
						"encoding": "mapping",
						"key": "t_uint256",
						"label": "mapping(uint256 => int256)",
						"numberOfBytes": "32",
						"value": "t_int256"
					},
					"t_mapping(t_uint256,t_uint256)": {
						"encoding": "mapping",
						"key": "t_uint256",
						"label": "mapping(uint256 => uint256)",
						"numberOfBytes": "32",
						"value": "t_uint256"
					},
					"t_uint256": {
						"encoding": "inplace",
						"label": "uint256",
						"numberOfBytes": "32"
					},
					"t_uint8": {
						"encoding": "inplace",
						"label": "uint8",
						"numberOfBytes": "1"
					}
				}
			},
			"userdoc": {
				"kind": "user",
				"methods": {},
				"notice": "Based on the FluxAggregator contractUse this contract when you need to test other contract's ability to read data from an aggregator contract, but how the aggregator got its answer is unimportant",
				"version": 1
			}
		}
	}
}