{
	"data": {
		"bytecode": {
			"linkReferences": {},
			"object": "60c060405242600e557f79d3d8832d904592c0bf9818b621522c988bb8b0c05cdc3b15aea1b6e8db0c1560001b601455620493e0601560006101000a81548163ffffffff021916908363ffffffff1602179055506003601560046101000a81548161ffff021916908361ffff1602179055506001601560066101000a81548163ffffffff021916908363ffffffff16021790555060006015600a6101000a81548160ff02191690836001811115620000bc57620000bb62000635565b5b021790555060405180606001604052806040518060800160405280605c8152602001620059e4605c913981526020016040518060800160405280605c815260200162005afa605c913981526020016040518060800160405280605d815260200162005987605d913981525060169060036200013992919062000548565b5060405180606001604052806040518060800160405280605d815260200162005a9d605d913981526020016040518060800160405280605d815260200162005b56605d913981526020016040518060800160405280605d815260200162005a40605d91398152506017906003620001b292919062000548565b50348015620001c057600080fd5b5060405162005bb338038062005bb38339818101604052810190620001e691906200074e565b806040518060400160405280600981526020017f42756c6c264265617200000000000000000000000000000000000000000000008152506040518060400160405280600481526020017f4242544b00000000000000000000000000000000000000000000000000000000815250816000908162000264919062000a30565b50806001908162000276919062000a30565b505050620002996200028d620003d660201b60201c565b620003de60201b60201c565b8073ffffffffffffffffffffffffffffffffffffffff1660808173ffffffffffffffffffffffffffffffffffffffff16815250505081601260146101000a81548167ffffffffffffffff021916908367ffffffffffffffff1602179055508073ffffffffffffffffffffffffffffffffffffffff1660a08173ffffffffffffffffffffffffffffffffffffffff168152505060a051601260006101000a81548173ffffffffffffffffffffffffffffffffffffffff021916908373ffffffffffffffffffffffffffffffffffffffff16021790555083600f8190555082600c60006101000a81548173ffffffffffffffffffffffffffffffffffffffff021916908373ffffffffffffffffffffffffffffffffffffffff160217905550620003c6620004a460201b60201c565b6010819055505050505062000c21565b600033905090565b6000600b60009054906101000a900473ffffffffffffffffffffffffffffffffffffffff16905081600b60006101000a81548173ffffffffffffffffffffffffffffffffffffffff021916908373ffffffffffffffffffffffffffffffffffffffff1602179055508173ffffffffffffffffffffffffffffffffffffffff168173ffffffffffffffffffffffffffffffffffffffff167f8be0079c531659141344cd1fd0a4f28419497f9722a3daafe3b4186f6b6457e060405160405180910390a35050565b600080600c60009054906101000a900473ffffffffffffffffffffffffffffffffffffffff1673ffffffffffffffffffffffffffffffffffffffff1663feaf968c6040518163ffffffff1660e01b815260040160a060405180830381865afa15801562000515573d6000803e3d6000fd5b505050506040513d601f19601f820116820180604052508101906200053b919062000b99565b5050509150508091505090565b82805482825590600052602060002090810192821562000595579160200282015b828111156200059457825182908162000583919062000a30565b509160200191906001019062000569565b5b509050620005a49190620005a8565b5090565b5b80821115620005cc5760008181620005c29190620005d0565b50600101620005a9565b5090565b508054620005de9062000829565b6000825580601f10620005f2575062000613565b601f01602090049060005260206000209081019062000612919062000616565b5b50565b5b808211156200063157600081600090555060010162000617565b5090565b7f4e487b7100000000000000000000000000000000000000000000000000000000600052602160045260246000fd5b600080fd5b6000819050919050565b6200067e8162000669565b81146200068a57600080fd5b50565b6000815190506200069e8162000673565b92915050565b600073ffffffffffffffffffffffffffffffffffffffff82169050919050565b6000620006d182620006a4565b9050919050565b620006e381620006c4565b8114620006ef57600080fd5b50565b6000815190506200070381620006d8565b92915050565b600067ffffffffffffffff82169050919050565b620007288162000709565b81146200073457600080fd5b50565b60008151905062000748816200071d565b92915050565b600080600080608085870312156200076b576200076a62000664565b5b60006200077b878288016200068d565b94505060206200078e87828801620006f2565b9350506040620007a18782880162000737565b9250506060620007b487828801620006f2565b91505092959194509250565b600081519050919050565b7f4e487b7100000000000000000000000000000000000000000000000000000000600052604160045260246000fd5b7f4e487b7100000000000000000000000000000000000000000000000000000000600052602260045260246000fd5b600060028204905060018216806200084257607f821691505b602082108103620008585762000857620007fa565b5b50919050565b60008190508160005260206000209050919050565b60006020601f8301049050919050565b600082821b905092915050565b600060088302620008c27fffffffffffffffffffffffffffffffffffffffffffffffffffffffffffffffff8262000883565b620008ce868362000883565b95508019841693508086168417925050509392505050565b6000819050919050565b6000620009116200090b620009058462000669565b620008e6565b62000669565b9050919050565b6000819050919050565b6200092d83620008f0565b620009456200093c8262000918565b84845462000890565b825550505050565b600090565b6200095c6200094d565b6200096981848462000922565b505050565b5b8181101562000991576200098560008262000952565b6001810190506200096f565b5050565b601f821115620009e057620009aa816200085e565b620009b58462000873565b81016020851015620009c5578190505b620009dd620009d48562000873565b8301826200096e565b50505b505050565b600082821c905092915050565b600062000a0560001984600802620009e5565b1980831691505092915050565b600062000a208383620009f2565b9150826002028217905092915050565b62000a3b82620007c0565b67ffffffffffffffff81111562000a575762000a56620007cb565b5b62000a63825462000829565b62000a7082828562000995565b600060209050601f83116001811462000aa8576000841562000a93578287015190505b62000a9f858262000a12565b86555062000b0f565b601f19841662000ab8866200085e565b60005b8281101562000ae25784890151825560018201915060208501945060208101905062000abb565b8683101562000b02578489015162000afe601f891682620009f2565b8355505b6001600288020188555050505b505050505050565b600069ffffffffffffffffffff82169050919050565b62000b388162000b17565b811462000b4457600080fd5b50565b60008151905062000b588162000b2d565b92915050565b6000819050919050565b62000b738162000b5e565b811462000b7f57600080fd5b50565b60008151905062000b938162000b68565b92915050565b600080600080600060a0868803121562000bb85762000bb762000664565b5b600062000bc88882890162000b47565b955050602062000bdb8882890162000b82565b945050604062000bee888289016200068d565b935050606062000c01888289016200068d565b925050608062000c148882890162000b47565b9150509295509295909350565b60805160a051614d3c62000c4b60003960005050600081816108f301526109470152614d3c6000f3fe608060405234801561001057600080fd5b506004361061021b5760003560e01c8063715018a611610125578063a4eb718c116100ad578063e985e9c51161007c578063e985e9c514610627578063ea7b4f7714610657578063f0e8b3ae14610673578063f2fde38b14610691578063f6eaffc8146106ad5761021b565b8063a4eb718c146105a1578063b88d4fde146105bd578063c87b56dd146105d9578063e0c86289146106095761021b565b80638e15f473116100f45780638e15f4731461050d578063947a36fb1461052b57806395d89b41146105495780639d1b464a14610567578063a22cb465146105855761021b565b8063715018a6146104ad578063724e78da146104b75780638c424f09146104d35780638da5cb5b146104ef5761021b565b80632f745c59116101a85780634f6ccce7116101775780634f6ccce7146103ce578063590f2113146103fe5780636352211e1461041c5780636e04ff0d1461044c57806370a082311461047d5761021b565b80632f745c591461034a57806340d097c31461037a57806342842e0e146103965780634585e33b146103b25761021b565b8063095ea7b3116101ef578063095ea7b3146102bc57806318160ddd146102d85780631fe543e3146102f657806322a900821461031257806323b872dd1461032e5761021b565b80626d6cae1461022057806301ffc9a71461023e57806306fdde031461026e578063081812fc1461028c575b600080fd5b6102286106dd565b6040516102359190613129565b60405180910390f35b610258600480360381019061025391906131b0565b6106e3565b60405161026591906131f8565b60405180910390f35b6102766106f5565b60405161028391906132a3565b60405180910390f35b6102a660048036038101906102a191906132f1565b610787565b6040516102b3919061335f565b60405180910390f35b6102d660048036038101906102d191906133a6565b6107cd565b005b6102e06108e4565b6040516102ed9190613129565b60405180910390f35b610310600480360381019061030b919061352e565b6108f1565b005b61032c600480360381019061032791906132f1565b6109b1565b005b6103486004803603810190610343919061358a565b6109c3565b005b610364600480360381019061035f91906133a6565b610a23565b6040516103719190613129565b60405180910390f35b610394600480360381019061038f91906135dd565b610ac8565b005b6103b060048036038101906103ab919061358a565b610c1b565b005b6103cc60048036038101906103c79190613665565b610c3b565b005b6103e860048036038101906103e391906132f1565b610d28565b6040516103f59190613129565b60405180910390f35b610406610d99565b6040516104139190613711565b60405180910390f35b610436600480360381019061043191906132f1565b610dbf565b604051610443919061335f565b60405180910390f35b61046660048036038101906104619190613665565b610e70565b604051610474929190613781565b60405180910390f35b610497600480360381019061049291906135dd565b610f10565b6040516104a49190613129565b60405180910390f35b6104b5610fc7565b005b6104d160048036038101906104cc91906135dd565b610fdb565b005b6104ed60048036038101906104e891906135dd565b611027565b005b6104f7611073565b604051610504919061335f565b60405180910390f35b61051561109d565b60405161052291906137ca565b60405180910390f35b61053361113e565b6040516105409190613129565b60405180910390f35b610551611144565b60405161055e91906132a3565b60405180910390f35b61056f6111d6565b60405161057c91906137ca565b60405180910390f35b61059f600480360381019061059a9190613811565b6111dc565b005b6105bb60048036038101906105b6919061388d565b6111f2565b005b6105d760048036038101906105d2919061396f565b61121e565b005b6105f360048036038101906105ee91906132f1565b611280565b60405161060091906132a3565b60405180910390f35b610611611292565b60405161061e9190613129565b60405180910390f35b610641600480360381019061063c91906139f2565b6113de565b60405161064e91906131f8565b60405180910390f35b610671600480360381019061066c9190613a72565b611472565b005b61067b6114a6565b6040516106889190613b16565b60405180910390f35b6106ab60048036038101906106a691906135dd565b6114b9565b005b6106c760048036038101906106c291906132f1565b61153c565b6040516106d49190613129565b60405180910390f35b60115481565b60006106ee82611560565b9050919050565b60606000805461070490613b60565b80601f016020809104026020016040519081016040528092919081815260200182805461073090613b60565b801561077d5780601f106107525761010080835404028352916020019161077d565b820191906000526020600020905b81548152906001019060200180831161076057829003601f168201915b5050505050905090565b6000610792826115da565b6004600083815260200190815260200160002060009054906101000a900473ffffffffffffffffffffffffffffffffffffffff169050919050565b60006107d882610dbf565b90508073ffffffffffffffffffffffffffffffffffffffff168373ffffffffffffffffffffffffffffffffffffffff1603610848576040517f08c379a000000000000000000000000000000000000000000000000000000000815260040161083f90613c03565b60405180910390fd5b8073ffffffffffffffffffffffffffffffffffffffff16610867611625565b73ffffffffffffffffffffffffffffffffffffffff161480610896575061089581610890611625565b6113de565b5b6108d5576040517f08c379a00000000000000000000000000000000000000000000000000000000081526004016108cc90613c95565b60405180910390fd5b6108df838361162d565b505050565b6000600880549050905090565b7f000000000000000000000000000000000000000000000000000000000000000073ffffffffffffffffffffffffffffffffffffffff163373ffffffffffffffffffffffffffffffffffffffff16146109a357337f00000000000000000000000000000000000000000000000000000000000000006040517f1cf993f400000000000000000000000000000000000000000000000000000000815260040161099a929190613cb5565b60405180910390fd5b6109ad82826116e6565b5050565b6109b96119b9565b80600f8190555050565b6109d46109ce611625565b82611a37565b610a13576040517f08c379a0000000000000000000000000000000000000000000000000000000008152600401610a0a90613d50565b60405180910390fd5b610a1e838383611acc565b505050565b6000610a2e83610f10565b8210610a6f576040517f08c379a0000000000000000000000000000000000000000000000000000000008152600401610a6690613de2565b60405180910390fd5b600660008473ffffffffffffffffffffffffffffffffffffffff1673ffffffffffffffffffffffffffffffffffffffff168152602001908152602001600020600083815260200190815260200160002054905092915050565b6000610ad4600d611d32565b9050610ae0600d611d40565b610aea8282611d56565b60006016600081548110610b0157610b00613e02565b5b906000526020600020018054610b1690613b60565b80601f0160208091040260200160405190810160405280929190818152602001828054610b4290613b60565b8015610b8f5780601f10610b6457610100808354040283529160200191610b8f565b820191906000526020600020905b815481529060010190602001808311610b7257829003601f168201915b50505050509050610ba08282611d74565b610c166040518060400160405280601581526020017f444f4e45212121206d696e74656420746f6b656e200000000000000000000000815250836040518060400160405280601981526020017f20616e642061737369676e656420746f6b656e2075726c3a200000000000000081525084611de1565b505050565b610c368383836040518060200160405280600081525061121e565b505050565b600f54600e5442610c4c9190613e60565b1115610ce05742600e819055506000610c6361109d565b9050601054811215610c9f5760016015600a6101000a81548160ff02191690836001811115610c9557610c94613a9f565b5b0217905550610ccb565b60006015600a6101000a81548160ff02191690836001811115610cc557610cc4613a9f565b5b02179055505b610cd3611e83565b8060108190555050610d23565b610d1e6040518060400160405280601181526020017f20494e54455256414c204e4f5420555021000000000000000000000000000000815250612001565b610d24565b5b5050565b6000610d326108e4565b8210610d73576040517f08c379a0000000000000000000000000000000000000000000000000000000008152600401610d6a90613f06565b60405180910390fd5b60088281548110610d8757610d86613e02565b5b90600052602060002001549050919050565b600c60009054906101000a900473ffffffffffffffffffffffffffffffffffffffff1681565b6000806002600084815260200190815260200160002060009054906101000a900473ffffffffffffffffffffffffffffffffffffffff169050600073ffffffffffffffffffffffffffffffffffffffff168173ffffffffffffffffffffffffffffffffffffffff1603610e67576040517f08c379a0000000000000000000000000000000000000000000000000000000008152600401610e5e90613f72565b60405180910390fd5b80915050919050565b60006060600e54600f54610e849190613f92565b421115610ecc5760016040518060400160405280600181526020017f200000000000000000000000000000000000000000000000000000000000000081525091509150610f09565b60006040518060400160405280600181526020017f2000000000000000000000000000000000000000000000000000000000000000815250915091505b9250929050565b60008073ffffffffffffffffffffffffffffffffffffffff168273ffffffffffffffffffffffffffffffffffffffff1603610f80576040517f08c379a0000000000000000000000000000000000000000000000000000000008152600401610f7790614038565b60405180910390fd5b600360008373ffffffffffffffffffffffffffffffffffffffff1673ffffffffffffffffffffffffffffffffffffffff168152602001908152602001600020549050919050565b610fcf6119b9565b610fd9600061209a565b565b610fe36119b9565b80600c60006101000a81548173ffffffffffffffffffffffffffffffffffffffff021916908373ffffffffffffffffffffffffffffffffffffffff16021790555050565b61102f6119b9565b80601260006101000a81548173ffffffffffffffffffffffffffffffffffffffff021916908373ffffffffffffffffffffffffffffffffffffffff16021790555050565b6000600b60009054906101000a900473ffffffffffffffffffffffffffffffffffffffff16905090565b600080600c60009054906101000a900473ffffffffffffffffffffffffffffffffffffffff1673ffffffffffffffffffffffffffffffffffffffff1663feaf968c6040518163ffffffff1660e01b815260040160a060405180830381865afa15801561110d573d6000803e3d6000fd5b505050506040513d601f19601f8201168201806040525081019061113191906140db565b5050509150508091505090565b600f5481565b60606001805461115390613b60565b80601f016020809104026020016040519081016040528092919081815260200182805461117f90613b60565b80156111cc5780601f106111a1576101008083540402835291602001916111cc565b820191906000526020600020905b8154815290600101906020018083116111af57829003601f168201915b5050505050905090565b60105481565b6111ee6111e7611625565b8383612160565b5050565b6111fa6119b9565b80601560006101000a81548163ffffffff021916908363ffffffff16021790555050565b61122f611229611625565b83611a37565b61126e576040517f08c379a000000000000000000000000000000000000000000000000000000000815260040161126590613d50565b60405180910390fd5b61127a848484846122cc565b50505050565b606061128b82612328565b9050919050565b600061129c6119b9565b601260009054906101000a900473ffffffffffffffffffffffffffffffffffffffff1673ffffffffffffffffffffffffffffffffffffffff16635d3b1d30601454601260149054906101000a900467ffffffffffffffff16601560049054906101000a900461ffff16601560009054906101000a900463ffffffff16601560069054906101000a900463ffffffff166040518663ffffffff1660e01b815260040161134b9594939291906141aa565b6020604051808303816000875af115801561136a573d6000803e3d6000fd5b505050506040513d601f19601f8201168201806040525081019061138e91906141fd565b90507fcc58b13ad3eab50626c6a6300b1d139cd6ebb1688a7cced9461c2f7e762665ee81601560069054906101000a900463ffffffff166040516113d392919061422a565b60405180910390a190565b6000600560008473ffffffffffffffffffffffffffffffffffffffff1673ffffffffffffffffffffffffffffffffffffffff16815260200190815260200160002060008373ffffffffffffffffffffffffffffffffffffffff1673ffffffffffffffffffffffffffffffffffffffff16815260200190815260200160002060009054906101000a900460ff16905092915050565b61147a6119b9565b80601260146101000a81548167ffffffffffffffff021916908367ffffffffffffffff16021790555050565b6015600a9054906101000a900460ff1681565b6114c16119b9565b600073ffffffffffffffffffffffffffffffffffffffff168173ffffffffffffffffffffffffffffffffffffffff1603611530576040517f08c379a0000000000000000000000000000000000000000000000000000000008152600401611527906142c5565b60405180910390fd5b6115398161209a565b50565b6013818154811061154c57600080fd5b906000526020600020016000915090505481565b60007f780e9d63000000000000000000000000000000000000000000000000000000007bffffffffffffffffffffffffffffffffffffffffffffffffffffffff1916827bffffffffffffffffffffffffffffffffffffffffffffffffffffffff191614806115d357506115d28261243a565b5b9050919050565b6115e38161251c565b611622576040517f08c379a000000000000000000000000000000000000000000000000000000000815260040161161990613f72565b60405180910390fd5b50565b600033905090565b816004600083815260200190815260200160002060006101000a81548173ffffffffffffffffffffffffffffffffffffffff021916908373ffffffffffffffffffffffffffffffffffffffff160217905550808273ffffffffffffffffffffffffffffffffffffffff166116a083610dbf565b73ffffffffffffffffffffffffffffffffffffffff167f8c5be1e5ebec7d5bd14f71427d1e84f3dd0314c0f7b2291e5b200ac8c7c3b92560405160405180910390a45050565b80601390805190602001906116fc9291906130a6565b5061173b6040518060400160405280601a81526020017f2e2e2e46756c66696c6c696e672072616e646f6d20576f726473000000000000815250612001565b60008060018111156117505761174f613a9f565b5b6015600a9054906101000a900460ff16600181111561177257611771613a9f565b5b1461177e576017611781565b60165b805480602002602001604051908101604052809291908181526020016000905b8282101561184d5783829060005260206000200180546117c090613b60565b80601f01602080910402602001604051908101604052809291908181526020018280546117ec90613b60565b80156118395780601f1061180e57610100808354040283529160200191611839565b820191906000526020600020905b81548152906001019060200180831161181c57829003601f168201915b5050505050815260200190600101906117a1565b505050509050600081518360008151811061186b5761186a613e02565b5b602002602001015161187d9190614314565b905060005b61188c600d611d32565b8110156118ca576118b7818484815181106118aa576118a9613e02565b5b6020026020010151611d74565b80806118c290614345565b915050611882565b5060008060018111156118e0576118df613a9f565b5b6015600a9054906101000a900460ff16600181111561190257611901613a9f565b5b14611942576040518060400160405280600781526020017f6265617269736800000000000000000000000000000000000000000000000000815250611979565b6040518060400160405280600781526020017f62756c6c697368000000000000000000000000000000000000000000000000008152505b90507f1cd67277dcd039d660f99499bdb46e90175d6160e3f9ab788a032b7a1ad2356a816040516119aa91906132a3565b60405180910390a15050505050565b6119c1611625565b73ffffffffffffffffffffffffffffffffffffffff166119df611073565b73ffffffffffffffffffffffffffffffffffffffff1614611a35576040517f08c379a0000000000000000000000000000000000000000000000000000000008152600401611a2c906143d9565b60405180910390fd5b565b600080611a4383610dbf565b90508073ffffffffffffffffffffffffffffffffffffffff168473ffffffffffffffffffffffffffffffffffffffff161480611a855750611a8481856113de565b5b80611ac357508373ffffffffffffffffffffffffffffffffffffffff16611aab84610787565b73ffffffffffffffffffffffffffffffffffffffff16145b91505092915050565b8273ffffffffffffffffffffffffffffffffffffffff16611aec82610dbf565b73ffffffffffffffffffffffffffffffffffffffff1614611b42576040517f08c379a0000000000000000000000000000000000000000000000000000000008152600401611b399061446b565b60405180910390fd5b600073ffffffffffffffffffffffffffffffffffffffff168273ffffffffffffffffffffffffffffffffffffffff1603611bb1576040517f08c379a0000000000000000000000000000000000000000000000000000000008152600401611ba8906144fd565b60405180910390fd5b611bbc838383612588565b611bc760008261162d565b6001600360008573ffffffffffffffffffffffffffffffffffffffff1673ffffffffffffffffffffffffffffffffffffffff1681526020019081526020016000206000828254611c179190613e60565b925050819055506001600360008473ffffffffffffffffffffffffffffffffffffffff1673ffffffffffffffffffffffffffffffffffffffff1681526020019081526020016000206000828254611c6e9190613f92565b92505081905550816002600083815260200190815260200160002060006101000a81548173ffffffffffffffffffffffffffffffffffffffff021916908373ffffffffffffffffffffffffffffffffffffffff160217905550808273ffffffffffffffffffffffffffffffffffffffff168473ffffffffffffffffffffffffffffffffffffffff167fddf252ad1be2c89b69c2b068fc378daa952ba7f163c4a11628f55a4df523b3ef60405160405180910390a4611d2d838383612598565b505050565b600081600001549050919050565b6001816000016000828254019250508190555050565b611d7082826040518060200160405280600081525061259d565b5050565b611d7d8261251c565b611dbc576040517f08c379a0000000000000000000000000000000000000000000000000000000008152600401611db39061458f565b60405180910390fd5b80600a60008481526020019081526020016000209081611ddc9190614751565b505050565b611e7d84848484604051602401611dfb9493929190614823565b6040516020818303038152906040527f5ab84e1f000000000000000000000000000000000000000000000000000000007bffffffffffffffffffffffffffffffffffffffffffffffffffffffff19166020820180517bffffffffffffffffffffffffffffffffffffffffffffffffffffffff83818316178352505050506125f8565b50505050565b6000601260149054906101000a900467ffffffffffffffff1667ffffffffffffffff1603611ee6576040517f08c379a0000000000000000000000000000000000000000000000000000000008152600401611edd906148c9565b60405180910390fd5b601260009054906101000a900473ffffffffffffffffffffffffffffffffffffffff1673ffffffffffffffffffffffffffffffffffffffff16635d3b1d30601454601260149054906101000a900467ffffffffffffffff166003601560009054906101000a900463ffffffff1660016040518663ffffffff1660e01b8152600401611f7595949392919061495f565b6020604051808303816000875af1158015611f94573d6000803e3d6000fd5b505050506040513d601f19601f82011682018060405250810190611fb891906141fd565b601181905550611fff6040518060400160405280600c81526020017f526571756573742049443a200000000000000000000000000000000000000000815250601154612621565b565b6120978160405160240161201591906132a3565b6040516020818303038152906040527f41304fac000000000000000000000000000000000000000000000000000000007bffffffffffffffffffffffffffffffffffffffffffffffffffffffff19166020820180517bffffffffffffffffffffffffffffffffffffffffffffffffffffffff83818316178352505050506125f8565b50565b6000600b60009054906101000a900473ffffffffffffffffffffffffffffffffffffffff16905081600b60006101000a81548173ffffffffffffffffffffffffffffffffffffffff021916908373ffffffffffffffffffffffffffffffffffffffff1602179055508173ffffffffffffffffffffffffffffffffffffffff168173ffffffffffffffffffffffffffffffffffffffff167f8be0079c531659141344cd1fd0a4f28419497f9722a3daafe3b4186f6b6457e060405160405180910390a35050565b8173ffffffffffffffffffffffffffffffffffffffff168373ffffffffffffffffffffffffffffffffffffffff16036121ce576040517f08c379a00000000000000000000000000000000000000000000000000000000081526004016121c5906149fe565b60405180910390fd5b80600560008573ffffffffffffffffffffffffffffffffffffffff1673ffffffffffffffffffffffffffffffffffffffff16815260200190815260200160002060008473ffffffffffffffffffffffffffffffffffffffff1673ffffffffffffffffffffffffffffffffffffffff16815260200190815260200160002060006101000a81548160ff0219169083151502179055508173ffffffffffffffffffffffffffffffffffffffff168373ffffffffffffffffffffffffffffffffffffffff167f17307eab39ab6107e8899845ad3d59bd9653f200f220920489ca2b5937696c31836040516122bf91906131f8565b60405180910390a3505050565b6122d7848484611acc565b6122e3848484846126bd565b612322576040517f08c379a000000000000000000000000000000000000000000000000000000000815260040161231990614a90565b60405180910390fd5b50505050565b6060612333826115da565b6000600a6000848152602001908152602001600020805461235390613b60565b80601f016020809104026020016040519081016040528092919081815260200182805461237f90613b60565b80156123cc5780601f106123a1576101008083540402835291602001916123cc565b820191906000526020600020905b8154815290600101906020018083116123af57829003601f168201915b5050505050905060006123dd612844565b905060008151036123f2578192505050612435565b60008251111561242757808260405160200161240f929190614aec565b60405160208183030381529060405292505050612435565b6124308461285b565b925050505b919050565b60007f80ac58cd000000000000000000000000000000000000000000000000000000007bffffffffffffffffffffffffffffffffffffffffffffffffffffffff1916827bffffffffffffffffffffffffffffffffffffffffffffffffffffffff1916148061250557507f5b5e139f000000000000000000000000000000000000000000000000000000007bffffffffffffffffffffffffffffffffffffffffffffffffffffffff1916827bffffffffffffffffffffffffffffffffffffffffffffffffffffffff1916145b806125155750612514826128c3565b5b9050919050565b60008073ffffffffffffffffffffffffffffffffffffffff166002600084815260200190815260200160002060009054906101000a900473ffffffffffffffffffffffffffffffffffffffff1673ffffffffffffffffffffffffffffffffffffffff1614159050919050565b61259383838361292d565b505050565b505050565b6125a78383612a3f565b6125b460008484846126bd565b6125f3576040517f08c379a00000000000000000000000000000000000000000000000000000000081526004016125ea90614a90565b60405180910390fd5b505050565b60008151905060006a636f6e736f6c652e6c6f679050602083016000808483855afa5050505050565b6126b98282604051602401612637929190614b10565b6040516020818303038152906040527fb60e72cc000000000000000000000000000000000000000000000000000000007bffffffffffffffffffffffffffffffffffffffffffffffffffffffff19166020820180517bffffffffffffffffffffffffffffffffffffffffffffffffffffffff83818316178352505050506125f8565b5050565b60006126de8473ffffffffffffffffffffffffffffffffffffffff16612c18565b15612837578373ffffffffffffffffffffffffffffffffffffffff1663150b7a02612707611625565b8786866040518563ffffffff1660e01b81526004016127299493929190614b40565b6020604051808303816000875af192505050801561276557506040513d601f19601f820116820180604052508101906127629190614ba1565b60015b6127e7573d8060008114612795576040519150601f19603f3d011682016040523d82523d6000602084013e61279a565b606091505b5060008151036127df576040517f08c379a00000000000000000000000000000000000000000000000000000000081526004016127d690614a90565b60405180910390fd5b805181602001fd5b63150b7a0260e01b7bffffffffffffffffffffffffffffffffffffffffffffffffffffffff1916817bffffffffffffffffffffffffffffffffffffffffffffffffffffffff19161491505061283c565b600190505b949350505050565b606060405180602001604052806000815250905090565b6060612866826115da565b6000612870612844565b9050600081511161289057604051806020016040528060008152506128bb565b8061289a84612c3b565b6040516020016128ab929190614aec565b6040516020818303038152906040525b915050919050565b60007f01ffc9a7000000000000000000000000000000000000000000000000000000007bffffffffffffffffffffffffffffffffffffffffffffffffffffffff1916827bffffffffffffffffffffffffffffffffffffffffffffffffffffffff1916149050919050565b612938838383612d9b565b600073ffffffffffffffffffffffffffffffffffffffff168373ffffffffffffffffffffffffffffffffffffffff160361297a5761297581612da0565b6129b9565b8173ffffffffffffffffffffffffffffffffffffffff168373ffffffffffffffffffffffffffffffffffffffff16146129b8576129b78382612de9565b5b5b600073ffffffffffffffffffffffffffffffffffffffff168273ffffffffffffffffffffffffffffffffffffffff16036129fb576129f681612f56565b612a3a565b8273ffffffffffffffffffffffffffffffffffffffff168273ffffffffffffffffffffffffffffffffffffffff1614612a3957612a388282613027565b5b5b505050565b600073ffffffffffffffffffffffffffffffffffffffff168273ffffffffffffffffffffffffffffffffffffffff1603612aae576040517f08c379a0000000000000000000000000000000000000000000000000000000008152600401612aa590614c1a565b60405180910390fd5b612ab78161251c565b15612af7576040517f08c379a0000000000000000000000000000000000000000000000000000000008152600401612aee90614c86565b60405180910390fd5b612b0360008383612588565b6001600360008473ffffffffffffffffffffffffffffffffffffffff1673ffffffffffffffffffffffffffffffffffffffff1681526020019081526020016000206000828254612b539190613f92565b92505081905550816002600083815260200190815260200160002060006101000a81548173ffffffffffffffffffffffffffffffffffffffff021916908373ffffffffffffffffffffffffffffffffffffffff160217905550808273ffffffffffffffffffffffffffffffffffffffff16600073ffffffffffffffffffffffffffffffffffffffff167fddf252ad1be2c89b69c2b068fc378daa952ba7f163c4a11628f55a4df523b3ef60405160405180910390a4612c1460008383612598565b5050565b6000808273ffffffffffffffffffffffffffffffffffffffff163b119050919050565b606060008203612c82576040518060400160405280600181526020017f30000000000000000000000000000000000000000000000000000000000000008152509050612d96565b600082905060005b60008214612cb4578080612c9d90614345565b915050600a82612cad9190614ca6565b9150612c8a565b60008167ffffffffffffffff811115612cd057612ccf6133eb565b5b6040519080825280601f01601f191660200182016040528015612d025781602001600182028036833780820191505090505b5090505b60008514612d8f57600182612d1b9190613e60565b9150600a85612d2a9190614314565b6030612d369190613f92565b60f81b818381518110612d4c57612d4b613e02565b5b60200101907effffffffffffffffffffffffffffffffffffffffffffffffffffffffffffff1916908160001a905350600a85612d889190614ca6565b9450612d06565b8093505050505b919050565b505050565b6008805490506009600083815260200190815260200160002081905550600881908060018154018082558091505060019003906000526020600020016000909190919091505550565b60006001612df684610f10565b612e009190613e60565b9050600060076000848152602001908152602001600020549050818114612ee5576000600660008673ffffffffffffffffffffffffffffffffffffffff1673ffffffffffffffffffffffffffffffffffffffff168152602001908152602001600020600084815260200190815260200160002054905080600660008773ffffffffffffffffffffffffffffffffffffffff1673ffffffffffffffffffffffffffffffffffffffff168152602001908152602001600020600084815260200190815260200160002081905550816007600083815260200190815260200160002081905550505b6007600084815260200190815260200160002060009055600660008573ffffffffffffffffffffffffffffffffffffffff1673ffffffffffffffffffffffffffffffffffffffff16815260200190815260200160002060008381526020019081526020016000206000905550505050565b60006001600880549050612f6a9190613e60565b9050600060096000848152602001908152602001600020549050600060088381548110612f9a57612f99613e02565b5b906000526020600020015490508060088381548110612fbc57612fbb613e02565b5b90600052602060002001819055508160096000838152602001908152602001600020819055506009600085815260200190815260200160002060009055600880548061300b5761300a614cd7565b5b6001900381819060005260206000200160009055905550505050565b600061303283610f10565b905081600660008573ffffffffffffffffffffffffffffffffffffffff1673ffffffffffffffffffffffffffffffffffffffff168152602001908152602001600020600083815260200190815260200160002081905550806007600084815260200190815260200160002081905550505050565b8280548282559060005260206000209081019282156130e2579160200282015b828111156130e15782518255916020019190600101906130c6565b5b5090506130ef91906130f3565b5090565b5b8082111561310c5760008160009055506001016130f4565b5090565b6000819050919050565b61312381613110565b82525050565b600060208201905061313e600083018461311a565b92915050565b6000604051905090565b600080fd5b600080fd5b60007fffffffff0000000000000000000000000000000000000000000000000000000082169050919050565b61318d81613158565b811461319857600080fd5b50565b6000813590506131aa81613184565b92915050565b6000602082840312156131c6576131c561314e565b5b60006131d48482850161319b565b91505092915050565b60008115159050919050565b6131f2816131dd565b82525050565b600060208201905061320d60008301846131e9565b92915050565b600081519050919050565b600082825260208201905092915050565b60005b8381101561324d578082015181840152602081019050613232565b60008484015250505050565b6000601f19601f8301169050919050565b600061327582613213565b61327f818561321e565b935061328f81856020860161322f565b61329881613259565b840191505092915050565b600060208201905081810360008301526132bd818461326a565b905092915050565b6132ce81613110565b81146132d957600080fd5b50565b6000813590506132eb816132c5565b92915050565b6000602082840312156133075761330661314e565b5b6000613315848285016132dc565b91505092915050565b600073ffffffffffffffffffffffffffffffffffffffff82169050919050565b60006133498261331e565b9050919050565b6133598161333e565b82525050565b60006020820190506133746000830184613350565b92915050565b6133838161333e565b811461338e57600080fd5b50565b6000813590506133a08161337a565b92915050565b600080604083850312156133bd576133bc61314e565b5b60006133cb85828601613391565b92505060206133dc858286016132dc565b9150509250929050565b600080fd5b7f4e487b7100000000000000000000000000000000000000000000000000000000600052604160045260246000fd5b61342382613259565b810181811067ffffffffffffffff82111715613442576134416133eb565b5b80604052505050565b6000613455613144565b9050613461828261341a565b919050565b600067ffffffffffffffff821115613481576134806133eb565b5b602082029050602081019050919050565b600080fd5b60006134aa6134a584613466565b61344b565b905080838252602082019050602084028301858111156134cd576134cc613492565b5b835b818110156134f657806134e288826132dc565b8452602084019350506020810190506134cf565b5050509392505050565b600082601f830112613515576135146133e6565b5b8135613525848260208601613497565b91505092915050565b600080604083850312156135455761354461314e565b5b6000613553858286016132dc565b925050602083013567ffffffffffffffff81111561357457613573613153565b5b61358085828601613500565b9150509250929050565b6000806000606084860312156135a3576135a261314e565b5b60006135b186828701613391565b93505060206135c286828701613391565b92505060406135d3868287016132dc565b9150509250925092565b6000602082840312156135f3576135f261314e565b5b600061360184828501613391565b91505092915050565b600080fd5b60008083601f840112613625576136246133e6565b5b8235905067ffffffffffffffff8111156136425761364161360a565b5b60208301915083600182028301111561365e5761365d613492565b5b9250929050565b6000806020838503121561367c5761367b61314e565b5b600083013567ffffffffffffffff81111561369a57613699613153565b5b6136a68582860161360f565b92509250509250929050565b6000819050919050565b60006136d76136d26136cd8461331e565b6136b2565b61331e565b9050919050565b60006136e9826136bc565b9050919050565b60006136fb826136de565b9050919050565b61370b816136f0565b82525050565b60006020820190506137266000830184613702565b92915050565b600081519050919050565b600082825260208201905092915050565b60006137538261372c565b61375d8185613737565b935061376d81856020860161322f565b61377681613259565b840191505092915050565b600060408201905061379660008301856131e9565b81810360208301526137a88184613748565b90509392505050565b6000819050919050565b6137c4816137b1565b82525050565b60006020820190506137df60008301846137bb565b92915050565b6137ee816131dd565b81146137f957600080fd5b50565b60008135905061380b816137e5565b92915050565b600080604083850312156138285761382761314e565b5b600061383685828601613391565b9250506020613847858286016137fc565b9150509250929050565b600063ffffffff82169050919050565b61386a81613851565b811461387557600080fd5b50565b60008135905061388781613861565b92915050565b6000602082840312156138a3576138a261314e565b5b60006138b184828501613878565b91505092915050565b600080fd5b600067ffffffffffffffff8211156138da576138d96133eb565b5b6138e382613259565b9050602081019050919050565b82818337600083830152505050565b600061391261390d846138bf565b61344b565b90508281526020810184848401111561392e5761392d6138ba565b5b6139398482856138f0565b509392505050565b600082601f830112613956576139556133e6565b5b81356139668482602086016138ff565b91505092915050565b600080600080608085870312156139895761398861314e565b5b600061399787828801613391565b94505060206139a887828801613391565b93505060406139b9878288016132dc565b925050606085013567ffffffffffffffff8111156139da576139d9613153565b5b6139e687828801613941565b91505092959194509250565b60008060408385031215613a0957613a0861314e565b5b6000613a1785828601613391565b9250506020613a2885828601613391565b9150509250929050565b600067ffffffffffffffff82169050919050565b613a4f81613a32565b8114613a5a57600080fd5b50565b600081359050613a6c81613a46565b92915050565b600060208284031215613a8857613a8761314e565b5b6000613a9684828501613a5d565b91505092915050565b7f4e487b7100000000000000000000000000000000000000000000000000000000600052602160045260246000fd5b60028110613adf57613ade613a9f565b5b50565b6000819050613af082613ace565b919050565b6000613b0082613ae2565b9050919050565b613b1081613af5565b82525050565b6000602082019050613b2b6000830184613b07565b92915050565b7f4e487b7100000000000000000000000000000000000000000000000000000000600052602260045260246000fd5b60006002820490506001821680613b7857607f821691505b602082108103613b8b57613b8a613b31565b5b50919050565b7f4552433732313a20617070726f76616c20746f2063757272656e74206f776e6560008201527f7200000000000000000000000000000000000000000000000000000000000000602082015250565b6000613bed60218361321e565b9150613bf882613b91565b604082019050919050565b60006020820190508181036000830152613c1c81613be0565b9050919050565b7f4552433732313a20617070726f76652063616c6c6572206973206e6f7420746f60008201527f6b656e206f776e6572206e6f7220617070726f76656420666f7220616c6c0000602082015250565b6000613c7f603e8361321e565b9150613c8a82613c23565b604082019050919050565b60006020820190508181036000830152613cae81613c72565b9050919050565b6000604082019050613cca6000830185613350565b613cd76020830184613350565b9392505050565b7f4552433732313a2063616c6c6572206973206e6f7420746f6b656e206f776e6560008201527f72206e6f7220617070726f766564000000000000000000000000000000000000602082015250565b6000613d3a602e8361321e565b9150613d4582613cde565b604082019050919050565b60006020820190508181036000830152613d6981613d2d565b9050919050565b7f455243373231456e756d657261626c653a206f776e657220696e646578206f7560008201527f74206f6620626f756e6473000000000000000000000000000000000000000000602082015250565b6000613dcc602b8361321e565b9150613dd782613d70565b604082019050919050565b60006020820190508181036000830152613dfb81613dbf565b9050919050565b7f4e487b7100000000000000000000000000000000000000000000000000000000600052603260045260246000fd5b7f4e487b7100000000000000000000000000000000000000000000000000000000600052601160045260246000fd5b6000613e6b82613110565b9150613e7683613110565b9250828203905081811115613e8e57613e8d613e31565b5b92915050565b7f455243373231456e756d657261626c653a20676c6f62616c20696e646578206f60008201527f7574206f6620626f756e64730000000000000000000000000000000000000000602082015250565b6000613ef0602c8361321e565b9150613efb82613e94565b604082019050919050565b60006020820190508181036000830152613f1f81613ee3565b9050919050565b7f4552433732313a20696e76616c696420746f6b656e2049440000000000000000600082015250565b6000613f5c60188361321e565b9150613f6782613f26565b602082019050919050565b60006020820190508181036000830152613f8b81613f4f565b9050919050565b6000613f9d82613110565b9150613fa883613110565b9250828201905080821115613fc057613fbf613e31565b5b92915050565b7f4552433732313a2061646472657373207a65726f206973206e6f74206120766160008201527f6c6964206f776e65720000000000000000000000000000000000000000000000602082015250565b600061402260298361321e565b915061402d82613fc6565b604082019050919050565b6000602082019050818103600083015261405181614015565b9050919050565b600069ffffffffffffffffffff82169050919050565b61407781614058565b811461408257600080fd5b50565b6000815190506140948161406e565b92915050565b6140a3816137b1565b81146140ae57600080fd5b50565b6000815190506140c08161409a565b92915050565b6000815190506140d5816132c5565b92915050565b600080600080600060a086880312156140f7576140f661314e565b5b600061410588828901614085565b9550506020614116888289016140b1565b9450506040614127888289016140c6565b9350506060614138888289016140c6565b925050608061414988828901614085565b9150509295509295909350565b6000819050919050565b61416981614156565b82525050565b61417881613a32565b82525050565b600061ffff82169050919050565b6141958161417e565b82525050565b6141a481613851565b82525050565b600060a0820190506141bf6000830188614160565b6141cc602083018761416f565b6141d9604083018661418c565b6141e6606083018561419b565b6141f3608083018461419b565b9695505050505050565b6000602082840312156142135761421261314e565b5b6000614221848285016140c6565b91505092915050565b600060408201905061423f600083018561311a565b61424c602083018461419b565b9392505050565b7f4f776e61626c653a206e6577206f776e657220697320746865207a65726f206160008201527f6464726573730000000000000000000000000000000000000000000000000000602082015250565b60006142af60268361321e565b91506142ba82614253565b604082019050919050565b600060208201905081810360008301526142de816142a2565b9050919050565b7f4e487b7100000000000000000000000000000000000000000000000000000000600052601260045260246000fd5b600061431f82613110565b915061432a83613110565b92508261433a576143396142e5565b5b828206905092915050565b600061435082613110565b91507fffffffffffffffffffffffffffffffffffffffffffffffffffffffffffffffff820361438257614381613e31565b5b600182019050919050565b7f4f776e61626c653a2063616c6c6572206973206e6f7420746865206f776e6572600082015250565b60006143c360208361321e565b91506143ce8261438d565b602082019050919050565b600060208201905081810360008301526143f2816143b6565b9050919050565b7f4552433732313a207472616e736665722066726f6d20696e636f72726563742060008201527f6f776e6572000000000000000000000000000000000000000000000000000000602082015250565b600061445560258361321e565b9150614460826143f9565b604082019050919050565b6000602082019050818103600083015261448481614448565b9050919050565b7f4552433732313a207472616e7366657220746f20746865207a65726f2061646460008201527f7265737300000000000000000000000000000000000000000000000000000000602082015250565b60006144e760248361321e565b91506144f28261448b565b604082019050919050565b60006020820190508181036000830152614516816144da565b9050919050565b7f45524337323155524953746f726167653a2055524920736574206f66206e6f6e60008201527f6578697374656e7420746f6b656e000000000000000000000000000000000000602082015250565b6000614579602e8361321e565b91506145848261451d565b604082019050919050565b600060208201905081810360008301526145a88161456c565b9050919050565b60008190508160005260206000209050919050565b60006020601f8301049050919050565b600082821b905092915050565b6000600883026146117fffffffffffffffffffffffffffffffffffffffffffffffffffffffffffffffff826145d4565b61461b86836145d4565b95508019841693508086168417925050509392505050565b600061464e61464961464484613110565b6136b2565b613110565b9050919050565b6000819050919050565b61466883614633565b61467c61467482614655565b8484546145e1565b825550505050565b600090565b614691614684565b61469c81848461465f565b505050565b5b818110156146c0576146b5600082614689565b6001810190506146a2565b5050565b601f821115614705576146d6816145af565b6146df846145c4565b810160208510156146ee578190505b6147026146fa856145c4565b8301826146a1565b50505b505050565b600082821c905092915050565b60006147286000198460080261470a565b1980831691505092915050565b60006147418383614717565b9150826002028217905092915050565b61475a82613213565b67ffffffffffffffff811115614773576147726133eb565b5b61477d8254613b60565b6147888282856146c4565b600060209050601f8311600181146147bb57600084156147a9578287015190505b6147b38582614735565b86555061481b565b601f1984166147c9866145af565b60005b828110156147f1578489015182556001820191506020850194506020810190506147cc565b8683101561480e578489015161480a601f891682614717565b8355505b6001600288020188555050505b505050505050565b6000608082019050818103600083015261483d818761326a565b905061484c602083018661311a565b818103604083015261485e818561326a565b90508181036060830152614872818461326a565b905095945050505050565b7f537562736372697074696f6e204944206e6f7420736574000000000000000000600082015250565b60006148b360178361321e565b91506148be8261487d565b602082019050919050565b600060208201905081810360008301526148e2816148a6565b9050919050565b6000819050919050565b600061490e614909614904846148e9565b6136b2565b61417e565b9050919050565b61491e816148f3565b82525050565b6000819050919050565b600061494961494461493f84614924565b6136b2565b613851565b9050919050565b6149598161492e565b82525050565b600060a0820190506149746000830188614160565b614981602083018761416f565b61498e6040830186614915565b61499b606083018561419b565b6149a86080830184614950565b9695505050505050565b7f4552433732313a20617070726f766520746f2063616c6c657200000000000000600082015250565b60006149e860198361321e565b91506149f3826149b2565b602082019050919050565b60006020820190508181036000830152614a17816149db565b9050919050565b7f4552433732313a207472616e7366657220746f206e6f6e20455243373231526560008201527f63656976657220696d706c656d656e7465720000000000000000000000000000602082015250565b6000614a7a60328361321e565b9150614a8582614a1e565b604082019050919050565b60006020820190508181036000830152614aa981614a6d565b9050919050565b600081905092915050565b6000614ac682613213565b614ad08185614ab0565b9350614ae081856020860161322f565b80840191505092915050565b6000614af88285614abb565b9150614b048284614abb565b91508190509392505050565b60006040820190508181036000830152614b2a818561326a565b9050614b39602083018461311a565b9392505050565b6000608082019050614b556000830187613350565b614b626020830186613350565b614b6f604083018561311a565b8181036060830152614b818184613748565b905095945050505050565b600081519050614b9b81613184565b92915050565b600060208284031215614bb757614bb661314e565b5b6000614bc584828501614b8c565b91505092915050565b7f4552433732313a206d696e7420746f20746865207a65726f2061646472657373600082015250565b6000614c0460208361321e565b9150614c0f82614bce565b602082019050919050565b60006020820190508181036000830152614c3381614bf7565b9050919050565b7f4552433732313a20746f6b656e20616c7265616479206d696e74656400000000600082015250565b6000614c70601c8361321e565b9150614c7b82614c3a565b602082019050919050565b60006020820190508181036000830152614c9f81614c63565b9050919050565b6000614cb182613110565b9150614cbc83613110565b925082614ccc57614ccb6142e5565b5b828204905092915050565b7f4e487b7100000000000000000000000000000000000000000000000000000000600052603160045260246000fdfea2646970667358221220af34316b814fb5f2334787f550c3887ae4620773783be1e15cfcbb64ebc135d964736f6c6343000811003368747470733a2f2f697066732e696f2f697066732f516d646355526d4e316b4545744b676e626b564a4a3868726d73535748705a764c6b5267734b4b6f6957765739673f66696c656e616d653d73696d706c655f62756c6c2e6a736f6e68747470733a2f2f697066732e696f2f697066732f516d5258796669336f4e5a43756244786956467265336b4c5a3858654774367051736e4151525a37616b68534e733f66696c656e616d653d67616d65725f62756c6c2e6a736f6e68747470733a2f2f697066732e696f2f697066732f516d624b68425856576d777259735450465966726f52324e374e41656b414d78485556673243576b73376939716a3f66696c656e616d653d73696d706c655f626561722e6a736f6e68747470733a2f2f697066732e696f2f697066732f516d6478394878374643445a474578796a4c52367659636e75745552384b68425a426e5a6641504869556f6d6d4e3f66696c656e616d653d6265616e69655f626561722e6a736f6e68747470733a2f2f697066732e696f2f697066732f516d524a5646654d7274595332435556554d3263484a70425635615832787572706e73665a784c545451626944333f66696c656e616d653d70617274795f62756c6c2e6a736f6e68747470733a2f2f697066732e696f2f697066732f516d54564c79545375694b4755456d6238384267584733714e4338596770485a6946626a4872584b4833514845753f66696c656e616d653d636f6f6c696f5f626561722e6a736f6e",
			"opcodes": "PUSH1 0xC0 PUSH1 0x40 MSTORE TIMESTAMP PUSH1 0xE SSTORE PUSH32 0x79D3D8832D904592C0BF9818B621522C988BB8B0C05CDC3B15AEA1B6E8DB0C15 PUSH1 0x0 SHL PUSH1 0x14 SSTORE PUSH3 0x493E0 PUSH1 0x15 PUSH1 0x0 PUSH2 0x100 EXP DUP2 SLOAD DUP2 PUSH4 0xFFFFFFFF MUL NOT AND SWAP1 DUP4 PUSH4 0xFFFFFFFF AND MUL OR SWAP1 SSTORE POP PUSH1 0x3 PUSH1 0x15 PUSH1 0x4 PUSH2 0x100 EXP DUP2 SLOAD DUP2 PUSH2 0xFFFF MUL NOT AND SWAP1 DUP4 PUSH2 0xFFFF AND MUL OR SWAP1 SSTORE POP PUSH1 0x1 PUSH1 0x15 PUSH1 0x6 PUSH2 0x100 EXP DUP2 SLOAD DUP2 PUSH4 0xFFFFFFFF MUL NOT AND SWAP1 DUP4 PUSH4 0xFFFFFFFF AND MUL OR SWAP1 SSTORE POP PUSH1 0x0 PUSH1 0x15 PUSH1 0xA PUSH2 0x100 EXP DUP2 SLOAD DUP2 PUSH1 0xFF MUL NOT AND SWAP1 DUP4 PUSH1 0x1 DUP2 GT ISZERO PUSH3 0xBC JUMPI PUSH3 0xBB PUSH3 0x635 JUMP JUMPDEST JUMPDEST MUL OR SWAP1 SSTORE POP PUSH1 0x40 MLOAD DUP1 PUSH1 0x60 ADD PUSH1 0x40 MSTORE DUP1 PUSH1 0x40 MLOAD DUP1 PUSH1 0x80 ADD PUSH1 0x40 MSTORE DUP1 PUSH1 0x5C DUP2 MSTORE PUSH1 0x20 ADD PUSH3 0x59E4 PUSH1 0x5C SWAP2 CODECOPY DUP2 MSTORE PUSH1 0x20 ADD PUSH1 0x40 MLOAD DUP1 PUSH1 0x80 ADD PUSH1 0x40 MSTORE DUP1 PUSH1 0x5C DUP2 MSTORE PUSH1 0x20 ADD PUSH3 0x5AFA PUSH1 0x5C SWAP2 CODECOPY DUP2 MSTORE PUSH1 0x20 ADD PUSH1 0x40 MLOAD DUP1 PUSH1 0x80 ADD PUSH1 0x40 MSTORE DUP1 PUSH1 0x5D DUP2 MSTORE PUSH1 0x20 ADD PUSH3 0x5987 PUSH1 0x5D SWAP2 CODECOPY DUP2 MSTORE POP PUSH1 0x16 SWAP1 PUSH1 0x3 PUSH3 0x139 SWAP3 SWAP2 SWAP1 PUSH3 0x548 JUMP JUMPDEST POP PUSH1 0x40 MLOAD DUP1 PUSH1 0x60 ADD PUSH1 0x40 MSTORE DUP1 PUSH1 0x40 MLOAD DUP1 PUSH1 0x80 ADD PUSH1 0x40 MSTORE DUP1 PUSH1 0x5D DUP2 MSTORE PUSH1 0x20 ADD PUSH3 0x5A9D PUSH1 0x5D SWAP2 CODECOPY DUP2 MSTORE PUSH1 0x20 ADD PUSH1 0x40 MLOAD DUP1 PUSH1 0x80 ADD PUSH1 0x40 MSTORE DUP1 PUSH1 0x5D DUP2 MSTORE PUSH1 0x20 ADD PUSH3 0x5B56 PUSH1 0x5D SWAP2 CODECOPY DUP2 MSTORE PUSH1 0x20 ADD PUSH1 0x40 MLOAD DUP1 PUSH1 0x80 ADD PUSH1 0x40 MSTORE DUP1 PUSH1 0x5D DUP2 MSTORE PUSH1 0x20 ADD PUSH3 0x5A40 PUSH1 0x5D SWAP2 CODECOPY DUP2 MSTORE POP PUSH1 0x17 SWAP1 PUSH1 0x3 PUSH3 0x1B2 SWAP3 SWAP2 SWAP1 PUSH3 0x548 JUMP JUMPDEST POP CALLVALUE DUP1 ISZERO PUSH3 0x1C0 JUMPI PUSH1 0x0 DUP1 REVERT JUMPDEST POP PUSH1 0x40 MLOAD PUSH3 0x5BB3 CODESIZE SUB DUP1 PUSH3 0x5BB3 DUP4 CODECOPY DUP2 DUP2 ADD PUSH1 0x40 MSTORE DUP2 ADD SWAP1 PUSH3 0x1E6 SWAP2 SWAP1 PUSH3 0x74E JUMP JUMPDEST DUP1 PUSH1 0x40 MLOAD DUP1 PUSH1 0x40 ADD PUSH1 0x40 MSTORE DUP1 PUSH1 0x9 DUP2 MSTORE PUSH1 0x20 ADD PUSH32 0x42756C6C26426561720000000000000000000000000000000000000000000000 DUP2 MSTORE POP PUSH1 0x40 MLOAD DUP1 PUSH1 0x40 ADD PUSH1 0x40 MSTORE DUP1 PUSH1 0x4 DUP2 MSTORE PUSH1 0x20 ADD PUSH32 0x4242544B00000000000000000000000000000000000000000000000000000000 DUP2 MSTORE POP DUP2 PUSH1 0x0 SWAP1 DUP2 PUSH3 0x264 SWAP2 SWAP1 PUSH3 0xA30 JUMP JUMPDEST POP DUP1 PUSH1 0x1 SWAP1 DUP2 PUSH3 0x276 SWAP2 SWAP1 PUSH3 0xA30 JUMP JUMPDEST POP POP POP PUSH3 0x299 PUSH3 0x28D PUSH3 0x3D6 PUSH1 0x20 SHL PUSH1 0x20 SHR JUMP JUMPDEST PUSH3 0x3DE PUSH1 0x20 SHL PUSH1 0x20 SHR JUMP JUMPDEST DUP1 PUSH20 0xFFFFFFFFFFFFFFFFFFFFFFFFFFFFFFFFFFFFFFFF AND PUSH1 0x80 DUP2 PUSH20 0xFFFFFFFFFFFFFFFFFFFFFFFFFFFFFFFFFFFFFFFF AND DUP2 MSTORE POP POP POP DUP2 PUSH1 0x12 PUSH1 0x14 PUSH2 0x100 EXP DUP2 SLOAD DUP2 PUSH8 0xFFFFFFFFFFFFFFFF MUL NOT AND SWAP1 DUP4 PUSH8 0xFFFFFFFFFFFFFFFF AND MUL OR SWAP1 SSTORE POP DUP1 PUSH20 0xFFFFFFFFFFFFFFFFFFFFFFFFFFFFFFFFFFFFFFFF AND PUSH1 0xA0 DUP2 PUSH20 0xFFFFFFFFFFFFFFFFFFFFFFFFFFFFFFFFFFFFFFFF AND DUP2 MSTORE POP POP PUSH1 0xA0 MLOAD PUSH1 0x12 PUSH1 0x0 PUSH2 0x100 EXP DUP2 SLOAD DUP2 PUSH20 0xFFFFFFFFFFFFFFFFFFFFFFFFFFFFFFFFFFFFFFFF MUL NOT AND SWAP1 DUP4 PUSH20 0xFFFFFFFFFFFFFFFFFFFFFFFFFFFFFFFFFFFFFFFF AND MUL OR SWAP1 SSTORE POP DUP4 PUSH1 0xF DUP2 SWAP1 SSTORE POP DUP3 PUSH1 0xC PUSH1 0x0 PUSH2 0x100 EXP DUP2 SLOAD DUP2 PUSH20 0xFFFFFFFFFFFFFFFFFFFFFFFFFFFFFFFFFFFFFFFF MUL NOT AND SWAP1 DUP4 PUSH20 0xFFFFFFFFFFFFFFFFFFFFFFFFFFFFFFFFFFFFFFFF AND MUL OR SWAP1 SSTORE POP PUSH3 0x3C6 PUSH3 0x4A4 PUSH1 0x20 SHL PUSH1 0x20 SHR JUMP JUMPDEST PUSH1 0x10 DUP2 SWAP1 SSTORE POP POP POP POP POP PUSH3 0xC21 JUMP JUMPDEST PUSH1 0x0 CALLER SWAP1 POP SWAP1 JUMP JUMPDEST PUSH1 0x0 PUSH1 0xB PUSH1 0x0 SWAP1 SLOAD SWAP1 PUSH2 0x100 EXP SWAP1 DIV PUSH20 0xFFFFFFFFFFFFFFFFFFFFFFFFFFFFFFFFFFFFFFFF AND SWAP1 POP DUP2 PUSH1 0xB PUSH1 0x0 PUSH2 0x100 EXP DUP2 SLOAD DUP2 PUSH20 0xFFFFFFFFFFFFFFFFFFFFFFFFFFFFFFFFFFFFFFFF MUL NOT AND SWAP1 DUP4 PUSH20 0xFFFFFFFFFFFFFFFFFFFFFFFFFFFFFFFFFFFFFFFF AND MUL OR SWAP1 SSTORE POP DUP2 PUSH20 0xFFFFFFFFFFFFFFFFFFFFFFFFFFFFFFFFFFFFFFFF AND DUP2 PUSH20 0xFFFFFFFFFFFFFFFFFFFFFFFFFFFFFFFFFFFFFFFF AND PUSH32 0x8BE0079C531659141344CD1FD0A4F28419497F9722A3DAAFE3B4186F6B6457E0 PUSH1 0x40 MLOAD PUSH1 0x40 MLOAD DUP1 SWAP2 SUB SWAP1 LOG3 POP POP JUMP JUMPDEST PUSH1 0x0 DUP1 PUSH1 0xC PUSH1 0x0 SWAP1 SLOAD SWAP1 PUSH2 0x100 EXP SWAP1 DIV PUSH20 0xFFFFFFFFFFFFFFFFFFFFFFFFFFFFFFFFFFFFFFFF AND PUSH20 0xFFFFFFFFFFFFFFFFFFFFFFFFFFFFFFFFFFFFFFFF AND PUSH4 0xFEAF968C PUSH1 0x40 MLOAD DUP2 PUSH4 0xFFFFFFFF AND PUSH1 0xE0 SHL DUP2 MSTORE PUSH1 0x4 ADD PUSH1 0xA0 PUSH1 0x40 MLOAD DUP1 DUP4 SUB DUP2 DUP7 GAS STATICCALL ISZERO DUP1 ISZERO PUSH3 0x515 JUMPI RETURNDATASIZE PUSH1 0x0 DUP1 RETURNDATACOPY RETURNDATASIZE PUSH1 0x0 REVERT JUMPDEST POP POP POP POP PUSH1 0x40 MLOAD RETURNDATASIZE PUSH1 0x1F NOT PUSH1 0x1F DUP3 ADD AND DUP3 ADD DUP1 PUSH1 0x40 MSTORE POP DUP2 ADD SWAP1 PUSH3 0x53B SWAP2 SWAP1 PUSH3 0xB99 JUMP JUMPDEST POP POP POP SWAP2 POP POP DUP1 SWAP2 POP POP SWAP1 JUMP JUMPDEST DUP3 DUP1 SLOAD DUP3 DUP3 SSTORE SWAP1 PUSH1 0x0 MSTORE PUSH1 0x20 PUSH1 0x0 KECCAK256 SWAP1 DUP2 ADD SWAP3 DUP3 ISZERO PUSH3 0x595 JUMPI SWAP2 PUSH1 0x20 MUL DUP3 ADD JUMPDEST DUP3 DUP2 GT ISZERO PUSH3 0x594 JUMPI DUP3 MLOAD DUP3 SWAP1 DUP2 PUSH3 0x583 SWAP2 SWAP1 PUSH3 0xA30 JUMP JUMPDEST POP SWAP2 PUSH1 0x20 ADD SWAP2 SWAP1 PUSH1 0x1 ADD SWAP1 PUSH3 0x569 JUMP JUMPDEST JUMPDEST POP SWAP1 POP PUSH3 0x5A4 SWAP2 SWAP1 PUSH3 0x5A8 JUMP JUMPDEST POP SWAP1 JUMP JUMPDEST JUMPDEST DUP1 DUP3 GT ISZERO PUSH3 0x5CC JUMPI PUSH1 0x0 DUP2 DUP2 PUSH3 0x5C2 SWAP2 SWAP1 PUSH3 0x5D0 JUMP JUMPDEST POP PUSH1 0x1 ADD PUSH3 0x5A9 JUMP JUMPDEST POP SWAP1 JUMP JUMPDEST POP DUP1 SLOAD PUSH3 0x5DE SWAP1 PUSH3 0x829 JUMP JUMPDEST PUSH1 0x0 DUP3 SSTORE DUP1 PUSH1 0x1F LT PUSH3 0x5F2 JUMPI POP PUSH3 0x613 JUMP JUMPDEST PUSH1 0x1F ADD PUSH1 0x20 SWAP1 DIV SWAP1 PUSH1 0x0 MSTORE PUSH1 0x20 PUSH1 0x0 KECCAK256 SWAP1 DUP2 ADD SWAP1 PUSH3 0x612 SWAP2 SWAP1 PUSH3 0x616 JUMP JUMPDEST JUMPDEST POP JUMP JUMPDEST JUMPDEST DUP1 DUP3 GT ISZERO PUSH3 0x631 JUMPI PUSH1 0x0 DUP2 PUSH1 0x0 SWAP1 SSTORE POP PUSH1 0x1 ADD PUSH3 0x617 JUMP JUMPDEST POP SWAP1 JUMP JUMPDEST PUSH32 0x4E487B7100000000000000000000000000000000000000000000000000000000 PUSH1 0x0 MSTORE PUSH1 0x21 PUSH1 0x4 MSTORE PUSH1 0x24 PUSH1 0x0 REVERT JUMPDEST PUSH1 0x0 DUP1 REVERT JUMPDEST PUSH1 0x0 DUP2 SWAP1 POP SWAP2 SWAP1 POP JUMP JUMPDEST PUSH3 0x67E DUP2 PUSH3 0x669 JUMP JUMPDEST DUP2 EQ PUSH3 0x68A JUMPI PUSH1 0x0 DUP1 REVERT JUMPDEST POP JUMP JUMPDEST PUSH1 0x0 DUP2 MLOAD SWAP1 POP PUSH3 0x69E DUP2 PUSH3 0x673 JUMP JUMPDEST SWAP3 SWAP2 POP POP JUMP JUMPDEST PUSH1 0x0 PUSH20 0xFFFFFFFFFFFFFFFFFFFFFFFFFFFFFFFFFFFFFFFF DUP3 AND SWAP1 POP SWAP2 SWAP1 POP JUMP JUMPDEST PUSH1 0x0 PUSH3 0x6D1 DUP3 PUSH3 0x6A4 JUMP JUMPDEST SWAP1 POP SWAP2 SWAP1 POP JUMP JUMPDEST PUSH3 0x6E3 DUP2 PUSH3 0x6C4 JUMP JUMPDEST DUP2 EQ PUSH3 0x6EF JUMPI PUSH1 0x0 DUP1 REVERT JUMPDEST POP JUMP JUMPDEST PUSH1 0x0 DUP2 MLOAD SWAP1 POP PUSH3 0x703 DUP2 PUSH3 0x6D8 JUMP JUMPDEST SWAP3 SWAP2 POP POP JUMP JUMPDEST PUSH1 0x0 PUSH8 0xFFFFFFFFFFFFFFFF DUP3 AND SWAP1 POP SWAP2 SWAP1 POP JUMP JUMPDEST PUSH3 0x728 DUP2 PUSH3 0x709 JUMP JUMPDEST DUP2 EQ PUSH3 0x734 JUMPI PUSH1 0x0 DUP1 REVERT JUMPDEST POP JUMP JUMPDEST PUSH1 0x0 DUP2 MLOAD SWAP1 POP PUSH3 0x748 DUP2 PUSH3 0x71D JUMP JUMPDEST SWAP3 SWAP2 POP POP JUMP JUMPDEST PUSH1 0x0 DUP1 PUSH1 0x0 DUP1 PUSH1 0x80 DUP6 DUP8 SUB SLT ISZERO PUSH3 0x76B JUMPI PUSH3 0x76A PUSH3 0x664 JUMP JUMPDEST JUMPDEST PUSH1 0x0 PUSH3 0x77B DUP8 DUP3 DUP9 ADD PUSH3 0x68D JUMP JUMPDEST SWAP5 POP POP PUSH1 0x20 PUSH3 0x78E DUP8 DUP3 DUP9 ADD PUSH3 0x6F2 JUMP JUMPDEST SWAP4 POP POP PUSH1 0x40 PUSH3 0x7A1 DUP8 DUP3 DUP9 ADD PUSH3 0x737 JUMP JUMPDEST SWAP3 POP POP PUSH1 0x60 PUSH3 0x7B4 DUP8 DUP3 DUP9 ADD PUSH3 0x6F2 JUMP JUMPDEST SWAP2 POP POP SWAP3 SWAP6 SWAP2 SWAP5 POP SWAP3 POP JUMP JUMPDEST PUSH1 0x0 DUP2 MLOAD SWAP1 POP SWAP2 SWAP1 POP JUMP JUMPDEST PUSH32 0x4E487B7100000000000000000000000000000000000000000000000000000000 PUSH1 0x0 MSTORE PUSH1 0x41 PUSH1 0x4 MSTORE PUSH1 0x24 PUSH1 0x0 REVERT JUMPDEST PUSH32 0x4E487B7100000000000000000000000000000000000000000000000000000000 PUSH1 0x0 MSTORE PUSH1 0x22 PUSH1 0x4 MSTORE PUSH1 0x24 PUSH1 0x0 REVERT JUMPDEST PUSH1 0x0 PUSH1 0x2 DUP3 DIV SWAP1 POP PUSH1 0x1 DUP3 AND DUP1 PUSH3 0x842 JUMPI PUSH1 0x7F DUP3 AND SWAP2 POP JUMPDEST PUSH1 0x20 DUP3 LT DUP2 SUB PUSH3 0x858 JUMPI PUSH3 0x857 PUSH3 0x7FA JUMP JUMPDEST JUMPDEST POP SWAP2 SWAP1 POP JUMP JUMPDEST PUSH1 0x0 DUP2 SWAP1 POP DUP2 PUSH1 0x0 MSTORE PUSH1 0x20 PUSH1 0x0 KECCAK256 SWAP1 POP SWAP2 SWAP1 POP JUMP JUMPDEST PUSH1 0x0 PUSH1 0x20 PUSH1 0x1F DUP4 ADD DIV SWAP1 POP SWAP2 SWAP1 POP JUMP JUMPDEST PUSH1 0x0 DUP3 DUP3 SHL SWAP1 POP SWAP3 SWAP2 POP POP JUMP JUMPDEST PUSH1 0x0 PUSH1 0x8 DUP4 MUL PUSH3 0x8C2 PUSH32 0xFFFFFFFFFFFFFFFFFFFFFFFFFFFFFFFFFFFFFFFFFFFFFFFFFFFFFFFFFFFFFFFF DUP3 PUSH3 0x883 JUMP JUMPDEST PUSH3 0x8CE DUP7 DUP4 PUSH3 0x883 JUMP JUMPDEST SWAP6 POP DUP1 NOT DUP5 AND SWAP4 POP DUP1 DUP7 AND DUP5 OR SWAP3 POP POP POP SWAP4 SWAP3 POP POP POP JUMP JUMPDEST PUSH1 0x0 DUP2 SWAP1 POP SWAP2 SWAP1 POP JUMP JUMPDEST PUSH1 0x0 PUSH3 0x911 PUSH3 0x90B PUSH3 0x905 DUP5 PUSH3 0x669 JUMP JUMPDEST PUSH3 0x8E6 JUMP JUMPDEST PUSH3 0x669 JUMP JUMPDEST SWAP1 POP SWAP2 SWAP1 POP JUMP JUMPDEST PUSH1 0x0 DUP2 SWAP1 POP SWAP2 SWAP1 POP JUMP JUMPDEST PUSH3 0x92D DUP4 PUSH3 0x8F0 JUMP JUMPDEST PUSH3 0x945 PUSH3 0x93C DUP3 PUSH3 0x918 JUMP JUMPDEST DUP5 DUP5 SLOAD PUSH3 0x890 JUMP JUMPDEST DUP3 SSTORE POP POP POP POP JUMP JUMPDEST PUSH1 0x0 SWAP1 JUMP JUMPDEST PUSH3 0x95C PUSH3 0x94D JUMP JUMPDEST PUSH3 0x969 DUP2 DUP5 DUP5 PUSH3 0x922 JUMP JUMPDEST POP POP POP JUMP JUMPDEST JUMPDEST DUP2 DUP2 LT ISZERO PUSH3 0x991 JUMPI PUSH3 0x985 PUSH1 0x0 DUP3 PUSH3 0x952 JUMP JUMPDEST PUSH1 0x1 DUP2 ADD SWAP1 POP PUSH3 0x96F JUMP JUMPDEST POP POP JUMP JUMPDEST PUSH1 0x1F DUP3 GT ISZERO PUSH3 0x9E0 JUMPI PUSH3 0x9AA DUP2 PUSH3 0x85E JUMP JUMPDEST PUSH3 0x9B5 DUP5 PUSH3 0x873 JUMP JUMPDEST DUP2 ADD PUSH1 0x20 DUP6 LT ISZERO PUSH3 0x9C5 JUMPI DUP2 SWAP1 POP JUMPDEST PUSH3 0x9DD PUSH3 0x9D4 DUP6 PUSH3 0x873 JUMP JUMPDEST DUP4 ADD DUP3 PUSH3 0x96E JUMP JUMPDEST POP POP JUMPDEST POP POP POP JUMP JUMPDEST PUSH1 0x0 DUP3 DUP3 SHR SWAP1 POP SWAP3 SWAP2 POP POP JUMP JUMPDEST PUSH1 0x0 PUSH3 0xA05 PUSH1 0x0 NOT DUP5 PUSH1 0x8 MUL PUSH3 0x9E5 JUMP JUMPDEST NOT DUP1 DUP4 AND SWAP2 POP POP SWAP3 SWAP2 POP POP JUMP JUMPDEST PUSH1 0x0 PUSH3 0xA20 DUP4 DUP4 PUSH3 0x9F2 JUMP JUMPDEST SWAP2 POP DUP3 PUSH1 0x2 MUL DUP3 OR SWAP1 POP SWAP3 SWAP2 POP POP JUMP JUMPDEST PUSH3 0xA3B DUP3 PUSH3 0x7C0 JUMP JUMPDEST PUSH8 0xFFFFFFFFFFFFFFFF DUP2 GT ISZERO PUSH3 0xA57 JUMPI PUSH3 0xA56 PUSH3 0x7CB JUMP JUMPDEST JUMPDEST PUSH3 0xA63 DUP3 SLOAD PUSH3 0x829 JUMP JUMPDEST PUSH3 0xA70 DUP3 DUP3 DUP6 PUSH3 0x995 JUMP JUMPDEST PUSH1 0x0 PUSH1 0x20 SWAP1 POP PUSH1 0x1F DUP4 GT PUSH1 0x1 DUP2 EQ PUSH3 0xAA8 JUMPI PUSH1 0x0 DUP5 ISZERO PUSH3 0xA93 JUMPI DUP3 DUP8 ADD MLOAD SWAP1 POP JUMPDEST PUSH3 0xA9F DUP6 DUP3 PUSH3 0xA12 JUMP JUMPDEST DUP7 SSTORE POP PUSH3 0xB0F JUMP JUMPDEST PUSH1 0x1F NOT DUP5 AND PUSH3 0xAB8 DUP7 PUSH3 0x85E JUMP JUMPDEST PUSH1 0x0 JUMPDEST DUP3 DUP2 LT ISZERO PUSH3 0xAE2 JUMPI DUP5 DUP10 ADD MLOAD DUP3 SSTORE PUSH1 0x1 DUP3 ADD SWAP2 POP PUSH1 0x20 DUP6 ADD SWAP5 POP PUSH1 0x20 DUP2 ADD SWAP1 POP PUSH3 0xABB JUMP JUMPDEST DUP7 DUP4 LT ISZERO PUSH3 0xB02 JUMPI DUP5 DUP10 ADD MLOAD PUSH3 0xAFE PUSH1 0x1F DUP10 AND DUP3 PUSH3 0x9F2 JUMP JUMPDEST DUP4 SSTORE POP JUMPDEST PUSH1 0x1 PUSH1 0x2 DUP9 MUL ADD DUP9 SSTORE POP POP POP JUMPDEST POP POP POP POP POP POP JUMP JUMPDEST PUSH1 0x0 PUSH10 0xFFFFFFFFFFFFFFFFFFFF DUP3 AND SWAP1 POP SWAP2 SWAP1 POP JUMP JUMPDEST PUSH3 0xB38 DUP2 PUSH3 0xB17 JUMP JUMPDEST DUP2 EQ PUSH3 0xB44 JUMPI PUSH1 0x0 DUP1 REVERT JUMPDEST POP JUMP JUMPDEST PUSH1 0x0 DUP2 MLOAD SWAP1 POP PUSH3 0xB58 DUP2 PUSH3 0xB2D JUMP JUMPDEST SWAP3 SWAP2 POP POP JUMP JUMPDEST PUSH1 0x0 DUP2 SWAP1 POP SWAP2 SWAP1 POP JUMP JUMPDEST PUSH3 0xB73 DUP2 PUSH3 0xB5E JUMP JUMPDEST DUP2 EQ PUSH3 0xB7F JUMPI PUSH1 0x0 DUP1 REVERT JUMPDEST POP JUMP JUMPDEST PUSH1 0x0 DUP2 MLOAD SWAP1 POP PUSH3 0xB93 DUP2 PUSH3 0xB68 JUMP JUMPDEST SWAP3 SWAP2 POP POP JUMP JUMPDEST PUSH1 0x0 DUP1 PUSH1 0x0 DUP1 PUSH1 0x0 PUSH1 0xA0 DUP7 DUP9 SUB SLT ISZERO PUSH3 0xBB8 JUMPI PUSH3 0xBB7 PUSH3 0x664 JUMP JUMPDEST JUMPDEST PUSH1 0x0 PUSH3 0xBC8 DUP9 DUP3 DUP10 ADD PUSH3 0xB47 JUMP JUMPDEST SWAP6 POP POP PUSH1 0x20 PUSH3 0xBDB DUP9 DUP3 DUP10 ADD PUSH3 0xB82 JUMP JUMPDEST SWAP5 POP POP PUSH1 0x40 PUSH3 0xBEE DUP9 DUP3 DUP10 ADD PUSH3 0x68D JUMP JUMPDEST SWAP4 POP POP PUSH1 0x60 PUSH3 0xC01 DUP9 DUP3 DUP10 ADD PUSH3 0x68D JUMP JUMPDEST SWAP3 POP POP PUSH1 0x80 PUSH3 0xC14 DUP9 DUP3 DUP10 ADD PUSH3 0xB47 JUMP JUMPDEST SWAP2 POP POP SWAP3 SWAP6 POP SWAP3 SWAP6 SWAP1 SWAP4 POP JUMP JUMPDEST PUSH1 0x80 MLOAD PUSH1 0xA0 MLOAD PUSH2 0x4D3C PUSH3 0xC4B PUSH1 0x0 CODECOPY PUSH1 0x0 POP POP PUSH1 0x0 DUP2 DUP2 PUSH2 0x8F3 ADD MSTORE PUSH2 0x947 ADD MSTORE PUSH2 0x4D3C PUSH1 0x0 RETURN INVALID PUSH1 0x80 PUSH1 0x40 MSTORE CALLVALUE DUP1 ISZERO PUSH2 0x10 JUMPI PUSH1 0x0 DUP1 REVERT JUMPDEST POP PUSH1 0x4 CALLDATASIZE LT PUSH2 0x21B JUMPI PUSH1 0x0 CALLDATALOAD PUSH1 0xE0 SHR DUP1 PUSH4 0x715018A6 GT PUSH2 0x125 JUMPI DUP1 PUSH4 0xA4EB718C GT PUSH2 0xAD JUMPI DUP1 PUSH4 0xE985E9C5 GT PUSH2 0x7C JUMPI DUP1 PUSH4 0xE985E9C5 EQ PUSH2 0x627 JUMPI DUP1 PUSH4 0xEA7B4F77 EQ PUSH2 0x657 JUMPI DUP1 PUSH4 0xF0E8B3AE EQ PUSH2 0x673 JUMPI DUP1 PUSH4 0xF2FDE38B EQ PUSH2 0x691 JUMPI DUP1 PUSH4 0xF6EAFFC8 EQ PUSH2 0x6AD JUMPI PUSH2 0x21B JUMP JUMPDEST DUP1 PUSH4 0xA4EB718C EQ PUSH2 0x5A1 JUMPI DUP1 PUSH4 0xB88D4FDE EQ PUSH2 0x5BD JUMPI DUP1 PUSH4 0xC87B56DD EQ PUSH2 0x5D9 JUMPI DUP1 PUSH4 0xE0C86289 EQ PUSH2 0x609 JUMPI PUSH2 0x21B JUMP JUMPDEST DUP1 PUSH4 0x8E15F473 GT PUSH2 0xF4 JUMPI DUP1 PUSH4 0x8E15F473 EQ PUSH2 0x50D JUMPI DUP1 PUSH4 0x947A36FB EQ PUSH2 0x52B JUMPI DUP1 PUSH4 0x95D89B41 EQ PUSH2 0x549 JUMPI DUP1 PUSH4 0x9D1B464A EQ PUSH2 0x567 JUMPI DUP1 PUSH4 0xA22CB465 EQ PUSH2 0x585 JUMPI PUSH2 0x21B JUMP JUMPDEST DUP1 PUSH4 0x715018A6 EQ PUSH2 0x4AD JUMPI DUP1 PUSH4 0x724E78DA EQ PUSH2 0x4B7 JUMPI DUP1 PUSH4 0x8C424F09 EQ PUSH2 0x4D3 JUMPI DUP1 PUSH4 0x8DA5CB5B EQ PUSH2 0x4EF JUMPI PUSH2 0x21B JUMP JUMPDEST DUP1 PUSH4 0x2F745C59 GT PUSH2 0x1A8 JUMPI DUP1 PUSH4 0x4F6CCCE7 GT PUSH2 0x177 JUMPI DUP1 PUSH4 0x4F6CCCE7 EQ PUSH2 0x3CE JUMPI DUP1 PUSH4 0x590F2113 EQ PUSH2 0x3FE JUMPI DUP1 PUSH4 0x6352211E EQ PUSH2 0x41C JUMPI DUP1 PUSH4 0x6E04FF0D EQ PUSH2 0x44C JUMPI DUP1 PUSH4 0x70A08231 EQ PUSH2 0x47D JUMPI PUSH2 0x21B JUMP JUMPDEST DUP1 PUSH4 0x2F745C59 EQ PUSH2 0x34A JUMPI DUP1 PUSH4 0x40D097C3 EQ PUSH2 0x37A JUMPI DUP1 PUSH4 0x42842E0E EQ PUSH2 0x396 JUMPI DUP1 PUSH4 0x4585E33B EQ PUSH2 0x3B2 JUMPI PUSH2 0x21B JUMP JUMPDEST DUP1 PUSH4 0x95EA7B3 GT PUSH2 0x1EF JUMPI DUP1 PUSH4 0x95EA7B3 EQ PUSH2 0x2BC JUMPI DUP1 PUSH4 0x18160DDD EQ PUSH2 0x2D8 JUMPI DUP1 PUSH4 0x1FE543E3 EQ PUSH2 0x2F6 JUMPI DUP1 PUSH4 0x22A90082 EQ PUSH2 0x312 JUMPI DUP1 PUSH4 0x23B872DD EQ PUSH2 0x32E JUMPI PUSH2 0x21B JUMP JUMPDEST DUP1 PUSH3 0x6D6CAE EQ PUSH2 0x220 JUMPI DUP1 PUSH4 0x1FFC9A7 EQ PUSH2 0x23E JUMPI DUP1 PUSH4 0x6FDDE03 EQ PUSH2 0x26E JUMPI DUP1 PUSH4 0x81812FC EQ PUSH2 0x28C JUMPI JUMPDEST PUSH1 0x0 DUP1 REVERT JUMPDEST PUSH2 0x228 PUSH2 0x6DD JUMP JUMPDEST PUSH1 0x40 MLOAD PUSH2 0x235 SWAP2 SWAP1 PUSH2 0x3129 JUMP JUMPDEST PUSH1 0x40 MLOAD DUP1 SWAP2 SUB SWAP1 RETURN JUMPDEST PUSH2 0x258 PUSH1 0x4 DUP1 CALLDATASIZE SUB DUP2 ADD SWAP1 PUSH2 0x253 SWAP2 SWAP1 PUSH2 0x31B0 JUMP JUMPDEST PUSH2 0x6E3 JUMP JUMPDEST PUSH1 0x40 MLOAD PUSH2 0x265 SWAP2 SWAP1 PUSH2 0x31F8 JUMP JUMPDEST PUSH1 0x40 MLOAD DUP1 SWAP2 SUB SWAP1 RETURN JUMPDEST PUSH2 0x276 PUSH2 0x6F5 JUMP JUMPDEST PUSH1 0x40 MLOAD PUSH2 0x283 SWAP2 SWAP1 PUSH2 0x32A3 JUMP JUMPDEST PUSH1 0x40 MLOAD DUP1 SWAP2 SUB SWAP1 RETURN JUMPDEST PUSH2 0x2A6 PUSH1 0x4 DUP1 CALLDATASIZE SUB DUP2 ADD SWAP1 PUSH2 0x2A1 SWAP2 SWAP1 PUSH2 0x32F1 JUMP JUMPDEST PUSH2 0x787 JUMP JUMPDEST PUSH1 0x40 MLOAD PUSH2 0x2B3 SWAP2 SWAP1 PUSH2 0x335F JUMP JUMPDEST PUSH1 0x40 MLOAD DUP1 SWAP2 SUB SWAP1 RETURN JUMPDEST PUSH2 0x2D6 PUSH1 0x4 DUP1 CALLDATASIZE SUB DUP2 ADD SWAP1 PUSH2 0x2D1 SWAP2 SWAP1 PUSH2 0x33A6 JUMP JUMPDEST PUSH2 0x7CD JUMP JUMPDEST STOP JUMPDEST PUSH2 0x2E0 PUSH2 0x8E4 JUMP JUMPDEST PUSH1 0x40 MLOAD PUSH2 0x2ED SWAP2 SWAP1 PUSH2 0x3129 JUMP JUMPDEST PUSH1 0x40 MLOAD DUP1 SWAP2 SUB SWAP1 RETURN JUMPDEST PUSH2 0x310 PUSH1 0x4 DUP1 CALLDATASIZE SUB DUP2 ADD SWAP1 PUSH2 0x30B SWAP2 SWAP1 PUSH2 0x352E JUMP JUMPDEST PUSH2 0x8F1 JUMP JUMPDEST STOP JUMPDEST PUSH2 0x32C PUSH1 0x4 DUP1 CALLDATASIZE SUB DUP2 ADD SWAP1 PUSH2 0x327 SWAP2 SWAP1 PUSH2 0x32F1 JUMP JUMPDEST PUSH2 0x9B1 JUMP JUMPDEST STOP JUMPDEST PUSH2 0x348 PUSH1 0x4 DUP1 CALLDATASIZE SUB DUP2 ADD SWAP1 PUSH2 0x343 SWAP2 SWAP1 PUSH2 0x358A JUMP JUMPDEST PUSH2 0x9C3 JUMP JUMPDEST STOP JUMPDEST PUSH2 0x364 PUSH1 0x4 DUP1 CALLDATASIZE SUB DUP2 ADD SWAP1 PUSH2 0x35F SWAP2 SWAP1 PUSH2 0x33A6 JUMP JUMPDEST PUSH2 0xA23 JUMP JUMPDEST PUSH1 0x40 MLOAD PUSH2 0x371 SWAP2 SWAP1 PUSH2 0x3129 JUMP JUMPDEST PUSH1 0x40 MLOAD DUP1 SWAP2 SUB SWAP1 RETURN JUMPDEST PUSH2 0x394 PUSH1 0x4 DUP1 CALLDATASIZE SUB DUP2 ADD SWAP1 PUSH2 0x38F SWAP2 SWAP1 PUSH2 0x35DD JUMP JUMPDEST PUSH2 0xAC8 JUMP JUMPDEST STOP JUMPDEST PUSH2 0x3B0 PUSH1 0x4 DUP1 CALLDATASIZE SUB DUP2 ADD SWAP1 PUSH2 0x3AB SWAP2 SWAP1 PUSH2 0x358A JUMP JUMPDEST PUSH2 0xC1B JUMP JUMPDEST STOP JUMPDEST PUSH2 0x3CC PUSH1 0x4 DUP1 CALLDATASIZE SUB DUP2 ADD SWAP1 PUSH2 0x3C7 SWAP2 SWAP1 PUSH2 0x3665 JUMP JUMPDEST PUSH2 0xC3B JUMP JUMPDEST STOP JUMPDEST PUSH2 0x3E8 PUSH1 0x4 DUP1 CALLDATASIZE SUB DUP2 ADD SWAP1 PUSH2 0x3E3 SWAP2 SWAP1 PUSH2 0x32F1 JUMP JUMPDEST PUSH2 0xD28 JUMP JUMPDEST PUSH1 0x40 MLOAD PUSH2 0x3F5 SWAP2 SWAP1 PUSH2 0x3129 JUMP JUMPDEST PUSH1 0x40 MLOAD DUP1 SWAP2 SUB SWAP1 RETURN JUMPDEST PUSH2 0x406 PUSH2 0xD99 JUMP JUMPDEST PUSH1 0x40 MLOAD PUSH2 0x413 SWAP2 SWAP1 PUSH2 0x3711 JUMP JUMPDEST PUSH1 0x40 MLOAD DUP1 SWAP2 SUB SWAP1 RETURN JUMPDEST PUSH2 0x436 PUSH1 0x4 DUP1 CALLDATASIZE SUB DUP2 ADD SWAP1 PUSH2 0x431 SWAP2 SWAP1 PUSH2 0x32F1 JUMP JUMPDEST PUSH2 0xDBF JUMP JUMPDEST PUSH1 0x40 MLOAD PUSH2 0x443 SWAP2 SWAP1 PUSH2 0x335F JUMP JUMPDEST PUSH1 0x40 MLOAD DUP1 SWAP2 SUB SWAP1 RETURN JUMPDEST PUSH2 0x466 PUSH1 0x4 DUP1 CALLDATASIZE SUB DUP2 ADD SWAP1 PUSH2 0x461 SWAP2 SWAP1 PUSH2 0x3665 JUMP JUMPDEST PUSH2 0xE70 JUMP JUMPDEST PUSH1 0x40 MLOAD PUSH2 0x474 SWAP3 SWAP2 SWAP1 PUSH2 0x3781 JUMP JUMPDEST PUSH1 0x40 MLOAD DUP1 SWAP2 SUB SWAP1 RETURN JUMPDEST PUSH2 0x497 PUSH1 0x4 DUP1 CALLDATASIZE SUB DUP2 ADD SWAP1 PUSH2 0x492 SWAP2 SWAP1 PUSH2 0x35DD JUMP JUMPDEST PUSH2 0xF10 JUMP JUMPDEST PUSH1 0x40 MLOAD PUSH2 0x4A4 SWAP2 SWAP1 PUSH2 0x3129 JUMP JUMPDEST PUSH1 0x40 MLOAD DUP1 SWAP2 SUB SWAP1 RETURN JUMPDEST PUSH2 0x4B5 PUSH2 0xFC7 JUMP JUMPDEST STOP JUMPDEST PUSH2 0x4D1 PUSH1 0x4 DUP1 CALLDATASIZE SUB DUP2 ADD SWAP1 PUSH2 0x4CC SWAP2 SWAP1 PUSH2 0x35DD JUMP JUMPDEST PUSH2 0xFDB JUMP JUMPDEST STOP JUMPDEST PUSH2 0x4ED PUSH1 0x4 DUP1 CALLDATASIZE SUB DUP2 ADD SWAP1 PUSH2 0x4E8 SWAP2 SWAP1 PUSH2 0x35DD JUMP JUMPDEST PUSH2 0x1027 JUMP JUMPDEST STOP JUMPDEST PUSH2 0x4F7 PUSH2 0x1073 JUMP JUMPDEST PUSH1 0x40 MLOAD PUSH2 0x504 SWAP2 SWAP1 PUSH2 0x335F JUMP JUMPDEST PUSH1 0x40 MLOAD DUP1 SWAP2 SUB SWAP1 RETURN JUMPDEST PUSH2 0x515 PUSH2 0x109D JUMP JUMPDEST PUSH1 0x40 MLOAD PUSH2 0x522 SWAP2 SWAP1 PUSH2 0x37CA JUMP JUMPDEST PUSH1 0x40 MLOAD DUP1 SWAP2 SUB SWAP1 RETURN JUMPDEST PUSH2 0x533 PUSH2 0x113E JUMP JUMPDEST PUSH1 0x40 MLOAD PUSH2 0x540 SWAP2 SWAP1 PUSH2 0x3129 JUMP JUMPDEST PUSH1 0x40 MLOAD DUP1 SWAP2 SUB SWAP1 RETURN JUMPDEST PUSH2 0x551 PUSH2 0x1144 JUMP JUMPDEST PUSH1 0x40 MLOAD PUSH2 0x55E SWAP2 SWAP1 PUSH2 0x32A3 JUMP JUMPDEST PUSH1 0x40 MLOAD DUP1 SWAP2 SUB SWAP1 RETURN JUMPDEST PUSH2 0x56F PUSH2 0x11D6 JUMP JUMPDEST PUSH1 0x40 MLOAD PUSH2 0x57C SWAP2 SWAP1 PUSH2 0x37CA JUMP JUMPDEST PUSH1 0x40 MLOAD DUP1 SWAP2 SUB SWAP1 RETURN JUMPDEST PUSH2 0x59F PUSH1 0x4 DUP1 CALLDATASIZE SUB DUP2 ADD SWAP1 PUSH2 0x59A SWAP2 SWAP1 PUSH2 0x3811 JUMP JUMPDEST PUSH2 0x11DC JUMP JUMPDEST STOP JUMPDEST PUSH2 0x5BB PUSH1 0x4 DUP1 CALLDATASIZE SUB DUP2 ADD SWAP1 PUSH2 0x5B6 SWAP2 SWAP1 PUSH2 0x388D JUMP JUMPDEST PUSH2 0x11F2 JUMP JUMPDEST STOP JUMPDEST PUSH2 0x5D7 PUSH1 0x4 DUP1 CALLDATASIZE SUB DUP2 ADD SWAP1 PUSH2 0x5D2 SWAP2 SWAP1 PUSH2 0x396F JUMP JUMPDEST PUSH2 0x121E JUMP JUMPDEST STOP JUMPDEST PUSH2 0x5F3 PUSH1 0x4 DUP1 CALLDATASIZE SUB DUP2 ADD SWAP1 PUSH2 0x5EE SWAP2 SWAP1 PUSH2 0x32F1 JUMP JUMPDEST PUSH2 0x1280 JUMP JUMPDEST PUSH1 0x40 MLOAD PUSH2 0x600 SWAP2 SWAP1 PUSH2 0x32A3 JUMP JUMPDEST PUSH1 0x40 MLOAD DUP1 SWAP2 SUB SWAP1 RETURN JUMPDEST PUSH2 0x611 PUSH2 0x1292 JUMP JUMPDEST PUSH1 0x40 MLOAD PUSH2 0x61E SWAP2 SWAP1 PUSH2 0x3129 JUMP JUMPDEST PUSH1 0x40 MLOAD DUP1 SWAP2 SUB SWAP1 RETURN JUMPDEST PUSH2 0x641 PUSH1 0x4 DUP1 CALLDATASIZE SUB DUP2 ADD SWAP1 PUSH2 0x63C SWAP2 SWAP1 PUSH2 0x39F2 JUMP JUMPDEST PUSH2 0x13DE JUMP JUMPDEST PUSH1 0x40 MLOAD PUSH2 0x64E SWAP2 SWAP1 PUSH2 0x31F8 JUMP JUMPDEST PUSH1 0x40 MLOAD DUP1 SWAP2 SUB SWAP1 RETURN JUMPDEST PUSH2 0x671 PUSH1 0x4 DUP1 CALLDATASIZE SUB DUP2 ADD SWAP1 PUSH2 0x66C SWAP2 SWAP1 PUSH2 0x3A72 JUMP JUMPDEST PUSH2 0x1472 JUMP JUMPDEST STOP JUMPDEST PUSH2 0x67B PUSH2 0x14A6 JUMP JUMPDEST PUSH1 0x40 MLOAD PUSH2 0x688 SWAP2 SWAP1 PUSH2 0x3B16 JUMP JUMPDEST PUSH1 0x40 MLOAD DUP1 SWAP2 SUB SWAP1 RETURN JUMPDEST PUSH2 0x6AB PUSH1 0x4 DUP1 CALLDATASIZE SUB DUP2 ADD SWAP1 PUSH2 0x6A6 SWAP2 SWAP1 PUSH2 0x35DD JUMP JUMPDEST PUSH2 0x14B9 JUMP JUMPDEST STOP JUMPDEST PUSH2 0x6C7 PUSH1 0x4 DUP1 CALLDATASIZE SUB DUP2 ADD SWAP1 PUSH2 0x6C2 SWAP2 SWAP1 PUSH2 0x32F1 JUMP JUMPDEST PUSH2 0x153C JUMP JUMPDEST PUSH1 0x40 MLOAD PUSH2 0x6D4 SWAP2 SWAP1 PUSH2 0x3129 JUMP JUMPDEST PUSH1 0x40 MLOAD DUP1 SWAP2 SUB SWAP1 RETURN JUMPDEST PUSH1 0x11 SLOAD DUP2 JUMP JUMPDEST PUSH1 0x0 PUSH2 0x6EE DUP3 PUSH2 0x1560 JUMP JUMPDEST SWAP1 POP SWAP2 SWAP1 POP JUMP JUMPDEST PUSH1 0x60 PUSH1 0x0 DUP1 SLOAD PUSH2 0x704 SWAP1 PUSH2 0x3B60 JUMP JUMPDEST DUP1 PUSH1 0x1F ADD PUSH1 0x20 DUP1 SWAP2 DIV MUL PUSH1 0x20 ADD PUSH1 0x40 MLOAD SWAP1 DUP2 ADD PUSH1 0x40 MSTORE DUP1 SWAP3 SWAP2 SWAP1 DUP2 DUP2 MSTORE PUSH1 0x20 ADD DUP3 DUP1 SLOAD PUSH2 0x730 SWAP1 PUSH2 0x3B60 JUMP JUMPDEST DUP1 ISZERO PUSH2 0x77D JUMPI DUP1 PUSH1 0x1F LT PUSH2 0x752 JUMPI PUSH2 0x100 DUP1 DUP4 SLOAD DIV MUL DUP4 MSTORE SWAP2 PUSH1 0x20 ADD SWAP2 PUSH2 0x77D JUMP JUMPDEST DUP3 ADD SWAP2 SWAP1 PUSH1 0x0 MSTORE PUSH1 0x20 PUSH1 0x0 KECCAK256 SWAP1 JUMPDEST DUP2 SLOAD DUP2 MSTORE SWAP1 PUSH1 0x1 ADD SWAP1 PUSH1 0x20 ADD DUP1 DUP4 GT PUSH2 0x760 JUMPI DUP3 SWAP1 SUB PUSH1 0x1F AND DUP3 ADD SWAP2 JUMPDEST POP POP POP POP POP SWAP1 POP SWAP1 JUMP JUMPDEST PUSH1 0x0 PUSH2 0x792 DUP3 PUSH2 0x15DA JUMP JUMPDEST PUSH1 0x4 PUSH1 0x0 DUP4 DUP2 MSTORE PUSH1 0x20 ADD SWAP1 DUP2 MSTORE PUSH1 0x20 ADD PUSH1 0x0 KECCAK256 PUSH1 0x0 SWAP1 SLOAD SWAP1 PUSH2 0x100 EXP SWAP1 DIV PUSH20 0xFFFFFFFFFFFFFFFFFFFFFFFFFFFFFFFFFFFFFFFF AND SWAP1 POP SWAP2 SWAP1 POP JUMP JUMPDEST PUSH1 0x0 PUSH2 0x7D8 DUP3 PUSH2 0xDBF JUMP JUMPDEST SWAP1 POP DUP1 PUSH20 0xFFFFFFFFFFFFFFFFFFFFFFFFFFFFFFFFFFFFFFFF AND DUP4 PUSH20 0xFFFFFFFFFFFFFFFFFFFFFFFFFFFFFFFFFFFFFFFF AND SUB PUSH2 0x848 JUMPI PUSH1 0x40 MLOAD PUSH32 0x8C379A000000000000000000000000000000000000000000000000000000000 DUP2 MSTORE PUSH1 0x4 ADD PUSH2 0x83F SWAP1 PUSH2 0x3C03 JUMP JUMPDEST PUSH1 0x40 MLOAD DUP1 SWAP2 SUB SWAP1 REVERT JUMPDEST DUP1 PUSH20 0xFFFFFFFFFFFFFFFFFFFFFFFFFFFFFFFFFFFFFFFF AND PUSH2 0x867 PUSH2 0x1625 JUMP JUMPDEST PUSH20 0xFFFFFFFFFFFFFFFFFFFFFFFFFFFFFFFFFFFFFFFF AND EQ DUP1 PUSH2 0x896 JUMPI POP PUSH2 0x895 DUP2 PUSH2 0x890 PUSH2 0x1625 JUMP JUMPDEST PUSH2 0x13DE JUMP JUMPDEST JUMPDEST PUSH2 0x8D5 JUMPI PUSH1 0x40 MLOAD PUSH32 0x8C379A000000000000000000000000000000000000000000000000000000000 DUP2 MSTORE PUSH1 0x4 ADD PUSH2 0x8CC SWAP1 PUSH2 0x3C95 JUMP JUMPDEST PUSH1 0x40 MLOAD DUP1 SWAP2 SUB SWAP1 REVERT JUMPDEST PUSH2 0x8DF DUP4 DUP4 PUSH2 0x162D JUMP JUMPDEST POP POP POP JUMP JUMPDEST PUSH1 0x0 PUSH1 0x8 DUP1 SLOAD SWAP1 POP SWAP1 POP SWAP1 JUMP JUMPDEST PUSH32 0x0 PUSH20 0xFFFFFFFFFFFFFFFFFFFFFFFFFFFFFFFFFFFFFFFF AND CALLER PUSH20 0xFFFFFFFFFFFFFFFFFFFFFFFFFFFFFFFFFFFFFFFF AND EQ PUSH2 0x9A3 JUMPI CALLER PUSH32 0x0 PUSH1 0x40 MLOAD PUSH32 0x1CF993F400000000000000000000000000000000000000000000000000000000 DUP2 MSTORE PUSH1 0x4 ADD PUSH2 0x99A SWAP3 SWAP2 SWAP1 PUSH2 0x3CB5 JUMP JUMPDEST PUSH1 0x40 MLOAD DUP1 SWAP2 SUB SWAP1 REVERT JUMPDEST PUSH2 0x9AD DUP3 DUP3 PUSH2 0x16E6 JUMP JUMPDEST POP POP JUMP JUMPDEST PUSH2 0x9B9 PUSH2 0x19B9 JUMP JUMPDEST DUP1 PUSH1 0xF DUP2 SWAP1 SSTORE POP POP JUMP JUMPDEST PUSH2 0x9D4 PUSH2 0x9CE PUSH2 0x1625 JUMP JUMPDEST DUP3 PUSH2 0x1A37 JUMP JUMPDEST PUSH2 0xA13 JUMPI PUSH1 0x40 MLOAD PUSH32 0x8C379A000000000000000000000000000000000000000000000000000000000 DUP2 MSTORE PUSH1 0x4 ADD PUSH2 0xA0A SWAP1 PUSH2 0x3D50 JUMP JUMPDEST PUSH1 0x40 MLOAD DUP1 SWAP2 SUB SWAP1 REVERT JUMPDEST PUSH2 0xA1E DUP4 DUP4 DUP4 PUSH2 0x1ACC JUMP JUMPDEST POP POP POP JUMP JUMPDEST PUSH1 0x0 PUSH2 0xA2E DUP4 PUSH2 0xF10 JUMP JUMPDEST DUP3 LT PUSH2 0xA6F JUMPI PUSH1 0x40 MLOAD PUSH32 0x8C379A000000000000000000000000000000000000000000000000000000000 DUP2 MSTORE PUSH1 0x4 ADD PUSH2 0xA66 SWAP1 PUSH2 0x3DE2 JUMP JUMPDEST PUSH1 0x40 MLOAD DUP1 SWAP2 SUB SWAP1 REVERT JUMPDEST PUSH1 0x6 PUSH1 0x0 DUP5 PUSH20 0xFFFFFFFFFFFFFFFFFFFFFFFFFFFFFFFFFFFFFFFF AND PUSH20 0xFFFFFFFFFFFFFFFFFFFFFFFFFFFFFFFFFFFFFFFF AND DUP2 MSTORE PUSH1 0x20 ADD SWAP1 DUP2 MSTORE PUSH1 0x20 ADD PUSH1 0x0 KECCAK256 PUSH1 0x0 DUP4 DUP2 MSTORE PUSH1 0x20 ADD SWAP1 DUP2 MSTORE PUSH1 0x20 ADD PUSH1 0x0 KECCAK256 SLOAD SWAP1 POP SWAP3 SWAP2 POP POP JUMP JUMPDEST PUSH1 0x0 PUSH2 0xAD4 PUSH1 0xD PUSH2 0x1D32 JUMP JUMPDEST SWAP1 POP PUSH2 0xAE0 PUSH1 0xD PUSH2 0x1D40 JUMP JUMPDEST PUSH2 0xAEA DUP3 DUP3 PUSH2 0x1D56 JUMP JUMPDEST PUSH1 0x0 PUSH1 0x16 PUSH1 0x0 DUP2 SLOAD DUP2 LT PUSH2 0xB01 JUMPI PUSH2 0xB00 PUSH2 0x3E02 JUMP JUMPDEST JUMPDEST SWAP1 PUSH1 0x0 MSTORE PUSH1 0x20 PUSH1 0x0 KECCAK256 ADD DUP1 SLOAD PUSH2 0xB16 SWAP1 PUSH2 0x3B60 JUMP JUMPDEST DUP1 PUSH1 0x1F ADD PUSH1 0x20 DUP1 SWAP2 DIV MUL PUSH1 0x20 ADD PUSH1 0x40 MLOAD SWAP1 DUP2 ADD PUSH1 0x40 MSTORE DUP1 SWAP3 SWAP2 SWAP1 DUP2 DUP2 MSTORE PUSH1 0x20 ADD DUP3 DUP1 SLOAD PUSH2 0xB42 SWAP1 PUSH2 0x3B60 JUMP JUMPDEST DUP1 ISZERO PUSH2 0xB8F JUMPI DUP1 PUSH1 0x1F LT PUSH2 0xB64 JUMPI PUSH2 0x100 DUP1 DUP4 SLOAD DIV MUL DUP4 MSTORE SWAP2 PUSH1 0x20 ADD SWAP2 PUSH2 0xB8F JUMP JUMPDEST DUP3 ADD SWAP2 SWAP1 PUSH1 0x0 MSTORE PUSH1 0x20 PUSH1 0x0 KECCAK256 SWAP1 JUMPDEST DUP2 SLOAD DUP2 MSTORE SWAP1 PUSH1 0x1 ADD SWAP1 PUSH1 0x20 ADD DUP1 DUP4 GT PUSH2 0xB72 JUMPI DUP3 SWAP1 SUB PUSH1 0x1F AND DUP3 ADD SWAP2 JUMPDEST POP POP POP POP POP SWAP1 POP PUSH2 0xBA0 DUP3 DUP3 PUSH2 0x1D74 JUMP JUMPDEST PUSH2 0xC16 PUSH1 0x40 MLOAD DUP1 PUSH1 0x40 ADD PUSH1 0x40 MSTORE DUP1 PUSH1 0x15 DUP2 MSTORE PUSH1 0x20 ADD PUSH32 0x444F4E45212121206D696E74656420746F6B656E200000000000000000000000 DUP2 MSTORE POP DUP4 PUSH1 0x40 MLOAD DUP1 PUSH1 0x40 ADD PUSH1 0x40 MSTORE DUP1 PUSH1 0x19 DUP2 MSTORE PUSH1 0x20 ADD PUSH32 0x20616E642061737369676E656420746F6B656E2075726C3A2000000000000000 DUP2 MSTORE POP DUP5 PUSH2 0x1DE1 JUMP JUMPDEST POP POP POP JUMP JUMPDEST PUSH2 0xC36 DUP4 DUP4 DUP4 PUSH1 0x40 MLOAD DUP1 PUSH1 0x20 ADD PUSH1 0x40 MSTORE DUP1 PUSH1 0x0 DUP2 MSTORE POP PUSH2 0x121E JUMP JUMPDEST POP POP POP JUMP JUMPDEST PUSH1 0xF SLOAD PUSH1 0xE SLOAD TIMESTAMP PUSH2 0xC4C SWAP2 SWAP1 PUSH2 0x3E60 JUMP JUMPDEST GT ISZERO PUSH2 0xCE0 JUMPI TIMESTAMP PUSH1 0xE DUP2 SWAP1 SSTORE POP PUSH1 0x0 PUSH2 0xC63 PUSH2 0x109D JUMP JUMPDEST SWAP1 POP PUSH1 0x10 SLOAD DUP2 SLT ISZERO PUSH2 0xC9F JUMPI PUSH1 0x1 PUSH1 0x15 PUSH1 0xA PUSH2 0x100 EXP DUP2 SLOAD DUP2 PUSH1 0xFF MUL NOT AND SWAP1 DUP4 PUSH1 0x1 DUP2 GT ISZERO PUSH2 0xC95 JUMPI PUSH2 0xC94 PUSH2 0x3A9F JUMP JUMPDEST JUMPDEST MUL OR SWAP1 SSTORE POP PUSH2 0xCCB JUMP JUMPDEST PUSH1 0x0 PUSH1 0x15 PUSH1 0xA PUSH2 0x100 EXP DUP2 SLOAD DUP2 PUSH1 0xFF MUL NOT AND SWAP1 DUP4 PUSH1 0x1 DUP2 GT ISZERO PUSH2 0xCC5 JUMPI PUSH2 0xCC4 PUSH2 0x3A9F JUMP JUMPDEST JUMPDEST MUL OR SWAP1 SSTORE POP JUMPDEST PUSH2 0xCD3 PUSH2 0x1E83 JUMP JUMPDEST DUP1 PUSH1 0x10 DUP2 SWAP1 SSTORE POP POP PUSH2 0xD23 JUMP JUMPDEST PUSH2 0xD1E PUSH1 0x40 MLOAD DUP1 PUSH1 0x40 ADD PUSH1 0x40 MSTORE DUP1 PUSH1 0x11 DUP2 MSTORE PUSH1 0x20 ADD PUSH32 0x20494E54455256414C204E4F5420555021000000000000000000000000000000 DUP2 MSTORE POP PUSH2 0x2001 JUMP JUMPDEST PUSH2 0xD24 JUMP JUMPDEST JUMPDEST POP POP JUMP JUMPDEST PUSH1 0x0 PUSH2 0xD32 PUSH2 0x8E4 JUMP JUMPDEST DUP3 LT PUSH2 0xD73 JUMPI PUSH1 0x40 MLOAD PUSH32 0x8C379A000000000000000000000000000000000000000000000000000000000 DUP2 MSTORE PUSH1 0x4 ADD PUSH2 0xD6A SWAP1 PUSH2 0x3F06 JUMP JUMPDEST PUSH1 0x40 MLOAD DUP1 SWAP2 SUB SWAP1 REVERT JUMPDEST PUSH1 0x8 DUP3 DUP2 SLOAD DUP2 LT PUSH2 0xD87 JUMPI PUSH2 0xD86 PUSH2 0x3E02 JUMP JUMPDEST JUMPDEST SWAP1 PUSH1 0x0 MSTORE PUSH1 0x20 PUSH1 0x0 KECCAK256 ADD SLOAD SWAP1 POP SWAP2 SWAP1 POP JUMP JUMPDEST PUSH1 0xC PUSH1 0x0 SWAP1 SLOAD SWAP1 PUSH2 0x100 EXP SWAP1 DIV PUSH20 0xFFFFFFFFFFFFFFFFFFFFFFFFFFFFFFFFFFFFFFFF AND DUP2 JUMP JUMPDEST PUSH1 0x0 DUP1 PUSH1 0x2 PUSH1 0x0 DUP5 DUP2 MSTORE PUSH1 0x20 ADD SWAP1 DUP2 MSTORE PUSH1 0x20 ADD PUSH1 0x0 KECCAK256 PUSH1 0x0 SWAP1 SLOAD SWAP1 PUSH2 0x100 EXP SWAP1 DIV PUSH20 0xFFFFFFFFFFFFFFFFFFFFFFFFFFFFFFFFFFFFFFFF AND SWAP1 POP PUSH1 0x0 PUSH20 0xFFFFFFFFFFFFFFFFFFFFFFFFFFFFFFFFFFFFFFFF AND DUP2 PUSH20 0xFFFFFFFFFFFFFFFFFFFFFFFFFFFFFFFFFFFFFFFF AND SUB PUSH2 0xE67 JUMPI PUSH1 0x40 MLOAD PUSH32 0x8C379A000000000000000000000000000000000000000000000000000000000 DUP2 MSTORE PUSH1 0x4 ADD PUSH2 0xE5E SWAP1 PUSH2 0x3F72 JUMP JUMPDEST PUSH1 0x40 MLOAD DUP1 SWAP2 SUB SWAP1 REVERT JUMPDEST DUP1 SWAP2 POP POP SWAP2 SWAP1 POP JUMP JUMPDEST PUSH1 0x0 PUSH1 0x60 PUSH1 0xE SLOAD PUSH1 0xF SLOAD PUSH2 0xE84 SWAP2 SWAP1 PUSH2 0x3F92 JUMP JUMPDEST TIMESTAMP GT ISZERO PUSH2 0xECC JUMPI PUSH1 0x1 PUSH1 0x40 MLOAD DUP1 PUSH1 0x40 ADD PUSH1 0x40 MSTORE DUP1 PUSH1 0x1 DUP2 MSTORE PUSH1 0x20 ADD PUSH32 0x2000000000000000000000000000000000000000000000000000000000000000 DUP2 MSTORE POP SWAP2 POP SWAP2 POP PUSH2 0xF09 JUMP JUMPDEST PUSH1 0x0 PUSH1 0x40 MLOAD DUP1 PUSH1 0x40 ADD PUSH1 0x40 MSTORE DUP1 PUSH1 0x1 DUP2 MSTORE PUSH1 0x20 ADD PUSH32 0x2000000000000000000000000000000000000000000000000000000000000000 DUP2 MSTORE POP SWAP2 POP SWAP2 POP JUMPDEST SWAP3 POP SWAP3 SWAP1 POP JUMP JUMPDEST PUSH1 0x0 DUP1 PUSH20 0xFFFFFFFFFFFFFFFFFFFFFFFFFFFFFFFFFFFFFFFF AND DUP3 PUSH20 0xFFFFFFFFFFFFFFFFFFFFFFFFFFFFFFFFFFFFFFFF AND SUB PUSH2 0xF80 JUMPI PUSH1 0x40 MLOAD PUSH32 0x8C379A000000000000000000000000000000000000000000000000000000000 DUP2 MSTORE PUSH1 0x4 ADD PUSH2 0xF77 SWAP1 PUSH2 0x4038 JUMP JUMPDEST PUSH1 0x40 MLOAD DUP1 SWAP2 SUB SWAP1 REVERT JUMPDEST PUSH1 0x3 PUSH1 0x0 DUP4 PUSH20 0xFFFFFFFFFFFFFFFFFFFFFFFFFFFFFFFFFFFFFFFF AND PUSH20 0xFFFFFFFFFFFFFFFFFFFFFFFFFFFFFFFFFFFFFFFF AND DUP2 MSTORE PUSH1 0x20 ADD SWAP1 DUP2 MSTORE PUSH1 0x20 ADD PUSH1 0x0 KECCAK256 SLOAD SWAP1 POP SWAP2 SWAP1 POP JUMP JUMPDEST PUSH2 0xFCF PUSH2 0x19B9 JUMP JUMPDEST PUSH2 0xFD9 PUSH1 0x0 PUSH2 0x209A JUMP JUMPDEST JUMP JUMPDEST PUSH2 0xFE3 PUSH2 0x19B9 JUMP JUMPDEST DUP1 PUSH1 0xC PUSH1 0x0 PUSH2 0x100 EXP DUP2 SLOAD DUP2 PUSH20 0xFFFFFFFFFFFFFFFFFFFFFFFFFFFFFFFFFFFFFFFF MUL NOT AND SWAP1 DUP4 PUSH20 0xFFFFFFFFFFFFFFFFFFFFFFFFFFFFFFFFFFFFFFFF AND MUL OR SWAP1 SSTORE POP POP JUMP JUMPDEST PUSH2 0x102F PUSH2 0x19B9 JUMP JUMPDEST DUP1 PUSH1 0x12 PUSH1 0x0 PUSH2 0x100 EXP DUP2 SLOAD DUP2 PUSH20 0xFFFFFFFFFFFFFFFFFFFFFFFFFFFFFFFFFFFFFFFF MUL NOT AND SWAP1 DUP4 PUSH20 0xFFFFFFFFFFFFFFFFFFFFFFFFFFFFFFFFFFFFFFFF AND MUL OR SWAP1 SSTORE POP POP JUMP JUMPDEST PUSH1 0x0 PUSH1 0xB PUSH1 0x0 SWAP1 SLOAD SWAP1 PUSH2 0x100 EXP SWAP1 DIV PUSH20 0xFFFFFFFFFFFFFFFFFFFFFFFFFFFFFFFFFFFFFFFF AND SWAP1 POP SWAP1 JUMP JUMPDEST PUSH1 0x0 DUP1 PUSH1 0xC PUSH1 0x0 SWAP1 SLOAD SWAP1 PUSH2 0x100 EXP SWAP1 DIV PUSH20 0xFFFFFFFFFFFFFFFFFFFFFFFFFFFFFFFFFFFFFFFF AND PUSH20 0xFFFFFFFFFFFFFFFFFFFFFFFFFFFFFFFFFFFFFFFF AND PUSH4 0xFEAF968C PUSH1 0x40 MLOAD DUP2 PUSH4 0xFFFFFFFF AND PUSH1 0xE0 SHL DUP2 MSTORE PUSH1 0x4 ADD PUSH1 0xA0 PUSH1 0x40 MLOAD DUP1 DUP4 SUB DUP2 DUP7 GAS STATICCALL ISZERO DUP1 ISZERO PUSH2 0x110D JUMPI RETURNDATASIZE PUSH1 0x0 DUP1 RETURNDATACOPY RETURNDATASIZE PUSH1 0x0 REVERT JUMPDEST POP POP POP POP PUSH1 0x40 MLOAD RETURNDATASIZE PUSH1 0x1F NOT PUSH1 0x1F DUP3 ADD AND DUP3 ADD DUP1 PUSH1 0x40 MSTORE POP DUP2 ADD SWAP1 PUSH2 0x1131 SWAP2 SWAP1 PUSH2 0x40DB JUMP JUMPDEST POP POP POP SWAP2 POP POP DUP1 SWAP2 POP POP SWAP1 JUMP JUMPDEST PUSH1 0xF SLOAD DUP2 JUMP JUMPDEST PUSH1 0x60 PUSH1 0x1 DUP1 SLOAD PUSH2 0x1153 SWAP1 PUSH2 0x3B60 JUMP JUMPDEST DUP1 PUSH1 0x1F ADD PUSH1 0x20 DUP1 SWAP2 DIV MUL PUSH1 0x20 ADD PUSH1 0x40 MLOAD SWAP1 DUP2 ADD PUSH1 0x40 MSTORE DUP1 SWAP3 SWAP2 SWAP1 DUP2 DUP2 MSTORE PUSH1 0x20 ADD DUP3 DUP1 SLOAD PUSH2 0x117F SWAP1 PUSH2 0x3B60 JUMP JUMPDEST DUP1 ISZERO PUSH2 0x11CC JUMPI DUP1 PUSH1 0x1F LT PUSH2 0x11A1 JUMPI PUSH2 0x100 DUP1 DUP4 SLOAD DIV MUL DUP4 MSTORE SWAP2 PUSH1 0x20 ADD SWAP2 PUSH2 0x11CC JUMP JUMPDEST DUP3 ADD SWAP2 SWAP1 PUSH1 0x0 MSTORE PUSH1 0x20 PUSH1 0x0 KECCAK256 SWAP1 JUMPDEST DUP2 SLOAD DUP2 MSTORE SWAP1 PUSH1 0x1 ADD SWAP1 PUSH1 0x20 ADD DUP1 DUP4 GT PUSH2 0x11AF JUMPI DUP3 SWAP1 SUB PUSH1 0x1F AND DUP3 ADD SWAP2 JUMPDEST POP POP POP POP POP SWAP1 POP SWAP1 JUMP JUMPDEST PUSH1 0x10 SLOAD DUP2 JUMP JUMPDEST PUSH2 0x11EE PUSH2 0x11E7 PUSH2 0x1625 JUMP JUMPDEST DUP4 DUP4 PUSH2 0x2160 JUMP JUMPDEST POP POP JUMP JUMPDEST PUSH2 0x11FA PUSH2 0x19B9 JUMP JUMPDEST DUP1 PUSH1 0x15 PUSH1 0x0 PUSH2 0x100 EXP DUP2 SLOAD DUP2 PUSH4 0xFFFFFFFF MUL NOT AND SWAP1 DUP4 PUSH4 0xFFFFFFFF AND MUL OR SWAP1 SSTORE POP POP JUMP JUMPDEST PUSH2 0x122F PUSH2 0x1229 PUSH2 0x1625 JUMP JUMPDEST DUP4 PUSH2 0x1A37 JUMP JUMPDEST PUSH2 0x126E JUMPI PUSH1 0x40 MLOAD PUSH32 0x8C379A000000000000000000000000000000000000000000000000000000000 DUP2 MSTORE PUSH1 0x4 ADD PUSH2 0x1265 SWAP1 PUSH2 0x3D50 JUMP JUMPDEST PUSH1 0x40 MLOAD DUP1 SWAP2 SUB SWAP1 REVERT JUMPDEST PUSH2 0x127A DUP5 DUP5 DUP5 DUP5 PUSH2 0x22CC JUMP JUMPDEST POP POP POP POP JUMP JUMPDEST PUSH1 0x60 PUSH2 0x128B DUP3 PUSH2 0x2328 JUMP JUMPDEST SWAP1 POP SWAP2 SWAP1 POP JUMP JUMPDEST PUSH1 0x0 PUSH2 0x129C PUSH2 0x19B9 JUMP JUMPDEST PUSH1 0x12 PUSH1 0x0 SWAP1 SLOAD SWAP1 PUSH2 0x100 EXP SWAP1 DIV PUSH20 0xFFFFFFFFFFFFFFFFFFFFFFFFFFFFFFFFFFFFFFFF AND PUSH20 0xFFFFFFFFFFFFFFFFFFFFFFFFFFFFFFFFFFFFFFFF AND PUSH4 0x5D3B1D30 PUSH1 0x14 SLOAD PUSH1 0x12 PUSH1 0x14 SWAP1 SLOAD SWAP1 PUSH2 0x100 EXP SWAP1 DIV PUSH8 0xFFFFFFFFFFFFFFFF AND PUSH1 0x15 PUSH1 0x4 SWAP1 SLOAD SWAP1 PUSH2 0x100 EXP SWAP1 DIV PUSH2 0xFFFF AND PUSH1 0x15 PUSH1 0x0 SWAP1 SLOAD SWAP1 PUSH2 0x100 EXP SWAP1 DIV PUSH4 0xFFFFFFFF AND PUSH1 0x15 PUSH1 0x6 SWAP1 SLOAD SWAP1 PUSH2 0x100 EXP SWAP1 DIV PUSH4 0xFFFFFFFF AND PUSH1 0x40 MLOAD DUP7 PUSH4 0xFFFFFFFF AND PUSH1 0xE0 SHL DUP2 MSTORE PUSH1 0x4 ADD PUSH2 0x134B SWAP6 SWAP5 SWAP4 SWAP3 SWAP2 SWAP1 PUSH2 0x41AA JUMP JUMPDEST PUSH1 0x20 PUSH1 0x40 MLOAD DUP1 DUP4 SUB DUP2 PUSH1 0x0 DUP8 GAS CALL ISZERO DUP1 ISZERO PUSH2 0x136A JUMPI RETURNDATASIZE PUSH1 0x0 DUP1 RETURNDATACOPY RETURNDATASIZE PUSH1 0x0 REVERT JUMPDEST POP POP POP POP PUSH1 0x40 MLOAD RETURNDATASIZE PUSH1 0x1F NOT PUSH1 0x1F DUP3 ADD AND DUP3 ADD DUP1 PUSH1 0x40 MSTORE POP DUP2 ADD SWAP1 PUSH2 0x138E SWAP2 SWAP1 PUSH2 0x41FD JUMP JUMPDEST SWAP1 POP PUSH32 0xCC58B13AD3EAB50626C6A6300B1D139CD6EBB1688A7CCED9461C2F7E762665EE DUP2 PUSH1 0x15 PUSH1 0x6 SWAP1 SLOAD SWAP1 PUSH2 0x100 EXP SWAP1 DIV PUSH4 0xFFFFFFFF AND PUSH1 0x40 MLOAD PUSH2 0x13D3 SWAP3 SWAP2 SWAP1 PUSH2 0x422A JUMP JUMPDEST PUSH1 0x40 MLOAD DUP1 SWAP2 SUB SWAP1 LOG1 SWAP1 JUMP JUMPDEST PUSH1 0x0 PUSH1 0x5 PUSH1 0x0 DUP5 PUSH20 0xFFFFFFFFFFFFFFFFFFFFFFFFFFFFFFFFFFFFFFFF AND PUSH20 0xFFFFFFFFFFFFFFFFFFFFFFFFFFFFFFFFFFFFFFFF AND DUP2 MSTORE PUSH1 0x20 ADD SWAP1 DUP2 MSTORE PUSH1 0x20 ADD PUSH1 0x0 KECCAK256 PUSH1 0x0 DUP4 PUSH20 0xFFFFFFFFFFFFFFFFFFFFFFFFFFFFFFFFFFFFFFFF AND PUSH20 0xFFFFFFFFFFFFFFFFFFFFFFFFFFFFFFFFFFFFFFFF AND DUP2 MSTORE PUSH1 0x20 ADD SWAP1 DUP2 MSTORE PUSH1 0x20 ADD PUSH1 0x0 KECCAK256 PUSH1 0x0 SWAP1 SLOAD SWAP1 PUSH2 0x100 EXP SWAP1 DIV PUSH1 0xFF AND SWAP1 POP SWAP3 SWAP2 POP POP JUMP JUMPDEST PUSH2 0x147A PUSH2 0x19B9 JUMP JUMPDEST DUP1 PUSH1 0x12 PUSH1 0x14 PUSH2 0x100 EXP DUP2 SLOAD DUP2 PUSH8 0xFFFFFFFFFFFFFFFF MUL NOT AND SWAP1 DUP4 PUSH8 0xFFFFFFFFFFFFFFFF AND MUL OR SWAP1 SSTORE POP POP JUMP JUMPDEST PUSH1 0x15 PUSH1 0xA SWAP1 SLOAD SWAP1 PUSH2 0x100 EXP SWAP1 DIV PUSH1 0xFF AND DUP2 JUMP JUMPDEST PUSH2 0x14C1 PUSH2 0x19B9 JUMP JUMPDEST PUSH1 0x0 PUSH20 0xFFFFFFFFFFFFFFFFFFFFFFFFFFFFFFFFFFFFFFFF AND DUP2 PUSH20 0xFFFFFFFFFFFFFFFFFFFFFFFFFFFFFFFFFFFFFFFF AND SUB PUSH2 0x1530 JUMPI PUSH1 0x40 MLOAD PUSH32 0x8C379A000000000000000000000000000000000000000000000000000000000 DUP2 MSTORE PUSH1 0x4 ADD PUSH2 0x1527 SWAP1 PUSH2 0x42C5 JUMP JUMPDEST PUSH1 0x40 MLOAD DUP1 SWAP2 SUB SWAP1 REVERT JUMPDEST PUSH2 0x1539 DUP2 PUSH2 0x209A JUMP JUMPDEST POP JUMP JUMPDEST PUSH1 0x13 DUP2 DUP2 SLOAD DUP2 LT PUSH2 0x154C JUMPI PUSH1 0x0 DUP1 REVERT JUMPDEST SWAP1 PUSH1 0x0 MSTORE PUSH1 0x20 PUSH1 0x0 KECCAK256 ADD PUSH1 0x0 SWAP2 POP SWAP1 POP SLOAD DUP2 JUMP JUMPDEST PUSH1 0x0 PUSH32 0x780E9D6300000000000000000000000000000000000000000000000000000000 PUSH28 0xFFFFFFFFFFFFFFFFFFFFFFFFFFFFFFFFFFFFFFFFFFFFFFFFFFFFFFFF NOT AND DUP3 PUSH28 0xFFFFFFFFFFFFFFFFFFFFFFFFFFFFFFFFFFFFFFFFFFFFFFFFFFFFFFFF NOT AND EQ DUP1 PUSH2 0x15D3 JUMPI POP PUSH2 0x15D2 DUP3 PUSH2 0x243A JUMP JUMPDEST JUMPDEST SWAP1 POP SWAP2 SWAP1 POP JUMP JUMPDEST PUSH2 0x15E3 DUP2 PUSH2 0x251C JUMP JUMPDEST PUSH2 0x1622 JUMPI PUSH1 0x40 MLOAD PUSH32 0x8C379A000000000000000000000000000000000000000000000000000000000 DUP2 MSTORE PUSH1 0x4 ADD PUSH2 0x1619 SWAP1 PUSH2 0x3F72 JUMP JUMPDEST PUSH1 0x40 MLOAD DUP1 SWAP2 SUB SWAP1 REVERT JUMPDEST POP JUMP JUMPDEST PUSH1 0x0 CALLER SWAP1 POP SWAP1 JUMP JUMPDEST DUP2 PUSH1 0x4 PUSH1 0x0 DUP4 DUP2 MSTORE PUSH1 0x20 ADD SWAP1 DUP2 MSTORE PUSH1 0x20 ADD PUSH1 0x0 KECCAK256 PUSH1 0x0 PUSH2 0x100 EXP DUP2 SLOAD DUP2 PUSH20 0xFFFFFFFFFFFFFFFFFFFFFFFFFFFFFFFFFFFFFFFF MUL NOT AND SWAP1 DUP4 PUSH20 0xFFFFFFFFFFFFFFFFFFFFFFFFFFFFFFFFFFFFFFFF AND MUL OR SWAP1 SSTORE POP DUP1 DUP3 PUSH20 0xFFFFFFFFFFFFFFFFFFFFFFFFFFFFFFFFFFFFFFFF AND PUSH2 0x16A0 DUP4 PUSH2 0xDBF JUMP JUMPDEST PUSH20 0xFFFFFFFFFFFFFFFFFFFFFFFFFFFFFFFFFFFFFFFF AND PUSH32 0x8C5BE1E5EBEC7D5BD14F71427D1E84F3DD0314C0F7B2291E5B200AC8C7C3B925 PUSH1 0x40 MLOAD PUSH1 0x40 MLOAD DUP1 SWAP2 SUB SWAP1 LOG4 POP POP JUMP JUMPDEST DUP1 PUSH1 0x13 SWAP1 DUP1 MLOAD SWAP1 PUSH1 0x20 ADD SWAP1 PUSH2 0x16FC SWAP3 SWAP2 SWAP1 PUSH2 0x30A6 JUMP JUMPDEST POP PUSH2 0x173B PUSH1 0x40 MLOAD DUP1 PUSH1 0x40 ADD PUSH1 0x40 MSTORE DUP1 PUSH1 0x1A DUP2 MSTORE PUSH1 0x20 ADD PUSH32 0x2E2E2E46756C66696C6C696E672072616E646F6D20576F726473000000000000 DUP2 MSTORE POP PUSH2 0x2001 JUMP JUMPDEST PUSH1 0x0 DUP1 PUSH1 0x1 DUP2 GT ISZERO PUSH2 0x1750 JUMPI PUSH2 0x174F PUSH2 0x3A9F JUMP JUMPDEST JUMPDEST PUSH1 0x15 PUSH1 0xA SWAP1 SLOAD SWAP1 PUSH2 0x100 EXP SWAP1 DIV PUSH1 0xFF AND PUSH1 0x1 DUP2 GT ISZERO PUSH2 0x1772 JUMPI PUSH2 0x1771 PUSH2 0x3A9F JUMP JUMPDEST JUMPDEST EQ PUSH2 0x177E JUMPI PUSH1 0x17 PUSH2 0x1781 JUMP JUMPDEST PUSH1 0x16 JUMPDEST DUP1 SLOAD DUP1 PUSH1 0x20 MUL PUSH1 0x20 ADD PUSH1 0x40 MLOAD SWAP1 DUP2 ADD PUSH1 0x40 MSTORE DUP1 SWAP3 SWAP2 SWAP1 DUP2 DUP2 MSTORE PUSH1 0x20 ADD PUSH1 0x0 SWAP1 JUMPDEST DUP3 DUP3 LT ISZERO PUSH2 0x184D JUMPI DUP4 DUP3 SWAP1 PUSH1 0x0 MSTORE PUSH1 0x20 PUSH1 0x0 KECCAK256 ADD DUP1 SLOAD PUSH2 0x17C0 SWAP1 PUSH2 0x3B60 JUMP JUMPDEST DUP1 PUSH1 0x1F ADD PUSH1 0x20 DUP1 SWAP2 DIV MUL PUSH1 0x20 ADD PUSH1 0x40 MLOAD SWAP1 DUP2 ADD PUSH1 0x40 MSTORE DUP1 SWAP3 SWAP2 SWAP1 DUP2 DUP2 MSTORE PUSH1 0x20 ADD DUP3 DUP1 SLOAD PUSH2 0x17EC SWAP1 PUSH2 0x3B60 JUMP JUMPDEST DUP1 ISZERO PUSH2 0x1839 JUMPI DUP1 PUSH1 0x1F LT PUSH2 0x180E JUMPI PUSH2 0x100 DUP1 DUP4 SLOAD DIV MUL DUP4 MSTORE SWAP2 PUSH1 0x20 ADD SWAP2 PUSH2 0x1839 JUMP JUMPDEST DUP3 ADD SWAP2 SWAP1 PUSH1 0x0 MSTORE PUSH1 0x20 PUSH1 0x0 KECCAK256 SWAP1 JUMPDEST DUP2 SLOAD DUP2 MSTORE SWAP1 PUSH1 0x1 ADD SWAP1 PUSH1 0x20 ADD DUP1 DUP4 GT PUSH2 0x181C JUMPI DUP3 SWAP1 SUB PUSH1 0x1F AND DUP3 ADD SWAP2 JUMPDEST POP POP POP POP POP DUP2 MSTORE PUSH1 0x20 ADD SWAP1 PUSH1 0x1 ADD SWAP1 PUSH2 0x17A1 JUMP JUMPDEST POP POP POP POP SWAP1 POP PUSH1 0x0 DUP2 MLOAD DUP4 PUSH1 0x0 DUP2 MLOAD DUP2 LT PUSH2 0x186B JUMPI PUSH2 0x186A PUSH2 0x3E02 JUMP JUMPDEST JUMPDEST PUSH1 0x20 MUL PUSH1 0x20 ADD ADD MLOAD PUSH2 0x187D SWAP2 SWAP1 PUSH2 0x4314 JUMP JUMPDEST SWAP1 POP PUSH1 0x0 JUMPDEST PUSH2 0x188C PUSH1 0xD PUSH2 0x1D32 JUMP JUMPDEST DUP2 LT ISZERO PUSH2 0x18CA JUMPI PUSH2 0x18B7 DUP2 DUP5 DUP5 DUP2 MLOAD DUP2 LT PUSH2 0x18AA JUMPI PUSH2 0x18A9 PUSH2 0x3E02 JUMP JUMPDEST JUMPDEST PUSH1 0x20 MUL PUSH1 0x20 ADD ADD MLOAD PUSH2 0x1D74 JUMP JUMPDEST DUP1 DUP1 PUSH2 0x18C2 SWAP1 PUSH2 0x4345 JUMP JUMPDEST SWAP2 POP POP PUSH2 0x1882 JUMP JUMPDEST POP PUSH1 0x0 DUP1 PUSH1 0x1 DUP2 GT ISZERO PUSH2 0x18E0 JUMPI PUSH2 0x18DF PUSH2 0x3A9F JUMP JUMPDEST JUMPDEST PUSH1 0x15 PUSH1 0xA SWAP1 SLOAD SWAP1 PUSH2 0x100 EXP SWAP1 DIV PUSH1 0xFF AND PUSH1 0x1 DUP2 GT ISZERO PUSH2 0x1902 JUMPI PUSH2 0x1901 PUSH2 0x3A9F JUMP JUMPDEST JUMPDEST EQ PUSH2 0x1942 JUMPI PUSH1 0x40 MLOAD DUP1 PUSH1 0x40 ADD PUSH1 0x40 MSTORE DUP1 PUSH1 0x7 DUP2 MSTORE PUSH1 0x20 ADD PUSH32 0x6265617269736800000000000000000000000000000000000000000000000000 DUP2 MSTORE POP PUSH2 0x1979 JUMP JUMPDEST PUSH1 0x40 MLOAD DUP1 PUSH1 0x40 ADD PUSH1 0x40 MSTORE DUP1 PUSH1 0x7 DUP2 MSTORE PUSH1 0x20 ADD PUSH32 0x62756C6C69736800000000000000000000000000000000000000000000000000 DUP2 MSTORE POP JUMPDEST SWAP1 POP PUSH32 0x1CD67277DCD039D660F99499BDB46E90175D6160E3F9AB788A032B7A1AD2356A DUP2 PUSH1 0x40 MLOAD PUSH2 0x19AA SWAP2 SWAP1 PUSH2 0x32A3 JUMP JUMPDEST PUSH1 0x40 MLOAD DUP1 SWAP2 SUB SWAP1 LOG1 POP POP POP POP POP JUMP JUMPDEST PUSH2 0x19C1 PUSH2 0x1625 JUMP JUMPDEST PUSH20 0xFFFFFFFFFFFFFFFFFFFFFFFFFFFFFFFFFFFFFFFF AND PUSH2 0x19DF PUSH2 0x1073 JUMP JUMPDEST PUSH20 0xFFFFFFFFFFFFFFFFFFFFFFFFFFFFFFFFFFFFFFFF AND EQ PUSH2 0x1A35 JUMPI PUSH1 0x40 MLOAD PUSH32 0x8C379A000000000000000000000000000000000000000000000000000000000 DUP2 MSTORE PUSH1 0x4 ADD PUSH2 0x1A2C SWAP1 PUSH2 0x43D9 JUMP JUMPDEST PUSH1 0x40 MLOAD DUP1 SWAP2 SUB SWAP1 REVERT JUMPDEST JUMP JUMPDEST PUSH1 0x0 DUP1 PUSH2 0x1A43 DUP4 PUSH2 0xDBF JUMP JUMPDEST SWAP1 POP DUP1 PUSH20 0xFFFFFFFFFFFFFFFFFFFFFFFFFFFFFFFFFFFFFFFF AND DUP5 PUSH20 0xFFFFFFFFFFFFFFFFFFFFFFFFFFFFFFFFFFFFFFFF AND EQ DUP1 PUSH2 0x1A85 JUMPI POP PUSH2 0x1A84 DUP2 DUP6 PUSH2 0x13DE JUMP JUMPDEST JUMPDEST DUP1 PUSH2 0x1AC3 JUMPI POP DUP4 PUSH20 0xFFFFFFFFFFFFFFFFFFFFFFFFFFFFFFFFFFFFFFFF AND PUSH2 0x1AAB DUP5 PUSH2 0x787 JUMP JUMPDEST PUSH20 0xFFFFFFFFFFFFFFFFFFFFFFFFFFFFFFFFFFFFFFFF AND EQ JUMPDEST SWAP2 POP POP SWAP3 SWAP2 POP POP JUMP JUMPDEST DUP3 PUSH20 0xFFFFFFFFFFFFFFFFFFFFFFFFFFFFFFFFFFFFFFFF AND PUSH2 0x1AEC DUP3 PUSH2 0xDBF JUMP JUMPDEST PUSH20 0xFFFFFFFFFFFFFFFFFFFFFFFFFFFFFFFFFFFFFFFF AND EQ PUSH2 0x1B42 JUMPI PUSH1 0x40 MLOAD PUSH32 0x8C379A000000000000000000000000000000000000000000000000000000000 DUP2 MSTORE PUSH1 0x4 ADD PUSH2 0x1B39 SWAP1 PUSH2 0x446B JUMP JUMPDEST PUSH1 0x40 MLOAD DUP1 SWAP2 SUB SWAP1 REVERT JUMPDEST PUSH1 0x0 PUSH20 0xFFFFFFFFFFFFFFFFFFFFFFFFFFFFFFFFFFFFFFFF AND DUP3 PUSH20 0xFFFFFFFFFFFFFFFFFFFFFFFFFFFFFFFFFFFFFFFF AND SUB PUSH2 0x1BB1 JUMPI PUSH1 0x40 MLOAD PUSH32 0x8C379A000000000000000000000000000000000000000000000000000000000 DUP2 MSTORE PUSH1 0x4 ADD PUSH2 0x1BA8 SWAP1 PUSH2 0x44FD JUMP JUMPDEST PUSH1 0x40 MLOAD DUP1 SWAP2 SUB SWAP1 REVERT JUMPDEST PUSH2 0x1BBC DUP4 DUP4 DUP4 PUSH2 0x2588 JUMP JUMPDEST PUSH2 0x1BC7 PUSH1 0x0 DUP3 PUSH2 0x162D JUMP JUMPDEST PUSH1 0x1 PUSH1 0x3 PUSH1 0x0 DUP6 PUSH20 0xFFFFFFFFFFFFFFFFFFFFFFFFFFFFFFFFFFFFFFFF AND PUSH20 0xFFFFFFFFFFFFFFFFFFFFFFFFFFFFFFFFFFFFFFFF AND DUP2 MSTORE PUSH1 0x20 ADD SWAP1 DUP2 MSTORE PUSH1 0x20 ADD PUSH1 0x0 KECCAK256 PUSH1 0x0 DUP3 DUP3 SLOAD PUSH2 0x1C17 SWAP2 SWAP1 PUSH2 0x3E60 JUMP JUMPDEST SWAP3 POP POP DUP2 SWAP1 SSTORE POP PUSH1 0x1 PUSH1 0x3 PUSH1 0x0 DUP5 PUSH20 0xFFFFFFFFFFFFFFFFFFFFFFFFFFFFFFFFFFFFFFFF AND PUSH20 0xFFFFFFFFFFFFFFFFFFFFFFFFFFFFFFFFFFFFFFFF AND DUP2 MSTORE PUSH1 0x20 ADD SWAP1 DUP2 MSTORE PUSH1 0x20 ADD PUSH1 0x0 KECCAK256 PUSH1 0x0 DUP3 DUP3 SLOAD PUSH2 0x1C6E SWAP2 SWAP1 PUSH2 0x3F92 JUMP JUMPDEST SWAP3 POP POP DUP2 SWAP1 SSTORE POP DUP2 PUSH1 0x2 PUSH1 0x0 DUP4 DUP2 MSTORE PUSH1 0x20 ADD SWAP1 DUP2 MSTORE PUSH1 0x20 ADD PUSH1 0x0 KECCAK256 PUSH1 0x0 PUSH2 0x100 EXP DUP2 SLOAD DUP2 PUSH20 0xFFFFFFFFFFFFFFFFFFFFFFFFFFFFFFFFFFFFFFFF MUL NOT AND SWAP1 DUP4 PUSH20 0xFFFFFFFFFFFFFFFFFFFFFFFFFFFFFFFFFFFFFFFF AND MUL OR SWAP1 SSTORE POP DUP1 DUP3 PUSH20 0xFFFFFFFFFFFFFFFFFFFFFFFFFFFFFFFFFFFFFFFF AND DUP5 PUSH20 0xFFFFFFFFFFFFFFFFFFFFFFFFFFFFFFFFFFFFFFFF AND PUSH32 0xDDF252AD1BE2C89B69C2B068FC378DAA952BA7F163C4A11628F55A4DF523B3EF PUSH1 0x40 MLOAD PUSH1 0x40 MLOAD DUP1 SWAP2 SUB SWAP1 LOG4 PUSH2 0x1D2D DUP4 DUP4 DUP4 PUSH2 0x2598 JUMP JUMPDEST POP POP POP JUMP JUMPDEST PUSH1 0x0 DUP2 PUSH1 0x0 ADD SLOAD SWAP1 POP SWAP2 SWAP1 POP JUMP JUMPDEST PUSH1 0x1 DUP2 PUSH1 0x0 ADD PUSH1 0x0 DUP3 DUP3 SLOAD ADD SWAP3 POP POP DUP2 SWAP1 SSTORE POP POP JUMP JUMPDEST PUSH2 0x1D70 DUP3 DUP3 PUSH1 0x40 MLOAD DUP1 PUSH1 0x20 ADD PUSH1 0x40 MSTORE DUP1 PUSH1 0x0 DUP2 MSTORE POP PUSH2 0x259D JUMP JUMPDEST POP POP JUMP JUMPDEST PUSH2 0x1D7D DUP3 PUSH2 0x251C JUMP JUMPDEST PUSH2 0x1DBC JUMPI PUSH1 0x40 MLOAD PUSH32 0x8C379A000000000000000000000000000000000000000000000000000000000 DUP2 MSTORE PUSH1 0x4 ADD PUSH2 0x1DB3 SWAP1 PUSH2 0x458F JUMP JUMPDEST PUSH1 0x40 MLOAD DUP1 SWAP2 SUB SWAP1 REVERT JUMPDEST DUP1 PUSH1 0xA PUSH1 0x0 DUP5 DUP2 MSTORE PUSH1 0x20 ADD SWAP1 DUP2 MSTORE PUSH1 0x20 ADD PUSH1 0x0 KECCAK256 SWAP1 DUP2 PUSH2 0x1DDC SWAP2 SWAP1 PUSH2 0x4751 JUMP JUMPDEST POP POP POP JUMP JUMPDEST PUSH2 0x1E7D DUP5 DUP5 DUP5 DUP5 PUSH1 0x40 MLOAD PUSH1 0x24 ADD PUSH2 0x1DFB SWAP5 SWAP4 SWAP3 SWAP2 SWAP1 PUSH2 0x4823 JUMP JUMPDEST PUSH1 0x40 MLOAD PUSH1 0x20 DUP2 DUP4 SUB SUB DUP2 MSTORE SWAP1 PUSH1 0x40 MSTORE PUSH32 0x5AB84E1F00000000000000000000000000000000000000000000000000000000 PUSH28 0xFFFFFFFFFFFFFFFFFFFFFFFFFFFFFFFFFFFFFFFFFFFFFFFFFFFFFFFF NOT AND PUSH1 0x20 DUP3 ADD DUP1 MLOAD PUSH28 0xFFFFFFFFFFFFFFFFFFFFFFFFFFFFFFFFFFFFFFFFFFFFFFFFFFFFFFFF DUP4 DUP2 DUP4 AND OR DUP4 MSTORE POP POP POP POP PUSH2 0x25F8 JUMP JUMPDEST POP POP POP POP JUMP JUMPDEST PUSH1 0x0 PUSH1 0x12 PUSH1 0x14 SWAP1 SLOAD SWAP1 PUSH2 0x100 EXP SWAP1 DIV PUSH8 0xFFFFFFFFFFFFFFFF AND PUSH8 0xFFFFFFFFFFFFFFFF AND SUB PUSH2 0x1EE6 JUMPI PUSH1 0x40 MLOAD PUSH32 0x8C379A000000000000000000000000000000000000000000000000000000000 DUP2 MSTORE PUSH1 0x4 ADD PUSH2 0x1EDD SWAP1 PUSH2 0x48C9 JUMP JUMPDEST PUSH1 0x40 MLOAD DUP1 SWAP2 SUB SWAP1 REVERT JUMPDEST PUSH1 0x12 PUSH1 0x0 SWAP1 SLOAD SWAP1 PUSH2 0x100 EXP SWAP1 DIV PUSH20 0xFFFFFFFFFFFFFFFFFFFFFFFFFFFFFFFFFFFFFFFF AND PUSH20 0xFFFFFFFFFFFFFFFFFFFFFFFFFFFFFFFFFFFFFFFF AND PUSH4 0x5D3B1D30 PUSH1 0x14 SLOAD PUSH1 0x12 PUSH1 0x14 SWAP1 SLOAD SWAP1 PUSH2 0x100 EXP SWAP1 DIV PUSH8 0xFFFFFFFFFFFFFFFF AND PUSH1 0x3 PUSH1 0x15 PUSH1 0x0 SWAP1 SLOAD SWAP1 PUSH2 0x100 EXP SWAP1 DIV PUSH4 0xFFFFFFFF AND PUSH1 0x1 PUSH1 0x40 MLOAD DUP7 PUSH4 0xFFFFFFFF AND PUSH1 0xE0 SHL DUP2 MSTORE PUSH1 0x4 ADD PUSH2 0x1F75 SWAP6 SWAP5 SWAP4 SWAP3 SWAP2 SWAP1 PUSH2 0x495F JUMP JUMPDEST PUSH1 0x20 PUSH1 0x40 MLOAD DUP1 DUP4 SUB DUP2 PUSH1 0x0 DUP8 GAS CALL ISZERO DUP1 ISZERO PUSH2 0x1F94 JUMPI RETURNDATASIZE PUSH1 0x0 DUP1 RETURNDATACOPY RETURNDATASIZE PUSH1 0x0 REVERT JUMPDEST POP POP POP POP PUSH1 0x40 MLOAD RETURNDATASIZE PUSH1 0x1F NOT PUSH1 0x1F DUP3 ADD AND DUP3 ADD DUP1 PUSH1 0x40 MSTORE POP DUP2 ADD SWAP1 PUSH2 0x1FB8 SWAP2 SWAP1 PUSH2 0x41FD JUMP JUMPDEST PUSH1 0x11 DUP2 SWAP1 SSTORE POP PUSH2 0x1FFF PUSH1 0x40 MLOAD DUP1 PUSH1 0x40 ADD PUSH1 0x40 MSTORE DUP1 PUSH1 0xC DUP2 MSTORE PUSH1 0x20 ADD PUSH32 0x526571756573742049443A200000000000000000000000000000000000000000 DUP2 MSTORE POP PUSH1 0x11 SLOAD PUSH2 0x2621 JUMP JUMPDEST JUMP JUMPDEST PUSH2 0x2097 DUP2 PUSH1 0x40 MLOAD PUSH1 0x24 ADD PUSH2 0x2015 SWAP2 SWAP1 PUSH2 0x32A3 JUMP JUMPDEST PUSH1 0x40 MLOAD PUSH1 0x20 DUP2 DUP4 SUB SUB DUP2 MSTORE SWAP1 PUSH1 0x40 MSTORE PUSH32 0x41304FAC00000000000000000000000000000000000000000000000000000000 PUSH28 0xFFFFFFFFFFFFFFFFFFFFFFFFFFFFFFFFFFFFFFFFFFFFFFFFFFFFFFFF NOT AND PUSH1 0x20 DUP3 ADD DUP1 MLOAD PUSH28 0xFFFFFFFFFFFFFFFFFFFFFFFFFFFFFFFFFFFFFFFFFFFFFFFFFFFFFFFF DUP4 DUP2 DUP4 AND OR DUP4 MSTORE POP POP POP POP PUSH2 0x25F8 JUMP JUMPDEST POP JUMP JUMPDEST PUSH1 0x0 PUSH1 0xB PUSH1 0x0 SWAP1 SLOAD SWAP1 PUSH2 0x100 EXP SWAP1 DIV PUSH20 0xFFFFFFFFFFFFFFFFFFFFFFFFFFFFFFFFFFFFFFFF AND SWAP1 POP DUP2 PUSH1 0xB PUSH1 0x0 PUSH2 0x100 EXP DUP2 SLOAD DUP2 PUSH20 0xFFFFFFFFFFFFFFFFFFFFFFFFFFFFFFFFFFFFFFFF MUL NOT AND SWAP1 DUP4 PUSH20 0xFFFFFFFFFFFFFFFFFFFFFFFFFFFFFFFFFFFFFFFF AND MUL OR SWAP1 SSTORE POP DUP2 PUSH20 0xFFFFFFFFFFFFFFFFFFFFFFFFFFFFFFFFFFFFFFFF AND DUP2 PUSH20 0xFFFFFFFFFFFFFFFFFFFFFFFFFFFFFFFFFFFFFFFF AND PUSH32 0x8BE0079C531659141344CD1FD0A4F28419497F9722A3DAAFE3B4186F6B6457E0 PUSH1 0x40 MLOAD PUSH1 0x40 MLOAD DUP1 SWAP2 SUB SWAP1 LOG3 POP POP JUMP JUMPDEST DUP2 PUSH20 0xFFFFFFFFFFFFFFFFFFFFFFFFFFFFFFFFFFFFFFFF AND DUP4 PUSH20 0xFFFFFFFFFFFFFFFFFFFFFFFFFFFFFFFFFFFFFFFF AND SUB PUSH2 0x21CE JUMPI PUSH1 0x40 MLOAD PUSH32 0x8C379A000000000000000000000000000000000000000000000000000000000 DUP2 MSTORE PUSH1 0x4 ADD PUSH2 0x21C5 SWAP1 PUSH2 0x49FE JUMP JUMPDEST PUSH1 0x40 MLOAD DUP1 SWAP2 SUB SWAP1 REVERT JUMPDEST DUP1 PUSH1 0x5 PUSH1 0x0 DUP6 PUSH20 0xFFFFFFFFFFFFFFFFFFFFFFFFFFFFFFFFFFFFFFFF AND PUSH20 0xFFFFFFFFFFFFFFFFFFFFFFFFFFFFFFFFFFFFFFFF AND DUP2 MSTORE PUSH1 0x20 ADD SWAP1 DUP2 MSTORE PUSH1 0x20 ADD PUSH1 0x0 KECCAK256 PUSH1 0x0 DUP5 PUSH20 0xFFFFFFFFFFFFFFFFFFFFFFFFFFFFFFFFFFFFFFFF AND PUSH20 0xFFFFFFFFFFFFFFFFFFFFFFFFFFFFFFFFFFFFFFFF AND DUP2 MSTORE PUSH1 0x20 ADD SWAP1 DUP2 MSTORE PUSH1 0x20 ADD PUSH1 0x0 KECCAK256 PUSH1 0x0 PUSH2 0x100 EXP DUP2 SLOAD DUP2 PUSH1 0xFF MUL NOT AND SWAP1 DUP4 ISZERO ISZERO MUL OR SWAP1 SSTORE POP DUP2 PUSH20 0xFFFFFFFFFFFFFFFFFFFFFFFFFFFFFFFFFFFFFFFF AND DUP4 PUSH20 0xFFFFFFFFFFFFFFFFFFFFFFFFFFFFFFFFFFFFFFFF AND PUSH32 0x17307EAB39AB6107E8899845AD3D59BD9653F200F220920489CA2B5937696C31 DUP4 PUSH1 0x40 MLOAD PUSH2 0x22BF SWAP2 SWAP1 PUSH2 0x31F8 JUMP JUMPDEST PUSH1 0x40 MLOAD DUP1 SWAP2 SUB SWAP1 LOG3 POP POP POP JUMP JUMPDEST PUSH2 0x22D7 DUP5 DUP5 DUP5 PUSH2 0x1ACC JUMP JUMPDEST PUSH2 0x22E3 DUP5 DUP5 DUP5 DUP5 PUSH2 0x26BD JUMP JUMPDEST PUSH2 0x2322 JUMPI PUSH1 0x40 MLOAD PUSH32 0x8C379A000000000000000000000000000000000000000000000000000000000 DUP2 MSTORE PUSH1 0x4 ADD PUSH2 0x2319 SWAP1 PUSH2 0x4A90 JUMP JUMPDEST PUSH1 0x40 MLOAD DUP1 SWAP2 SUB SWAP1 REVERT JUMPDEST POP POP POP POP JUMP JUMPDEST PUSH1 0x60 PUSH2 0x2333 DUP3 PUSH2 0x15DA JUMP JUMPDEST PUSH1 0x0 PUSH1 0xA PUSH1 0x0 DUP5 DUP2 MSTORE PUSH1 0x20 ADD SWAP1 DUP2 MSTORE PUSH1 0x20 ADD PUSH1 0x0 KECCAK256 DUP1 SLOAD PUSH2 0x2353 SWAP1 PUSH2 0x3B60 JUMP JUMPDEST DUP1 PUSH1 0x1F ADD PUSH1 0x20 DUP1 SWAP2 DIV MUL PUSH1 0x20 ADD PUSH1 0x40 MLOAD SWAP1 DUP2 ADD PUSH1 0x40 MSTORE DUP1 SWAP3 SWAP2 SWAP1 DUP2 DUP2 MSTORE PUSH1 0x20 ADD DUP3 DUP1 SLOAD PUSH2 0x237F SWAP1 PUSH2 0x3B60 JUMP JUMPDEST DUP1 ISZERO PUSH2 0x23CC JUMPI DUP1 PUSH1 0x1F LT PUSH2 0x23A1 JUMPI PUSH2 0x100 DUP1 DUP4 SLOAD DIV MUL DUP4 MSTORE SWAP2 PUSH1 0x20 ADD SWAP2 PUSH2 0x23CC JUMP JUMPDEST DUP3 ADD SWAP2 SWAP1 PUSH1 0x0 MSTORE PUSH1 0x20 PUSH1 0x0 KECCAK256 SWAP1 JUMPDEST DUP2 SLOAD DUP2 MSTORE SWAP1 PUSH1 0x1 ADD SWAP1 PUSH1 0x20 ADD DUP1 DUP4 GT PUSH2 0x23AF JUMPI DUP3 SWAP1 SUB PUSH1 0x1F AND DUP3 ADD SWAP2 JUMPDEST POP POP POP POP POP SWAP1 POP PUSH1 0x0 PUSH2 0x23DD PUSH2 0x2844 JUMP JUMPDEST SWAP1 POP PUSH1 0x0 DUP2 MLOAD SUB PUSH2 0x23F2 JUMPI DUP2 SWAP3 POP POP POP PUSH2 0x2435 JUMP JUMPDEST PUSH1 0x0 DUP3 MLOAD GT ISZERO PUSH2 0x2427 JUMPI DUP1 DUP3 PUSH1 0x40 MLOAD PUSH1 0x20 ADD PUSH2 0x240F SWAP3 SWAP2 SWAP1 PUSH2 0x4AEC JUMP JUMPDEST PUSH1 0x40 MLOAD PUSH1 0x20 DUP2 DUP4 SUB SUB DUP2 MSTORE SWAP1 PUSH1 0x40 MSTORE SWAP3 POP POP POP PUSH2 0x2435 JUMP JUMPDEST PUSH2 0x2430 DUP5 PUSH2 0x285B JUMP JUMPDEST SWAP3 POP POP POP JUMPDEST SWAP2 SWAP1 POP JUMP JUMPDEST PUSH1 0x0 PUSH32 0x80AC58CD00000000000000000000000000000000000000000000000000000000 PUSH28 0xFFFFFFFFFFFFFFFFFFFFFFFFFFFFFFFFFFFFFFFFFFFFFFFFFFFFFFFF NOT AND DUP3 PUSH28 0xFFFFFFFFFFFFFFFFFFFFFFFFFFFFFFFFFFFFFFFFFFFFFFFFFFFFFFFF NOT AND EQ DUP1 PUSH2 0x2505 JUMPI POP PUSH32 0x5B5E139F00000000000000000000000000000000000000000000000000000000 PUSH28 0xFFFFFFFFFFFFFFFFFFFFFFFFFFFFFFFFFFFFFFFFFFFFFFFFFFFFFFFF NOT AND DUP3 PUSH28 0xFFFFFFFFFFFFFFFFFFFFFFFFFFFFFFFFFFFFFFFFFFFFFFFFFFFFFFFF NOT AND EQ JUMPDEST DUP1 PUSH2 0x2515 JUMPI POP PUSH2 0x2514 DUP3 PUSH2 0x28C3 JUMP JUMPDEST JUMPDEST SWAP1 POP SWAP2 SWAP1 POP JUMP JUMPDEST PUSH1 0x0 DUP1 PUSH20 0xFFFFFFFFFFFFFFFFFFFFFFFFFFFFFFFFFFFFFFFF AND PUSH1 0x2 PUSH1 0x0 DUP5 DUP2 MSTORE PUSH1 0x20 ADD SWAP1 DUP2 MSTORE PUSH1 0x20 ADD PUSH1 0x0 KECCAK256 PUSH1 0x0 SWAP1 SLOAD SWAP1 PUSH2 0x100 EXP SWAP1 DIV PUSH20 0xFFFFFFFFFFFFFFFFFFFFFFFFFFFFFFFFFFFFFFFF AND PUSH20 0xFFFFFFFFFFFFFFFFFFFFFFFFFFFFFFFFFFFFFFFF AND EQ ISZERO SWAP1 POP SWAP2 SWAP1 POP JUMP JUMPDEST PUSH2 0x2593 DUP4 DUP4 DUP4 PUSH2 0x292D JUMP JUMPDEST POP POP POP JUMP JUMPDEST POP POP POP JUMP JUMPDEST PUSH2 0x25A7 DUP4 DUP4 PUSH2 0x2A3F JUMP JUMPDEST PUSH2 0x25B4 PUSH1 0x0 DUP5 DUP5 DUP5 PUSH2 0x26BD JUMP JUMPDEST PUSH2 0x25F3 JUMPI PUSH1 0x40 MLOAD PUSH32 0x8C379A000000000000000000000000000000000000000000000000000000000 DUP2 MSTORE PUSH1 0x4 ADD PUSH2 0x25EA SWAP1 PUSH2 0x4A90 JUMP JUMPDEST PUSH1 0x40 MLOAD DUP1 SWAP2 SUB SWAP1 REVERT JUMPDEST POP POP POP JUMP JUMPDEST PUSH1 0x0 DUP2 MLOAD SWAP1 POP PUSH1 0x0 PUSH11 0x636F6E736F6C652E6C6F67 SWAP1 POP PUSH1 0x20 DUP4 ADD PUSH1 0x0 DUP1 DUP5 DUP4 DUP6 GAS STATICCALL POP POP POP POP POP JUMP JUMPDEST PUSH2 0x26B9 DUP3 DUP3 PUSH1 0x40 MLOAD PUSH1 0x24 ADD PUSH2 0x2637 SWAP3 SWAP2 SWAP1 PUSH2 0x4B10 JUMP JUMPDEST PUSH1 0x40 MLOAD PUSH1 0x20 DUP2 DUP4 SUB SUB DUP2 MSTORE SWAP1 PUSH1 0x40 MSTORE PUSH32 0xB60E72CC00000000000000000000000000000000000000000000000000000000 PUSH28 0xFFFFFFFFFFFFFFFFFFFFFFFFFFFFFFFFFFFFFFFFFFFFFFFFFFFFFFFF NOT AND PUSH1 0x20 DUP3 ADD DUP1 MLOAD PUSH28 0xFFFFFFFFFFFFFFFFFFFFFFFFFFFFFFFFFFFFFFFFFFFFFFFFFFFFFFFF DUP4 DUP2 DUP4 AND OR DUP4 MSTORE POP POP POP POP PUSH2 0x25F8 JUMP JUMPDEST POP POP JUMP JUMPDEST PUSH1 0x0 PUSH2 0x26DE DUP5 PUSH20 0xFFFFFFFFFFFFFFFFFFFFFFFFFFFFFFFFFFFFFFFF AND PUSH2 0x2C18 JUMP JUMPDEST ISZERO PUSH2 0x2837 JUMPI DUP4 PUSH20 0xFFFFFFFFFFFFFFFFFFFFFFFFFFFFFFFFFFFFFFFF AND PUSH4 0x150B7A02 PUSH2 0x2707 PUSH2 0x1625 JUMP JUMPDEST DUP8 DUP7 DUP7 PUSH1 0x40 MLOAD DUP6 PUSH4 0xFFFFFFFF AND PUSH1 0xE0 SHL DUP2 MSTORE PUSH1 0x4 ADD PUSH2 0x2729 SWAP5 SWAP4 SWAP3 SWAP2 SWAP1 PUSH2 0x4B40 JUMP JUMPDEST PUSH1 0x20 PUSH1 0x40 MLOAD DUP1 DUP4 SUB DUP2 PUSH1 0x0 DUP8 GAS CALL SWAP3 POP POP POP DUP1 ISZERO PUSH2 0x2765 JUMPI POP PUSH1 0x40 MLOAD RETURNDATASIZE PUSH1 0x1F NOT PUSH1 0x1F DUP3 ADD AND DUP3 ADD DUP1 PUSH1 0x40 MSTORE POP DUP2 ADD SWAP1 PUSH2 0x2762 SWAP2 SWAP1 PUSH2 0x4BA1 JUMP JUMPDEST PUSH1 0x1 JUMPDEST PUSH2 0x27E7 JUMPI RETURNDATASIZE DUP1 PUSH1 0x0 DUP2 EQ PUSH2 0x2795 JUMPI PUSH1 0x40 MLOAD SWAP2 POP PUSH1 0x1F NOT PUSH1 0x3F RETURNDATASIZE ADD AND DUP3 ADD PUSH1 0x40 MSTORE RETURNDATASIZE DUP3 MSTORE RETURNDATASIZE PUSH1 0x0 PUSH1 0x20 DUP5 ADD RETURNDATACOPY PUSH2 0x279A JUMP JUMPDEST PUSH1 0x60 SWAP2 POP JUMPDEST POP PUSH1 0x0 DUP2 MLOAD SUB PUSH2 0x27DF JUMPI PUSH1 0x40 MLOAD PUSH32 0x8C379A000000000000000000000000000000000000000000000000000000000 DUP2 MSTORE PUSH1 0x4 ADD PUSH2 0x27D6 SWAP1 PUSH2 0x4A90 JUMP JUMPDEST PUSH1 0x40 MLOAD DUP1 SWAP2 SUB SWAP1 REVERT JUMPDEST DUP1 MLOAD DUP2 PUSH1 0x20 ADD REVERT JUMPDEST PUSH4 0x150B7A02 PUSH1 0xE0 SHL PUSH28 0xFFFFFFFFFFFFFFFFFFFFFFFFFFFFFFFFFFFFFFFFFFFFFFFFFFFFFFFF NOT AND DUP2 PUSH28 0xFFFFFFFFFFFFFFFFFFFFFFFFFFFFFFFFFFFFFFFFFFFFFFFFFFFFFFFF NOT AND EQ SWAP2 POP POP PUSH2 0x283C JUMP JUMPDEST PUSH1 0x1 SWAP1 POP JUMPDEST SWAP5 SWAP4 POP POP POP POP JUMP JUMPDEST PUSH1 0x60 PUSH1 0x40 MLOAD DUP1 PUSH1 0x20 ADD PUSH1 0x40 MSTORE DUP1 PUSH1 0x0 DUP2 MSTORE POP SWAP1 POP SWAP1 JUMP JUMPDEST PUSH1 0x60 PUSH2 0x2866 DUP3 PUSH2 0x15DA JUMP JUMPDEST PUSH1 0x0 PUSH2 0x2870 PUSH2 0x2844 JUMP JUMPDEST SWAP1 POP PUSH1 0x0 DUP2 MLOAD GT PUSH2 0x2890 JUMPI PUSH1 0x40 MLOAD DUP1 PUSH1 0x20 ADD PUSH1 0x40 MSTORE DUP1 PUSH1 0x0 DUP2 MSTORE POP PUSH2 0x28BB JUMP JUMPDEST DUP1 PUSH2 0x289A DUP5 PUSH2 0x2C3B JUMP JUMPDEST PUSH1 0x40 MLOAD PUSH1 0x20 ADD PUSH2 0x28AB SWAP3 SWAP2 SWAP1 PUSH2 0x4AEC JUMP JUMPDEST PUSH1 0x40 MLOAD PUSH1 0x20 DUP2 DUP4 SUB SUB DUP2 MSTORE SWAP1 PUSH1 0x40 MSTORE JUMPDEST SWAP2 POP POP SWAP2 SWAP1 POP JUMP JUMPDEST PUSH1 0x0 PUSH32 0x1FFC9A700000000000000000000000000000000000000000000000000000000 PUSH28 0xFFFFFFFFFFFFFFFFFFFFFFFFFFFFFFFFFFFFFFFFFFFFFFFFFFFFFFFF NOT AND DUP3 PUSH28 0xFFFFFFFFFFFFFFFFFFFFFFFFFFFFFFFFFFFFFFFFFFFFFFFFFFFFFFFF NOT AND EQ SWAP1 POP SWAP2 SWAP1 POP JUMP JUMPDEST PUSH2 0x2938 DUP4 DUP4 DUP4 PUSH2 0x2D9B JUMP JUMPDEST PUSH1 0x0 PUSH20 0xFFFFFFFFFFFFFFFFFFFFFFFFFFFFFFFFFFFFFFFF AND DUP4 PUSH20 0xFFFFFFFFFFFFFFFFFFFFFFFFFFFFFFFFFFFFFFFF AND SUB PUSH2 0x297A JUMPI PUSH2 0x2975 DUP2 PUSH2 0x2DA0 JUMP JUMPDEST PUSH2 0x29B9 JUMP JUMPDEST DUP2 PUSH20 0xFFFFFFFFFFFFFFFFFFFFFFFFFFFFFFFFFFFFFFFF AND DUP4 PUSH20 0xFFFFFFFFFFFFFFFFFFFFFFFFFFFFFFFFFFFFFFFF AND EQ PUSH2 0x29B8 JUMPI PUSH2 0x29B7 DUP4 DUP3 PUSH2 0x2DE9 JUMP JUMPDEST JUMPDEST JUMPDEST PUSH1 0x0 PUSH20 0xFFFFFFFFFFFFFFFFFFFFFFFFFFFFFFFFFFFFFFFF AND DUP3 PUSH20 0xFFFFFFFFFFFFFFFFFFFFFFFFFFFFFFFFFFFFFFFF AND SUB PUSH2 0x29FB JUMPI PUSH2 0x29F6 DUP2 PUSH2 0x2F56 JUMP JUMPDEST PUSH2 0x2A3A JUMP JUMPDEST DUP3 PUSH20 0xFFFFFFFFFFFFFFFFFFFFFFFFFFFFFFFFFFFFFFFF AND DUP3 PUSH20 0xFFFFFFFFFFFFFFFFFFFFFFFFFFFFFFFFFFFFFFFF AND EQ PUSH2 0x2A39 JUMPI PUSH2 0x2A38 DUP3 DUP3 PUSH2 0x3027 JUMP JUMPDEST JUMPDEST JUMPDEST POP POP POP JUMP JUMPDEST PUSH1 0x0 PUSH20 0xFFFFFFFFFFFFFFFFFFFFFFFFFFFFFFFFFFFFFFFF AND DUP3 PUSH20 0xFFFFFFFFFFFFFFFFFFFFFFFFFFFFFFFFFFFFFFFF AND SUB PUSH2 0x2AAE JUMPI PUSH1 0x40 MLOAD PUSH32 0x8C379A000000000000000000000000000000000000000000000000000000000 DUP2 MSTORE PUSH1 0x4 ADD PUSH2 0x2AA5 SWAP1 PUSH2 0x4C1A JUMP JUMPDEST PUSH1 0x40 MLOAD DUP1 SWAP2 SUB SWAP1 REVERT JUMPDEST PUSH2 0x2AB7 DUP2 PUSH2 0x251C JUMP JUMPDEST ISZERO PUSH2 0x2AF7 JUMPI PUSH1 0x40 MLOAD PUSH32 0x8C379A000000000000000000000000000000000000000000000000000000000 DUP2 MSTORE PUSH1 0x4 ADD PUSH2 0x2AEE SWAP1 PUSH2 0x4C86 JUMP JUMPDEST PUSH1 0x40 MLOAD DUP1 SWAP2 SUB SWAP1 REVERT JUMPDEST PUSH2 0x2B03 PUSH1 0x0 DUP4 DUP4 PUSH2 0x2588 JUMP JUMPDEST PUSH1 0x1 PUSH1 0x3 PUSH1 0x0 DUP5 PUSH20 0xFFFFFFFFFFFFFFFFFFFFFFFFFFFFFFFFFFFFFFFF AND PUSH20 0xFFFFFFFFFFFFFFFFFFFFFFFFFFFFFFFFFFFFFFFF AND DUP2 MSTORE PUSH1 0x20 ADD SWAP1 DUP2 MSTORE PUSH1 0x20 ADD PUSH1 0x0 KECCAK256 PUSH1 0x0 DUP3 DUP3 SLOAD PUSH2 0x2B53 SWAP2 SWAP1 PUSH2 0x3F92 JUMP JUMPDEST SWAP3 POP POP DUP2 SWAP1 SSTORE POP DUP2 PUSH1 0x2 PUSH1 0x0 DUP4 DUP2 MSTORE PUSH1 0x20 ADD SWAP1 DUP2 MSTORE PUSH1 0x20 ADD PUSH1 0x0 KECCAK256 PUSH1 0x0 PUSH2 0x100 EXP DUP2 SLOAD DUP2 PUSH20 0xFFFFFFFFFFFFFFFFFFFFFFFFFFFFFFFFFFFFFFFF MUL NOT AND SWAP1 DUP4 PUSH20 0xFFFFFFFFFFFFFFFFFFFFFFFFFFFFFFFFFFFFFFFF AND MUL OR SWAP1 SSTORE POP DUP1 DUP3 PUSH20 0xFFFFFFFFFFFFFFFFFFFFFFFFFFFFFFFFFFFFFFFF AND PUSH1 0x0 PUSH20 0xFFFFFFFFFFFFFFFFFFFFFFFFFFFFFFFFFFFFFFFF AND PUSH32 0xDDF252AD1BE2C89B69C2B068FC378DAA952BA7F163C4A11628F55A4DF523B3EF PUSH1 0x40 MLOAD PUSH1 0x40 MLOAD DUP1 SWAP2 SUB SWAP1 LOG4 PUSH2 0x2C14 PUSH1 0x0 DUP4 DUP4 PUSH2 0x2598 JUMP JUMPDEST POP POP JUMP JUMPDEST PUSH1 0x0 DUP1 DUP3 PUSH20 0xFFFFFFFFFFFFFFFFFFFFFFFFFFFFFFFFFFFFFFFF AND EXTCODESIZE GT SWAP1 POP SWAP2 SWAP1 POP JUMP JUMPDEST PUSH1 0x60 PUSH1 0x0 DUP3 SUB PUSH2 0x2C82 JUMPI PUSH1 0x40 MLOAD DUP1 PUSH1 0x40 ADD PUSH1 0x40 MSTORE DUP1 PUSH1 0x1 DUP2 MSTORE PUSH1 0x20 ADD PUSH32 0x3000000000000000000000000000000000000000000000000000000000000000 DUP2 MSTORE POP SWAP1 POP PUSH2 0x2D96 JUMP JUMPDEST PUSH1 0x0 DUP3 SWAP1 POP PUSH1 0x0 JUMPDEST PUSH1 0x0 DUP3 EQ PUSH2 0x2CB4 JUMPI DUP1 DUP1 PUSH2 0x2C9D SWAP1 PUSH2 0x4345 JUMP JUMPDEST SWAP2 POP POP PUSH1 0xA DUP3 PUSH2 0x2CAD SWAP2 SWAP1 PUSH2 0x4CA6 JUMP JUMPDEST SWAP2 POP PUSH2 0x2C8A JUMP JUMPDEST PUSH1 0x0 DUP2 PUSH8 0xFFFFFFFFFFFFFFFF DUP2 GT ISZERO PUSH2 0x2CD0 JUMPI PUSH2 0x2CCF PUSH2 0x33EB JUMP JUMPDEST JUMPDEST PUSH1 0x40 MLOAD SWAP1 DUP1 DUP3 MSTORE DUP1 PUSH1 0x1F ADD PUSH1 0x1F NOT AND PUSH1 0x20 ADD DUP3 ADD PUSH1 0x40 MSTORE DUP1 ISZERO PUSH2 0x2D02 JUMPI DUP2 PUSH1 0x20 ADD PUSH1 0x1 DUP3 MUL DUP1 CALLDATASIZE DUP4 CALLDATACOPY DUP1 DUP3 ADD SWAP2 POP POP SWAP1 POP JUMPDEST POP SWAP1 POP JUMPDEST PUSH1 0x0 DUP6 EQ PUSH2 0x2D8F JUMPI PUSH1 0x1 DUP3 PUSH2 0x2D1B SWAP2 SWAP1 PUSH2 0x3E60 JUMP JUMPDEST SWAP2 POP PUSH1 0xA DUP6 PUSH2 0x2D2A SWAP2 SWAP1 PUSH2 0x4314 JUMP JUMPDEST PUSH1 0x30 PUSH2 0x2D36 SWAP2 SWAP1 PUSH2 0x3F92 JUMP JUMPDEST PUSH1 0xF8 SHL DUP2 DUP4 DUP2 MLOAD DUP2 LT PUSH2 0x2D4C JUMPI PUSH2 0x2D4B PUSH2 0x3E02 JUMP JUMPDEST JUMPDEST PUSH1 0x20 ADD ADD SWAP1 PUSH31 0xFFFFFFFFFFFFFFFFFFFFFFFFFFFFFFFFFFFFFFFFFFFFFFFFFFFFFFFFFFFFFF NOT AND SWAP1 DUP2 PUSH1 0x0 BYTE SWAP1 MSTORE8 POP PUSH1 0xA DUP6 PUSH2 0x2D88 SWAP2 SWAP1 PUSH2 0x4CA6 JUMP JUMPDEST SWAP5 POP PUSH2 0x2D06 JUMP JUMPDEST DUP1 SWAP4 POP POP POP POP JUMPDEST SWAP2 SWAP1 POP JUMP JUMPDEST POP POP POP JUMP JUMPDEST PUSH1 0x8 DUP1 SLOAD SWAP1 POP PUSH1 0x9 PUSH1 0x0 DUP4 DUP2 MSTORE PUSH1 0x20 ADD SWAP1 DUP2 MSTORE PUSH1 0x20 ADD PUSH1 0x0 KECCAK256 DUP2 SWAP1 SSTORE POP PUSH1 0x8 DUP2 SWAP1 DUP1 PUSH1 0x1 DUP2 SLOAD ADD DUP1 DUP3 SSTORE DUP1 SWAP2 POP POP PUSH1 0x1 SWAP1 SUB SWAP1 PUSH1 0x0 MSTORE PUSH1 0x20 PUSH1 0x0 KECCAK256 ADD PUSH1 0x0 SWAP1 SWAP2 SWAP1 SWAP2 SWAP1 SWAP2 POP SSTORE POP JUMP JUMPDEST PUSH1 0x0 PUSH1 0x1 PUSH2 0x2DF6 DUP5 PUSH2 0xF10 JUMP JUMPDEST PUSH2 0x2E00 SWAP2 SWAP1 PUSH2 0x3E60 JUMP JUMPDEST SWAP1 POP PUSH1 0x0 PUSH1 0x7 PUSH1 0x0 DUP5 DUP2 MSTORE PUSH1 0x20 ADD SWAP1 DUP2 MSTORE PUSH1 0x20 ADD PUSH1 0x0 KECCAK256 SLOAD SWAP1 POP DUP2 DUP2 EQ PUSH2 0x2EE5 JUMPI PUSH1 0x0 PUSH1 0x6 PUSH1 0x0 DUP7 PUSH20 0xFFFFFFFFFFFFFFFFFFFFFFFFFFFFFFFFFFFFFFFF AND PUSH20 0xFFFFFFFFFFFFFFFFFFFFFFFFFFFFFFFFFFFFFFFF AND DUP2 MSTORE PUSH1 0x20 ADD SWAP1 DUP2 MSTORE PUSH1 0x20 ADD PUSH1 0x0 KECCAK256 PUSH1 0x0 DUP5 DUP2 MSTORE PUSH1 0x20 ADD SWAP1 DUP2 MSTORE PUSH1 0x20 ADD PUSH1 0x0 KECCAK256 SLOAD SWAP1 POP DUP1 PUSH1 0x6 PUSH1 0x0 DUP8 PUSH20 0xFFFFFFFFFFFFFFFFFFFFFFFFFFFFFFFFFFFFFFFF AND PUSH20 0xFFFFFFFFFFFFFFFFFFFFFFFFFFFFFFFFFFFFFFFF AND DUP2 MSTORE PUSH1 0x20 ADD SWAP1 DUP2 MSTORE PUSH1 0x20 ADD PUSH1 0x0 KECCAK256 PUSH1 0x0 DUP5 DUP2 MSTORE PUSH1 0x20 ADD SWAP1 DUP2 MSTORE PUSH1 0x20 ADD PUSH1 0x0 KECCAK256 DUP2 SWAP1 SSTORE POP DUP2 PUSH1 0x7 PUSH1 0x0 DUP4 DUP2 MSTORE PUSH1 0x20 ADD SWAP1 DUP2 MSTORE PUSH1 0x20 ADD PUSH1 0x0 KECCAK256 DUP2 SWAP1 SSTORE POP POP JUMPDEST PUSH1 0x7 PUSH1 0x0 DUP5 DUP2 MSTORE PUSH1 0x20 ADD SWAP1 DUP2 MSTORE PUSH1 0x20 ADD PUSH1 0x0 KECCAK256 PUSH1 0x0 SWAP1 SSTORE PUSH1 0x6 PUSH1 0x0 DUP6 PUSH20 0xFFFFFFFFFFFFFFFFFFFFFFFFFFFFFFFFFFFFFFFF AND PUSH20 0xFFFFFFFFFFFFFFFFFFFFFFFFFFFFFFFFFFFFFFFF AND DUP2 MSTORE PUSH1 0x20 ADD SWAP1 DUP2 MSTORE PUSH1 0x20 ADD PUSH1 0x0 KECCAK256 PUSH1 0x0 DUP4 DUP2 MSTORE PUSH1 0x20 ADD SWAP1 DUP2 MSTORE PUSH1 0x20 ADD PUSH1 0x0 KECCAK256 PUSH1 0x0 SWAP1 SSTORE POP POP POP POP JUMP JUMPDEST PUSH1 0x0 PUSH1 0x1 PUSH1 0x8 DUP1 SLOAD SWAP1 POP PUSH2 0x2F6A SWAP2 SWAP1 PUSH2 0x3E60 JUMP JUMPDEST SWAP1 POP PUSH1 0x0 PUSH1 0x9 PUSH1 0x0 DUP5 DUP2 MSTORE PUSH1 0x20 ADD SWAP1 DUP2 MSTORE PUSH1 0x20 ADD PUSH1 0x0 KECCAK256 SLOAD SWAP1 POP PUSH1 0x0 PUSH1 0x8 DUP4 DUP2 SLOAD DUP2 LT PUSH2 0x2F9A JUMPI PUSH2 0x2F99 PUSH2 0x3E02 JUMP JUMPDEST JUMPDEST SWAP1 PUSH1 0x0 MSTORE PUSH1 0x20 PUSH1 0x0 KECCAK256 ADD SLOAD SWAP1 POP DUP1 PUSH1 0x8 DUP4 DUP2 SLOAD DUP2 LT PUSH2 0x2FBC JUMPI PUSH2 0x2FBB PUSH2 0x3E02 JUMP JUMPDEST JUMPDEST SWAP1 PUSH1 0x0 MSTORE PUSH1 0x20 PUSH1 0x0 KECCAK256 ADD DUP2 SWAP1 SSTORE POP DUP2 PUSH1 0x9 PUSH1 0x0 DUP4 DUP2 MSTORE PUSH1 0x20 ADD SWAP1 DUP2 MSTORE PUSH1 0x20 ADD PUSH1 0x0 KECCAK256 DUP2 SWAP1 SSTORE POP PUSH1 0x9 PUSH1 0x0 DUP6 DUP2 MSTORE PUSH1 0x20 ADD SWAP1 DUP2 MSTORE PUSH1 0x20 ADD PUSH1 0x0 KECCAK256 PUSH1 0x0 SWAP1 SSTORE PUSH1 0x8 DUP1 SLOAD DUP1 PUSH2 0x300B JUMPI PUSH2 0x300A PUSH2 0x4CD7 JUMP JUMPDEST JUMPDEST PUSH1 0x1 SWAP1 SUB DUP2 DUP2 SWAP1 PUSH1 0x0 MSTORE PUSH1 0x20 PUSH1 0x0 KECCAK256 ADD PUSH1 0x0 SWAP1 SSTORE SWAP1 SSTORE POP POP POP POP JUMP JUMPDEST PUSH1 0x0 PUSH2 0x3032 DUP4 PUSH2 0xF10 JUMP JUMPDEST SWAP1 POP DUP2 PUSH1 0x6 PUSH1 0x0 DUP6 PUSH20 0xFFFFFFFFFFFFFFFFFFFFFFFFFFFFFFFFFFFFFFFF AND PUSH20 0xFFFFFFFFFFFFFFFFFFFFFFFFFFFFFFFFFFFFFFFF AND DUP2 MSTORE PUSH1 0x20 ADD SWAP1 DUP2 MSTORE PUSH1 0x20 ADD PUSH1 0x0 KECCAK256 PUSH1 0x0 DUP4 DUP2 MSTORE PUSH1 0x20 ADD SWAP1 DUP2 MSTORE PUSH1 0x20 ADD PUSH1 0x0 KECCAK256 DUP2 SWAP1 SSTORE POP DUP1 PUSH1 0x7 PUSH1 0x0 DUP5 DUP2 MSTORE PUSH1 0x20 ADD SWAP1 DUP2 MSTORE PUSH1 0x20 ADD PUSH1 0x0 KECCAK256 DUP2 SWAP1 SSTORE POP POP POP POP JUMP JUMPDEST DUP3 DUP1 SLOAD DUP3 DUP3 SSTORE SWAP1 PUSH1 0x0 MSTORE PUSH1 0x20 PUSH1 0x0 KECCAK256 SWAP1 DUP2 ADD SWAP3 DUP3 ISZERO PUSH2 0x30E2 JUMPI SWAP2 PUSH1 0x20 MUL DUP3 ADD JUMPDEST DUP3 DUP2 GT ISZERO PUSH2 0x30E1 JUMPI DUP3 MLOAD DUP3 SSTORE SWAP2 PUSH1 0x20 ADD SWAP2 SWAP1 PUSH1 0x1 ADD SWAP1 PUSH2 0x30C6 JUMP JUMPDEST JUMPDEST POP SWAP1 POP PUSH2 0x30EF SWAP2 SWAP1 PUSH2 0x30F3 JUMP JUMPDEST POP SWAP1 JUMP JUMPDEST JUMPDEST DUP1 DUP3 GT ISZERO PUSH2 0x310C JUMPI PUSH1 0x0 DUP2 PUSH1 0x0 SWAP1 SSTORE POP PUSH1 0x1 ADD PUSH2 0x30F4 JUMP JUMPDEST POP SWAP1 JUMP JUMPDEST PUSH1 0x0 DUP2 SWAP1 POP SWAP2 SWAP1 POP JUMP JUMPDEST PUSH2 0x3123 DUP2 PUSH2 0x3110 JUMP JUMPDEST DUP3 MSTORE POP POP JUMP JUMPDEST PUSH1 0x0 PUSH1 0x20 DUP3 ADD SWAP1 POP PUSH2 0x313E PUSH1 0x0 DUP4 ADD DUP5 PUSH2 0x311A JUMP JUMPDEST SWAP3 SWAP2 POP POP JUMP JUMPDEST PUSH1 0x0 PUSH1 0x40 MLOAD SWAP1 POP SWAP1 JUMP JUMPDEST PUSH1 0x0 DUP1 REVERT JUMPDEST PUSH1 0x0 DUP1 REVERT JUMPDEST PUSH1 0x0 PUSH32 0xFFFFFFFF00000000000000000000000000000000000000000000000000000000 DUP3 AND SWAP1 POP SWAP2 SWAP1 POP JUMP JUMPDEST PUSH2 0x318D DUP2 PUSH2 0x3158 JUMP JUMPDEST DUP2 EQ PUSH2 0x3198 JUMPI PUSH1 0x0 DUP1 REVERT JUMPDEST POP JUMP JUMPDEST PUSH1 0x0 DUP2 CALLDATALOAD SWAP1 POP PUSH2 0x31AA DUP2 PUSH2 0x3184 JUMP JUMPDEST SWAP3 SWAP2 POP POP JUMP JUMPDEST PUSH1 0x0 PUSH1 0x20 DUP3 DUP5 SUB SLT ISZERO PUSH2 0x31C6 JUMPI PUSH2 0x31C5 PUSH2 0x314E JUMP JUMPDEST JUMPDEST PUSH1 0x0 PUSH2 0x31D4 DUP5 DUP3 DUP6 ADD PUSH2 0x319B JUMP JUMPDEST SWAP2 POP POP SWAP3 SWAP2 POP POP JUMP JUMPDEST PUSH1 0x0 DUP2 ISZERO ISZERO SWAP1 POP SWAP2 SWAP1 POP JUMP JUMPDEST PUSH2 0x31F2 DUP2 PUSH2 0x31DD JUMP JUMPDEST DUP3 MSTORE POP POP JUMP JUMPDEST PUSH1 0x0 PUSH1 0x20 DUP3 ADD SWAP1 POP PUSH2 0x320D PUSH1 0x0 DUP4 ADD DUP5 PUSH2 0x31E9 JUMP JUMPDEST SWAP3 SWAP2 POP POP JUMP JUMPDEST PUSH1 0x0 DUP2 MLOAD SWAP1 POP SWAP2 SWAP1 POP JUMP JUMPDEST PUSH1 0x0 DUP3 DUP3 MSTORE PUSH1 0x20 DUP3 ADD SWAP1 POP SWAP3 SWAP2 POP POP JUMP JUMPDEST PUSH1 0x0 JUMPDEST DUP4 DUP2 LT ISZERO PUSH2 0x324D JUMPI DUP1 DUP3 ADD MLOAD DUP2 DUP5 ADD MSTORE PUSH1 0x20 DUP2 ADD SWAP1 POP PUSH2 0x3232 JUMP JUMPDEST PUSH1 0x0 DUP5 DUP5 ADD MSTORE POP POP POP POP JUMP JUMPDEST PUSH1 0x0 PUSH1 0x1F NOT PUSH1 0x1F DUP4 ADD AND SWAP1 POP SWAP2 SWAP1 POP JUMP JUMPDEST PUSH1 0x0 PUSH2 0x3275 DUP3 PUSH2 0x3213 JUMP JUMPDEST PUSH2 0x327F DUP2 DUP6 PUSH2 0x321E JUMP JUMPDEST SWAP4 POP PUSH2 0x328F DUP2 DUP6 PUSH1 0x20 DUP7 ADD PUSH2 0x322F JUMP JUMPDEST PUSH2 0x3298 DUP2 PUSH2 0x3259 JUMP JUMPDEST DUP5 ADD SWAP2 POP POP SWAP3 SWAP2 POP POP JUMP JUMPDEST PUSH1 0x0 PUSH1 0x20 DUP3 ADD SWAP1 POP DUP2 DUP2 SUB PUSH1 0x0 DUP4 ADD MSTORE PUSH2 0x32BD DUP2 DUP5 PUSH2 0x326A JUMP JUMPDEST SWAP1 POP SWAP3 SWAP2 POP POP JUMP JUMPDEST PUSH2 0x32CE DUP2 PUSH2 0x3110 JUMP JUMPDEST DUP2 EQ PUSH2 0x32D9 JUMPI PUSH1 0x0 DUP1 REVERT JUMPDEST POP JUMP JUMPDEST PUSH1 0x0 DUP2 CALLDATALOAD SWAP1 POP PUSH2 0x32EB DUP2 PUSH2 0x32C5 JUMP JUMPDEST SWAP3 SWAP2 POP POP JUMP JUMPDEST PUSH1 0x0 PUSH1 0x20 DUP3 DUP5 SUB SLT ISZERO PUSH2 0x3307 JUMPI PUSH2 0x3306 PUSH2 0x314E JUMP JUMPDEST JUMPDEST PUSH1 0x0 PUSH2 0x3315 DUP5 DUP3 DUP6 ADD PUSH2 0x32DC JUMP JUMPDEST SWAP2 POP POP SWAP3 SWAP2 POP POP JUMP JUMPDEST PUSH1 0x0 PUSH20 0xFFFFFFFFFFFFFFFFFFFFFFFFFFFFFFFFFFFFFFFF DUP3 AND SWAP1 POP SWAP2 SWAP1 POP JUMP JUMPDEST PUSH1 0x0 PUSH2 0x3349 DUP3 PUSH2 0x331E JUMP JUMPDEST SWAP1 POP SWAP2 SWAP1 POP JUMP JUMPDEST PUSH2 0x3359 DUP2 PUSH2 0x333E JUMP JUMPDEST DUP3 MSTORE POP POP JUMP JUMPDEST PUSH1 0x0 PUSH1 0x20 DUP3 ADD SWAP1 POP PUSH2 0x3374 PUSH1 0x0 DUP4 ADD DUP5 PUSH2 0x3350 JUMP JUMPDEST SWAP3 SWAP2 POP POP JUMP JUMPDEST PUSH2 0x3383 DUP2 PUSH2 0x333E JUMP JUMPDEST DUP2 EQ PUSH2 0x338E JUMPI PUSH1 0x0 DUP1 REVERT JUMPDEST POP JUMP JUMPDEST PUSH1 0x0 DUP2 CALLDATALOAD SWAP1 POP PUSH2 0x33A0 DUP2 PUSH2 0x337A JUMP JUMPDEST SWAP3 SWAP2 POP POP JUMP JUMPDEST PUSH1 0x0 DUP1 PUSH1 0x40 DUP4 DUP6 SUB SLT ISZERO PUSH2 0x33BD JUMPI PUSH2 0x33BC PUSH2 0x314E JUMP JUMPDEST JUMPDEST PUSH1 0x0 PUSH2 0x33CB DUP6 DUP3 DUP7 ADD PUSH2 0x3391 JUMP JUMPDEST SWAP3 POP POP PUSH1 0x20 PUSH2 0x33DC DUP6 DUP3 DUP7 ADD PUSH2 0x32DC JUMP JUMPDEST SWAP2 POP POP SWAP3 POP SWAP3 SWAP1 POP JUMP JUMPDEST PUSH1 0x0 DUP1 REVERT JUMPDEST PUSH32 0x4E487B7100000000000000000000000000000000000000000000000000000000 PUSH1 0x0 MSTORE PUSH1 0x41 PUSH1 0x4 MSTORE PUSH1 0x24 PUSH1 0x0 REVERT JUMPDEST PUSH2 0x3423 DUP3 PUSH2 0x3259 JUMP JUMPDEST DUP2 ADD DUP2 DUP2 LT PUSH8 0xFFFFFFFFFFFFFFFF DUP3 GT OR ISZERO PUSH2 0x3442 JUMPI PUSH2 0x3441 PUSH2 0x33EB JUMP JUMPDEST JUMPDEST DUP1 PUSH1 0x40 MSTORE POP POP POP JUMP JUMPDEST PUSH1 0x0 PUSH2 0x3455 PUSH2 0x3144 JUMP JUMPDEST SWAP1 POP PUSH2 0x3461 DUP3 DUP3 PUSH2 0x341A JUMP JUMPDEST SWAP2 SWAP1 POP JUMP JUMPDEST PUSH1 0x0 PUSH8 0xFFFFFFFFFFFFFFFF DUP3 GT ISZERO PUSH2 0x3481 JUMPI PUSH2 0x3480 PUSH2 0x33EB JUMP JUMPDEST JUMPDEST PUSH1 0x20 DUP3 MUL SWAP1 POP PUSH1 0x20 DUP2 ADD SWAP1 POP SWAP2 SWAP1 POP JUMP JUMPDEST PUSH1 0x0 DUP1 REVERT JUMPDEST PUSH1 0x0 PUSH2 0x34AA PUSH2 0x34A5 DUP5 PUSH2 0x3466 JUMP JUMPDEST PUSH2 0x344B JUMP JUMPDEST SWAP1 POP DUP1 DUP4 DUP3 MSTORE PUSH1 0x20 DUP3 ADD SWAP1 POP PUSH1 0x20 DUP5 MUL DUP4 ADD DUP6 DUP2 GT ISZERO PUSH2 0x34CD JUMPI PUSH2 0x34CC PUSH2 0x3492 JUMP JUMPDEST JUMPDEST DUP4 JUMPDEST DUP2 DUP2 LT ISZERO PUSH2 0x34F6 JUMPI DUP1 PUSH2 0x34E2 DUP9 DUP3 PUSH2 0x32DC JUMP JUMPDEST DUP5 MSTORE PUSH1 0x20 DUP5 ADD SWAP4 POP POP PUSH1 0x20 DUP2 ADD SWAP1 POP PUSH2 0x34CF JUMP JUMPDEST POP POP POP SWAP4 SWAP3 POP POP POP JUMP JUMPDEST PUSH1 0x0 DUP3 PUSH1 0x1F DUP4 ADD SLT PUSH2 0x3515 JUMPI PUSH2 0x3514 PUSH2 0x33E6 JUMP JUMPDEST JUMPDEST DUP2 CALLDATALOAD PUSH2 0x3525 DUP5 DUP3 PUSH1 0x20 DUP7 ADD PUSH2 0x3497 JUMP JUMPDEST SWAP2 POP POP SWAP3 SWAP2 POP POP JUMP JUMPDEST PUSH1 0x0 DUP1 PUSH1 0x40 DUP4 DUP6 SUB SLT ISZERO PUSH2 0x3545 JUMPI PUSH2 0x3544 PUSH2 0x314E JUMP JUMPDEST JUMPDEST PUSH1 0x0 PUSH2 0x3553 DUP6 DUP3 DUP7 ADD PUSH2 0x32DC JUMP JUMPDEST SWAP3 POP POP PUSH1 0x20 DUP4 ADD CALLDATALOAD PUSH8 0xFFFFFFFFFFFFFFFF DUP2 GT ISZERO PUSH2 0x3574 JUMPI PUSH2 0x3573 PUSH2 0x3153 JUMP JUMPDEST JUMPDEST PUSH2 0x3580 DUP6 DUP3 DUP7 ADD PUSH2 0x3500 JUMP JUMPDEST SWAP2 POP POP SWAP3 POP SWAP3 SWAP1 POP JUMP JUMPDEST PUSH1 0x0 DUP1 PUSH1 0x0 PUSH1 0x60 DUP5 DUP7 SUB SLT ISZERO PUSH2 0x35A3 JUMPI PUSH2 0x35A2 PUSH2 0x314E JUMP JUMPDEST JUMPDEST PUSH1 0x0 PUSH2 0x35B1 DUP7 DUP3 DUP8 ADD PUSH2 0x3391 JUMP JUMPDEST SWAP4 POP POP PUSH1 0x20 PUSH2 0x35C2 DUP7 DUP3 DUP8 ADD PUSH2 0x3391 JUMP JUMPDEST SWAP3 POP POP PUSH1 0x40 PUSH2 0x35D3 DUP7 DUP3 DUP8 ADD PUSH2 0x32DC JUMP JUMPDEST SWAP2 POP POP SWAP3 POP SWAP3 POP SWAP3 JUMP JUMPDEST PUSH1 0x0 PUSH1 0x20 DUP3 DUP5 SUB SLT ISZERO PUSH2 0x35F3 JUMPI PUSH2 0x35F2 PUSH2 0x314E JUMP JUMPDEST JUMPDEST PUSH1 0x0 PUSH2 0x3601 DUP5 DUP3 DUP6 ADD PUSH2 0x3391 JUMP JUMPDEST SWAP2 POP POP SWAP3 SWAP2 POP POP JUMP JUMPDEST PUSH1 0x0 DUP1 REVERT JUMPDEST PUSH1 0x0 DUP1 DUP4 PUSH1 0x1F DUP5 ADD SLT PUSH2 0x3625 JUMPI PUSH2 0x3624 PUSH2 0x33E6 JUMP JUMPDEST JUMPDEST DUP3 CALLDATALOAD SWAP1 POP PUSH8 0xFFFFFFFFFFFFFFFF DUP2 GT ISZERO PUSH2 0x3642 JUMPI PUSH2 0x3641 PUSH2 0x360A JUMP JUMPDEST JUMPDEST PUSH1 0x20 DUP4 ADD SWAP2 POP DUP4 PUSH1 0x1 DUP3 MUL DUP4 ADD GT ISZERO PUSH2 0x365E JUMPI PUSH2 0x365D PUSH2 0x3492 JUMP JUMPDEST JUMPDEST SWAP3 POP SWAP3 SWAP1 POP JUMP JUMPDEST PUSH1 0x0 DUP1 PUSH1 0x20 DUP4 DUP6 SUB SLT ISZERO PUSH2 0x367C JUMPI PUSH2 0x367B PUSH2 0x314E JUMP JUMPDEST JUMPDEST PUSH1 0x0 DUP4 ADD CALLDATALOAD PUSH8 0xFFFFFFFFFFFFFFFF DUP2 GT ISZERO PUSH2 0x369A JUMPI PUSH2 0x3699 PUSH2 0x3153 JUMP JUMPDEST JUMPDEST PUSH2 0x36A6 DUP6 DUP3 DUP7 ADD PUSH2 0x360F JUMP JUMPDEST SWAP3 POP SWAP3 POP POP SWAP3 POP SWAP3 SWAP1 POP JUMP JUMPDEST PUSH1 0x0 DUP2 SWAP1 POP SWAP2 SWAP1 POP JUMP JUMPDEST PUSH1 0x0 PUSH2 0x36D7 PUSH2 0x36D2 PUSH2 0x36CD DUP5 PUSH2 0x331E JUMP JUMPDEST PUSH2 0x36B2 JUMP JUMPDEST PUSH2 0x331E JUMP JUMPDEST SWAP1 POP SWAP2 SWAP1 POP JUMP JUMPDEST PUSH1 0x0 PUSH2 0x36E9 DUP3 PUSH2 0x36BC JUMP JUMPDEST SWAP1 POP SWAP2 SWAP1 POP JUMP JUMPDEST PUSH1 0x0 PUSH2 0x36FB DUP3 PUSH2 0x36DE JUMP JUMPDEST SWAP1 POP SWAP2 SWAP1 POP JUMP JUMPDEST PUSH2 0x370B DUP2 PUSH2 0x36F0 JUMP JUMPDEST DUP3 MSTORE POP POP JUMP JUMPDEST PUSH1 0x0 PUSH1 0x20 DUP3 ADD SWAP1 POP PUSH2 0x3726 PUSH1 0x0 DUP4 ADD DUP5 PUSH2 0x3702 JUMP JUMPDEST SWAP3 SWAP2 POP POP JUMP JUMPDEST PUSH1 0x0 DUP2 MLOAD SWAP1 POP SWAP2 SWAP1 POP JUMP JUMPDEST PUSH1 0x0 DUP3 DUP3 MSTORE PUSH1 0x20 DUP3 ADD SWAP1 POP SWAP3 SWAP2 POP POP JUMP JUMPDEST PUSH1 0x0 PUSH2 0x3753 DUP3 PUSH2 0x372C JUMP JUMPDEST PUSH2 0x375D DUP2 DUP6 PUSH2 0x3737 JUMP JUMPDEST SWAP4 POP PUSH2 0x376D DUP2 DUP6 PUSH1 0x20 DUP7 ADD PUSH2 0x322F JUMP JUMPDEST PUSH2 0x3776 DUP2 PUSH2 0x3259 JUMP JUMPDEST DUP5 ADD SWAP2 POP POP SWAP3 SWAP2 POP POP JUMP JUMPDEST PUSH1 0x0 PUSH1 0x40 DUP3 ADD SWAP1 POP PUSH2 0x3796 PUSH1 0x0 DUP4 ADD DUP6 PUSH2 0x31E9 JUMP JUMPDEST DUP2 DUP2 SUB PUSH1 0x20 DUP4 ADD MSTORE PUSH2 0x37A8 DUP2 DUP5 PUSH2 0x3748 JUMP JUMPDEST SWAP1 POP SWAP4 SWAP3 POP POP POP JUMP JUMPDEST PUSH1 0x0 DUP2 SWAP1 POP SWAP2 SWAP1 POP JUMP JUMPDEST PUSH2 0x37C4 DUP2 PUSH2 0x37B1 JUMP JUMPDEST DUP3 MSTORE POP POP JUMP JUMPDEST PUSH1 0x0 PUSH1 0x20 DUP3 ADD SWAP1 POP PUSH2 0x37DF PUSH1 0x0 DUP4 ADD DUP5 PUSH2 0x37BB JUMP JUMPDEST SWAP3 SWAP2 POP POP JUMP JUMPDEST PUSH2 0x37EE DUP2 PUSH2 0x31DD JUMP JUMPDEST DUP2 EQ PUSH2 0x37F9 JUMPI PUSH1 0x0 DUP1 REVERT JUMPDEST POP JUMP JUMPDEST PUSH1 0x0 DUP2 CALLDATALOAD SWAP1 POP PUSH2 0x380B DUP2 PUSH2 0x37E5 JUMP JUMPDEST SWAP3 SWAP2 POP POP JUMP JUMPDEST PUSH1 0x0 DUP1 PUSH1 0x40 DUP4 DUP6 SUB SLT ISZERO PUSH2 0x3828 JUMPI PUSH2 0x3827 PUSH2 0x314E JUMP JUMPDEST JUMPDEST PUSH1 0x0 PUSH2 0x3836 DUP6 DUP3 DUP7 ADD PUSH2 0x3391 JUMP JUMPDEST SWAP3 POP POP PUSH1 0x20 PUSH2 0x3847 DUP6 DUP3 DUP7 ADD PUSH2 0x37FC JUMP JUMPDEST SWAP2 POP POP SWAP3 POP SWAP3 SWAP1 POP JUMP JUMPDEST PUSH1 0x0 PUSH4 0xFFFFFFFF DUP3 AND SWAP1 POP SWAP2 SWAP1 POP JUMP JUMPDEST PUSH2 0x386A DUP2 PUSH2 0x3851 JUMP JUMPDEST DUP2 EQ PUSH2 0x3875 JUMPI PUSH1 0x0 DUP1 REVERT JUMPDEST POP JUMP JUMPDEST PUSH1 0x0 DUP2 CALLDATALOAD SWAP1 POP PUSH2 0x3887 DUP2 PUSH2 0x3861 JUMP JUMPDEST SWAP3 SWAP2 POP POP JUMP JUMPDEST PUSH1 0x0 PUSH1 0x20 DUP3 DUP5 SUB SLT ISZERO PUSH2 0x38A3 JUMPI PUSH2 0x38A2 PUSH2 0x314E JUMP JUMPDEST JUMPDEST PUSH1 0x0 PUSH2 0x38B1 DUP5 DUP3 DUP6 ADD PUSH2 0x3878 JUMP JUMPDEST SWAP2 POP POP SWAP3 SWAP2 POP POP JUMP JUMPDEST PUSH1 0x0 DUP1 REVERT JUMPDEST PUSH1 0x0 PUSH8 0xFFFFFFFFFFFFFFFF DUP3 GT ISZERO PUSH2 0x38DA JUMPI PUSH2 0x38D9 PUSH2 0x33EB JUMP JUMPDEST JUMPDEST PUSH2 0x38E3 DUP3 PUSH2 0x3259 JUMP JUMPDEST SWAP1 POP PUSH1 0x20 DUP2 ADD SWAP1 POP SWAP2 SWAP1 POP JUMP JUMPDEST DUP3 DUP2 DUP4 CALLDATACOPY PUSH1 0x0 DUP4 DUP4 ADD MSTORE POP POP POP JUMP JUMPDEST PUSH1 0x0 PUSH2 0x3912 PUSH2 0x390D DUP5 PUSH2 0x38BF JUMP JUMPDEST PUSH2 0x344B JUMP JUMPDEST SWAP1 POP DUP3 DUP2 MSTORE PUSH1 0x20 DUP2 ADD DUP5 DUP5 DUP5 ADD GT ISZERO PUSH2 0x392E JUMPI PUSH2 0x392D PUSH2 0x38BA JUMP JUMPDEST JUMPDEST PUSH2 0x3939 DUP5 DUP3 DUP6 PUSH2 0x38F0 JUMP JUMPDEST POP SWAP4 SWAP3 POP POP POP JUMP JUMPDEST PUSH1 0x0 DUP3 PUSH1 0x1F DUP4 ADD SLT PUSH2 0x3956 JUMPI PUSH2 0x3955 PUSH2 0x33E6 JUMP JUMPDEST JUMPDEST DUP2 CALLDATALOAD PUSH2 0x3966 DUP5 DUP3 PUSH1 0x20 DUP7 ADD PUSH2 0x38FF JUMP JUMPDEST SWAP2 POP POP SWAP3 SWAP2 POP POP JUMP JUMPDEST PUSH1 0x0 DUP1 PUSH1 0x0 DUP1 PUSH1 0x80 DUP6 DUP8 SUB SLT ISZERO PUSH2 0x3989 JUMPI PUSH2 0x3988 PUSH2 0x314E JUMP JUMPDEST JUMPDEST PUSH1 0x0 PUSH2 0x3997 DUP8 DUP3 DUP9 ADD PUSH2 0x3391 JUMP JUMPDEST SWAP5 POP POP PUSH1 0x20 PUSH2 0x39A8 DUP8 DUP3 DUP9 ADD PUSH2 0x3391 JUMP JUMPDEST SWAP4 POP POP PUSH1 0x40 PUSH2 0x39B9 DUP8 DUP3 DUP9 ADD PUSH2 0x32DC JUMP JUMPDEST SWAP3 POP POP PUSH1 0x60 DUP6 ADD CALLDATALOAD PUSH8 0xFFFFFFFFFFFFFFFF DUP2 GT ISZERO PUSH2 0x39DA JUMPI PUSH2 0x39D9 PUSH2 0x3153 JUMP JUMPDEST JUMPDEST PUSH2 0x39E6 DUP8 DUP3 DUP9 ADD PUSH2 0x3941 JUMP JUMPDEST SWAP2 POP POP SWAP3 SWAP6 SWAP2 SWAP5 POP SWAP3 POP JUMP JUMPDEST PUSH1 0x0 DUP1 PUSH1 0x40 DUP4 DUP6 SUB SLT ISZERO PUSH2 0x3A09 JUMPI PUSH2 0x3A08 PUSH2 0x314E JUMP JUMPDEST JUMPDEST PUSH1 0x0 PUSH2 0x3A17 DUP6 DUP3 DUP7 ADD PUSH2 0x3391 JUMP JUMPDEST SWAP3 POP POP PUSH1 0x20 PUSH2 0x3A28 DUP6 DUP3 DUP7 ADD PUSH2 0x3391 JUMP JUMPDEST SWAP2 POP POP SWAP3 POP SWAP3 SWAP1 POP JUMP JUMPDEST PUSH1 0x0 PUSH8 0xFFFFFFFFFFFFFFFF DUP3 AND SWAP1 POP SWAP2 SWAP1 POP JUMP JUMPDEST PUSH2 0x3A4F DUP2 PUSH2 0x3A32 JUMP JUMPDEST DUP2 EQ PUSH2 0x3A5A JUMPI PUSH1 0x0 DUP1 REVERT JUMPDEST POP JUMP JUMPDEST PUSH1 0x0 DUP2 CALLDATALOAD SWAP1 POP PUSH2 0x3A6C DUP2 PUSH2 0x3A46 JUMP JUMPDEST SWAP3 SWAP2 POP POP JUMP JUMPDEST PUSH1 0x0 PUSH1 0x20 DUP3 DUP5 SUB SLT ISZERO PUSH2 0x3A88 JUMPI PUSH2 0x3A87 PUSH2 0x314E JUMP JUMPDEST JUMPDEST PUSH1 0x0 PUSH2 0x3A96 DUP5 DUP3 DUP6 ADD PUSH2 0x3A5D JUMP JUMPDEST SWAP2 POP POP SWAP3 SWAP2 POP POP JUMP JUMPDEST PUSH32 0x4E487B7100000000000000000000000000000000000000000000000000000000 PUSH1 0x0 MSTORE PUSH1 0x21 PUSH1 0x4 MSTORE PUSH1 0x24 PUSH1 0x0 REVERT JUMPDEST PUSH1 0x2 DUP2 LT PUSH2 0x3ADF JUMPI PUSH2 0x3ADE PUSH2 0x3A9F JUMP JUMPDEST JUMPDEST POP JUMP JUMPDEST PUSH1 0x0 DUP2 SWAP1 POP PUSH2 0x3AF0 DUP3 PUSH2 0x3ACE JUMP JUMPDEST SWAP2 SWAP1 POP JUMP JUMPDEST PUSH1 0x0 PUSH2 0x3B00 DUP3 PUSH2 0x3AE2 JUMP JUMPDEST SWAP1 POP SWAP2 SWAP1 POP JUMP JUMPDEST PUSH2 0x3B10 DUP2 PUSH2 0x3AF5 JUMP JUMPDEST DUP3 MSTORE POP POP JUMP JUMPDEST PUSH1 0x0 PUSH1 0x20 DUP3 ADD SWAP1 POP PUSH2 0x3B2B PUSH1 0x0 DUP4 ADD DUP5 PUSH2 0x3B07 JUMP JUMPDEST SWAP3 SWAP2 POP POP JUMP JUMPDEST PUSH32 0x4E487B7100000000000000000000000000000000000000000000000000000000 PUSH1 0x0 MSTORE PUSH1 0x22 PUSH1 0x4 MSTORE PUSH1 0x24 PUSH1 0x0 REVERT JUMPDEST PUSH1 0x0 PUSH1 0x2 DUP3 DIV SWAP1 POP PUSH1 0x1 DUP3 AND DUP1 PUSH2 0x3B78 JUMPI PUSH1 0x7F DUP3 AND SWAP2 POP JUMPDEST PUSH1 0x20 DUP3 LT DUP2 SUB PUSH2 0x3B8B JUMPI PUSH2 0x3B8A PUSH2 0x3B31 JUMP JUMPDEST JUMPDEST POP SWAP2 SWAP1 POP JUMP JUMPDEST PUSH32 0x4552433732313A20617070726F76616C20746F2063757272656E74206F776E65 PUSH1 0x0 DUP3 ADD MSTORE PUSH32 0x7200000000000000000000000000000000000000000000000000000000000000 PUSH1 0x20 DUP3 ADD MSTORE POP JUMP JUMPDEST PUSH1 0x0 PUSH2 0x3BED PUSH1 0x21 DUP4 PUSH2 0x321E JUMP JUMPDEST SWAP2 POP PUSH2 0x3BF8 DUP3 PUSH2 0x3B91 JUMP JUMPDEST PUSH1 0x40 DUP3 ADD SWAP1 POP SWAP2 SWAP1 POP JUMP JUMPDEST PUSH1 0x0 PUSH1 0x20 DUP3 ADD SWAP1 POP DUP2 DUP2 SUB PUSH1 0x0 DUP4 ADD MSTORE PUSH2 0x3C1C DUP2 PUSH2 0x3BE0 JUMP JUMPDEST SWAP1 POP SWAP2 SWAP1 POP JUMP JUMPDEST PUSH32 0x4552433732313A20617070726F76652063616C6C6572206973206E6F7420746F PUSH1 0x0 DUP3 ADD MSTORE PUSH32 0x6B656E206F776E6572206E6F7220617070726F76656420666F7220616C6C0000 PUSH1 0x20 DUP3 ADD MSTORE POP JUMP JUMPDEST PUSH1 0x0 PUSH2 0x3C7F PUSH1 0x3E DUP4 PUSH2 0x321E JUMP JUMPDEST SWAP2 POP PUSH2 0x3C8A DUP3 PUSH2 0x3C23 JUMP JUMPDEST PUSH1 0x40 DUP3 ADD SWAP1 POP SWAP2 SWAP1 POP JUMP JUMPDEST PUSH1 0x0 PUSH1 0x20 DUP3 ADD SWAP1 POP DUP2 DUP2 SUB PUSH1 0x0 DUP4 ADD MSTORE PUSH2 0x3CAE DUP2 PUSH2 0x3C72 JUMP JUMPDEST SWAP1 POP SWAP2 SWAP1 POP JUMP JUMPDEST PUSH1 0x0 PUSH1 0x40 DUP3 ADD SWAP1 POP PUSH2 0x3CCA PUSH1 0x0 DUP4 ADD DUP6 PUSH2 0x3350 JUMP JUMPDEST PUSH2 0x3CD7 PUSH1 0x20 DUP4 ADD DUP5 PUSH2 0x3350 JUMP JUMPDEST SWAP4 SWAP3 POP POP POP JUMP JUMPDEST PUSH32 0x4552433732313A2063616C6C6572206973206E6F7420746F6B656E206F776E65 PUSH1 0x0 DUP3 ADD MSTORE PUSH32 0x72206E6F7220617070726F766564000000000000000000000000000000000000 PUSH1 0x20 DUP3 ADD MSTORE POP JUMP JUMPDEST PUSH1 0x0 PUSH2 0x3D3A PUSH1 0x2E DUP4 PUSH2 0x321E JUMP JUMPDEST SWAP2 POP PUSH2 0x3D45 DUP3 PUSH2 0x3CDE JUMP JUMPDEST PUSH1 0x40 DUP3 ADD SWAP1 POP SWAP2 SWAP1 POP JUMP JUMPDEST PUSH1 0x0 PUSH1 0x20 DUP3 ADD SWAP1 POP DUP2 DUP2 SUB PUSH1 0x0 DUP4 ADD MSTORE PUSH2 0x3D69 DUP2 PUSH2 0x3D2D JUMP JUMPDEST SWAP1 POP SWAP2 SWAP1 POP JUMP JUMPDEST PUSH32 0x455243373231456E756D657261626C653A206F776E657220696E646578206F75 PUSH1 0x0 DUP3 ADD MSTORE PUSH32 0x74206F6620626F756E6473000000000000000000000000000000000000000000 PUSH1 0x20 DUP3 ADD MSTORE POP JUMP JUMPDEST PUSH1 0x0 PUSH2 0x3DCC PUSH1 0x2B DUP4 PUSH2 0x321E JUMP JUMPDEST SWAP2 POP PUSH2 0x3DD7 DUP3 PUSH2 0x3D70 JUMP JUMPDEST PUSH1 0x40 DUP3 ADD SWAP1 POP SWAP2 SWAP1 POP JUMP JUMPDEST PUSH1 0x0 PUSH1 0x20 DUP3 ADD SWAP1 POP DUP2 DUP2 SUB PUSH1 0x0 DUP4 ADD MSTORE PUSH2 0x3DFB DUP2 PUSH2 0x3DBF JUMP JUMPDEST SWAP1 POP SWAP2 SWAP1 POP JUMP JUMPDEST PUSH32 0x4E487B7100000000000000000000000000000000000000000000000000000000 PUSH1 0x0 MSTORE PUSH1 0x32 PUSH1 0x4 MSTORE PUSH1 0x24 PUSH1 0x0 REVERT JUMPDEST PUSH32 0x4E487B7100000000000000000000000000000000000000000000000000000000 PUSH1 0x0 MSTORE PUSH1 0x11 PUSH1 0x4 MSTORE PUSH1 0x24 PUSH1 0x0 REVERT JUMPDEST PUSH1 0x0 PUSH2 0x3E6B DUP3 PUSH2 0x3110 JUMP JUMPDEST SWAP2 POP PUSH2 0x3E76 DUP4 PUSH2 0x3110 JUMP JUMPDEST SWAP3 POP DUP3 DUP3 SUB SWAP1 POP DUP2 DUP2 GT ISZERO PUSH2 0x3E8E JUMPI PUSH2 0x3E8D PUSH2 0x3E31 JUMP JUMPDEST JUMPDEST SWAP3 SWAP2 POP POP JUMP JUMPDEST PUSH32 0x455243373231456E756D657261626C653A20676C6F62616C20696E646578206F PUSH1 0x0 DUP3 ADD MSTORE PUSH32 0x7574206F6620626F756E64730000000000000000000000000000000000000000 PUSH1 0x20 DUP3 ADD MSTORE POP JUMP JUMPDEST PUSH1 0x0 PUSH2 0x3EF0 PUSH1 0x2C DUP4 PUSH2 0x321E JUMP JUMPDEST SWAP2 POP PUSH2 0x3EFB DUP3 PUSH2 0x3E94 JUMP JUMPDEST PUSH1 0x40 DUP3 ADD SWAP1 POP SWAP2 SWAP1 POP JUMP JUMPDEST PUSH1 0x0 PUSH1 0x20 DUP3 ADD SWAP1 POP DUP2 DUP2 SUB PUSH1 0x0 DUP4 ADD MSTORE PUSH2 0x3F1F DUP2 PUSH2 0x3EE3 JUMP JUMPDEST SWAP1 POP SWAP2 SWAP1 POP JUMP JUMPDEST PUSH32 0x4552433732313A20696E76616C696420746F6B656E2049440000000000000000 PUSH1 0x0 DUP3 ADD MSTORE POP JUMP JUMPDEST PUSH1 0x0 PUSH2 0x3F5C PUSH1 0x18 DUP4 PUSH2 0x321E JUMP JUMPDEST SWAP2 POP PUSH2 0x3F67 DUP3 PUSH2 0x3F26 JUMP JUMPDEST PUSH1 0x20 DUP3 ADD SWAP1 POP SWAP2 SWAP1 POP JUMP JUMPDEST PUSH1 0x0 PUSH1 0x20 DUP3 ADD SWAP1 POP DUP2 DUP2 SUB PUSH1 0x0 DUP4 ADD MSTORE PUSH2 0x3F8B DUP2 PUSH2 0x3F4F JUMP JUMPDEST SWAP1 POP SWAP2 SWAP1 POP JUMP JUMPDEST PUSH1 0x0 PUSH2 0x3F9D DUP3 PUSH2 0x3110 JUMP JUMPDEST SWAP2 POP PUSH2 0x3FA8 DUP4 PUSH2 0x3110 JUMP JUMPDEST SWAP3 POP DUP3 DUP3 ADD SWAP1 POP DUP1 DUP3 GT ISZERO PUSH2 0x3FC0 JUMPI PUSH2 0x3FBF PUSH2 0x3E31 JUMP JUMPDEST JUMPDEST SWAP3 SWAP2 POP POP JUMP JUMPDEST PUSH32 0x4552433732313A2061646472657373207A65726F206973206E6F742061207661 PUSH1 0x0 DUP3 ADD MSTORE PUSH32 0x6C6964206F776E65720000000000000000000000000000000000000000000000 PUSH1 0x20 DUP3 ADD MSTORE POP JUMP JUMPDEST PUSH1 0x0 PUSH2 0x4022 PUSH1 0x29 DUP4 PUSH2 0x321E JUMP JUMPDEST SWAP2 POP PUSH2 0x402D DUP3 PUSH2 0x3FC6 JUMP JUMPDEST PUSH1 0x40 DUP3 ADD SWAP1 POP SWAP2 SWAP1 POP JUMP JUMPDEST PUSH1 0x0 PUSH1 0x20 DUP3 ADD SWAP1 POP DUP2 DUP2 SUB PUSH1 0x0 DUP4 ADD MSTORE PUSH2 0x4051 DUP2 PUSH2 0x4015 JUMP JUMPDEST SWAP1 POP SWAP2 SWAP1 POP JUMP JUMPDEST PUSH1 0x0 PUSH10 0xFFFFFFFFFFFFFFFFFFFF DUP3 AND SWAP1 POP SWAP2 SWAP1 POP JUMP JUMPDEST PUSH2 0x4077 DUP2 PUSH2 0x4058 JUMP JUMPDEST DUP2 EQ PUSH2 0x4082 JUMPI PUSH1 0x0 DUP1 REVERT JUMPDEST POP JUMP JUMPDEST PUSH1 0x0 DUP2 MLOAD SWAP1 POP PUSH2 0x4094 DUP2 PUSH2 0x406E JUMP JUMPDEST SWAP3 SWAP2 POP POP JUMP JUMPDEST PUSH2 0x40A3 DUP2 PUSH2 0x37B1 JUMP JUMPDEST DUP2 EQ PUSH2 0x40AE JUMPI PUSH1 0x0 DUP1 REVERT JUMPDEST POP JUMP JUMPDEST PUSH1 0x0 DUP2 MLOAD SWAP1 POP PUSH2 0x40C0 DUP2 PUSH2 0x409A JUMP JUMPDEST SWAP3 SWAP2 POP POP JUMP JUMPDEST PUSH1 0x0 DUP2 MLOAD SWAP1 POP PUSH2 0x40D5 DUP2 PUSH2 0x32C5 JUMP JUMPDEST SWAP3 SWAP2 POP POP JUMP JUMPDEST PUSH1 0x0 DUP1 PUSH1 0x0 DUP1 PUSH1 0x0 PUSH1 0xA0 DUP7 DUP9 SUB SLT ISZERO PUSH2 0x40F7 JUMPI PUSH2 0x40F6 PUSH2 0x314E JUMP JUMPDEST JUMPDEST PUSH1 0x0 PUSH2 0x4105 DUP9 DUP3 DUP10 ADD PUSH2 0x4085 JUMP JUMPDEST SWAP6 POP POP PUSH1 0x20 PUSH2 0x4116 DUP9 DUP3 DUP10 ADD PUSH2 0x40B1 JUMP JUMPDEST SWAP5 POP POP PUSH1 0x40 PUSH2 0x4127 DUP9 DUP3 DUP10 ADD PUSH2 0x40C6 JUMP JUMPDEST SWAP4 POP POP PUSH1 0x60 PUSH2 0x4138 DUP9 DUP3 DUP10 ADD PUSH2 0x40C6 JUMP JUMPDEST SWAP3 POP POP PUSH1 0x80 PUSH2 0x4149 DUP9 DUP3 DUP10 ADD PUSH2 0x4085 JUMP JUMPDEST SWAP2 POP POP SWAP3 SWAP6 POP SWAP3 SWAP6 SWAP1 SWAP4 POP JUMP JUMPDEST PUSH1 0x0 DUP2 SWAP1 POP SWAP2 SWAP1 POP JUMP JUMPDEST PUSH2 0x4169 DUP2 PUSH2 0x4156 JUMP JUMPDEST DUP3 MSTORE POP POP JUMP JUMPDEST PUSH2 0x4178 DUP2 PUSH2 0x3A32 JUMP JUMPDEST DUP3 MSTORE POP POP JUMP JUMPDEST PUSH1 0x0 PUSH2 0xFFFF DUP3 AND SWAP1 POP SWAP2 SWAP1 POP JUMP JUMPDEST PUSH2 0x4195 DUP2 PUSH2 0x417E JUMP JUMPDEST DUP3 MSTORE POP POP JUMP JUMPDEST PUSH2 0x41A4 DUP2 PUSH2 0x3851 JUMP JUMPDEST DUP3 MSTORE POP POP JUMP JUMPDEST PUSH1 0x0 PUSH1 0xA0 DUP3 ADD SWAP1 POP PUSH2 0x41BF PUSH1 0x0 DUP4 ADD DUP9 PUSH2 0x4160 JUMP JUMPDEST PUSH2 0x41CC PUSH1 0x20 DUP4 ADD DUP8 PUSH2 0x416F JUMP JUMPDEST PUSH2 0x41D9 PUSH1 0x40 DUP4 ADD DUP7 PUSH2 0x418C JUMP JUMPDEST PUSH2 0x41E6 PUSH1 0x60 DUP4 ADD DUP6 PUSH2 0x419B JUMP JUMPDEST PUSH2 0x41F3 PUSH1 0x80 DUP4 ADD DUP5 PUSH2 0x419B JUMP JUMPDEST SWAP7 SWAP6 POP POP POP POP POP POP JUMP JUMPDEST PUSH1 0x0 PUSH1 0x20 DUP3 DUP5 SUB SLT ISZERO PUSH2 0x4213 JUMPI PUSH2 0x4212 PUSH2 0x314E JUMP JUMPDEST JUMPDEST PUSH1 0x0 PUSH2 0x4221 DUP5 DUP3 DUP6 ADD PUSH2 0x40C6 JUMP JUMPDEST SWAP2 POP POP SWAP3 SWAP2 POP POP JUMP JUMPDEST PUSH1 0x0 PUSH1 0x40 DUP3 ADD SWAP1 POP PUSH2 0x423F PUSH1 0x0 DUP4 ADD DUP6 PUSH2 0x311A JUMP JUMPDEST PUSH2 0x424C PUSH1 0x20 DUP4 ADD DUP5 PUSH2 0x419B JUMP JUMPDEST SWAP4 SWAP3 POP POP POP JUMP JUMPDEST PUSH32 0x4F776E61626C653A206E6577206F776E657220697320746865207A65726F2061 PUSH1 0x0 DUP3 ADD MSTORE PUSH32 0x6464726573730000000000000000000000000000000000000000000000000000 PUSH1 0x20 DUP3 ADD MSTORE POP JUMP JUMPDEST PUSH1 0x0 PUSH2 0x42AF PUSH1 0x26 DUP4 PUSH2 0x321E JUMP JUMPDEST SWAP2 POP PUSH2 0x42BA DUP3 PUSH2 0x4253 JUMP JUMPDEST PUSH1 0x40 DUP3 ADD SWAP1 POP SWAP2 SWAP1 POP JUMP JUMPDEST PUSH1 0x0 PUSH1 0x20 DUP3 ADD SWAP1 POP DUP2 DUP2 SUB PUSH1 0x0 DUP4 ADD MSTORE PUSH2 0x42DE DUP2 PUSH2 0x42A2 JUMP JUMPDEST SWAP1 POP SWAP2 SWAP1 POP JUMP JUMPDEST PUSH32 0x4E487B7100000000000000000000000000000000000000000000000000000000 PUSH1 0x0 MSTORE PUSH1 0x12 PUSH1 0x4 MSTORE PUSH1 0x24 PUSH1 0x0 REVERT JUMPDEST PUSH1 0x0 PUSH2 0x431F DUP3 PUSH2 0x3110 JUMP JUMPDEST SWAP2 POP PUSH2 0x432A DUP4 PUSH2 0x3110 JUMP JUMPDEST SWAP3 POP DUP3 PUSH2 0x433A JUMPI PUSH2 0x4339 PUSH2 0x42E5 JUMP JUMPDEST JUMPDEST DUP3 DUP3 MOD SWAP1 POP SWAP3 SWAP2 POP POP JUMP JUMPDEST PUSH1 0x0 PUSH2 0x4350 DUP3 PUSH2 0x3110 JUMP JUMPDEST SWAP2 POP PUSH32 0xFFFFFFFFFFFFFFFFFFFFFFFFFFFFFFFFFFFFFFFFFFFFFFFFFFFFFFFFFFFFFFFF DUP3 SUB PUSH2 0x4382 JUMPI PUSH2 0x4381 PUSH2 0x3E31 JUMP JUMPDEST JUMPDEST PUSH1 0x1 DUP3 ADD SWAP1 POP SWAP2 SWAP1 POP JUMP JUMPDEST PUSH32 0x4F776E61626C653A2063616C6C6572206973206E6F7420746865206F776E6572 PUSH1 0x0 DUP3 ADD MSTORE POP JUMP JUMPDEST PUSH1 0x0 PUSH2 0x43C3 PUSH1 0x20 DUP4 PUSH2 0x321E JUMP JUMPDEST SWAP2 POP PUSH2 0x43CE DUP3 PUSH2 0x438D JUMP JUMPDEST PUSH1 0x20 DUP3 ADD SWAP1 POP SWAP2 SWAP1 POP JUMP JUMPDEST PUSH1 0x0 PUSH1 0x20 DUP3 ADD SWAP1 POP DUP2 DUP2 SUB PUSH1 0x0 DUP4 ADD MSTORE PUSH2 0x43F2 DUP2 PUSH2 0x43B6 JUMP JUMPDEST SWAP1 POP SWAP2 SWAP1 POP JUMP JUMPDEST PUSH32 0x4552433732313A207472616E736665722066726F6D20696E636F727265637420 PUSH1 0x0 DUP3 ADD MSTORE PUSH32 0x6F776E6572000000000000000000000000000000000000000000000000000000 PUSH1 0x20 DUP3 ADD MSTORE POP JUMP JUMPDEST PUSH1 0x0 PUSH2 0x4455 PUSH1 0x25 DUP4 PUSH2 0x321E JUMP JUMPDEST SWAP2 POP PUSH2 0x4460 DUP3 PUSH2 0x43F9 JUMP JUMPDEST PUSH1 0x40 DUP3 ADD SWAP1 POP SWAP2 SWAP1 POP JUMP JUMPDEST PUSH1 0x0 PUSH1 0x20 DUP3 ADD SWAP1 POP DUP2 DUP2 SUB PUSH1 0x0 DUP4 ADD MSTORE PUSH2 0x4484 DUP2 PUSH2 0x4448 JUMP JUMPDEST SWAP1 POP SWAP2 SWAP1 POP JUMP JUMPDEST PUSH32 0x4552433732313A207472616E7366657220746F20746865207A65726F20616464 PUSH1 0x0 DUP3 ADD MSTORE PUSH32 0x7265737300000000000000000000000000000000000000000000000000000000 PUSH1 0x20 DUP3 ADD MSTORE POP JUMP JUMPDEST PUSH1 0x0 PUSH2 0x44E7 PUSH1 0x24 DUP4 PUSH2 0x321E JUMP JUMPDEST SWAP2 POP PUSH2 0x44F2 DUP3 PUSH2 0x448B JUMP JUMPDEST PUSH1 0x40 DUP3 ADD SWAP1 POP SWAP2 SWAP1 POP JUMP JUMPDEST PUSH1 0x0 PUSH1 0x20 DUP3 ADD SWAP1 POP DUP2 DUP2 SUB PUSH1 0x0 DUP4 ADD MSTORE PUSH2 0x4516 DUP2 PUSH2 0x44DA JUMP JUMPDEST SWAP1 POP SWAP2 SWAP1 POP JUMP JUMPDEST PUSH32 0x45524337323155524953746F726167653A2055524920736574206F66206E6F6E PUSH1 0x0 DUP3 ADD MSTORE PUSH32 0x6578697374656E7420746F6B656E000000000000000000000000000000000000 PUSH1 0x20 DUP3 ADD MSTORE POP JUMP JUMPDEST PUSH1 0x0 PUSH2 0x4579 PUSH1 0x2E DUP4 PUSH2 0x321E JUMP JUMPDEST SWAP2 POP PUSH2 0x4584 DUP3 PUSH2 0x451D JUMP JUMPDEST PUSH1 0x40 DUP3 ADD SWAP1 POP SWAP2 SWAP1 POP JUMP JUMPDEST PUSH1 0x0 PUSH1 0x20 DUP3 ADD SWAP1 POP DUP2 DUP2 SUB PUSH1 0x0 DUP4 ADD MSTORE PUSH2 0x45A8 DUP2 PUSH2 0x456C JUMP JUMPDEST SWAP1 POP SWAP2 SWAP1 POP JUMP JUMPDEST PUSH1 0x0 DUP2 SWAP1 POP DUP2 PUSH1 0x0 MSTORE PUSH1 0x20 PUSH1 0x0 KECCAK256 SWAP1 POP SWAP2 SWAP1 POP JUMP JUMPDEST PUSH1 0x0 PUSH1 0x20 PUSH1 0x1F DUP4 ADD DIV SWAP1 POP SWAP2 SWAP1 POP JUMP JUMPDEST PUSH1 0x0 DUP3 DUP3 SHL SWAP1 POP SWAP3 SWAP2 POP POP JUMP JUMPDEST PUSH1 0x0 PUSH1 0x8 DUP4 MUL PUSH2 0x4611 PUSH32 0xFFFFFFFFFFFFFFFFFFFFFFFFFFFFFFFFFFFFFFFFFFFFFFFFFFFFFFFFFFFFFFFF DUP3 PUSH2 0x45D4 JUMP JUMPDEST PUSH2 0x461B DUP7 DUP4 PUSH2 0x45D4 JUMP JUMPDEST SWAP6 POP DUP1 NOT DUP5 AND SWAP4 POP DUP1 DUP7 AND DUP5 OR SWAP3 POP POP POP SWAP4 SWAP3 POP POP POP JUMP JUMPDEST PUSH1 0x0 PUSH2 0x464E PUSH2 0x4649 PUSH2 0x4644 DUP5 PUSH2 0x3110 JUMP JUMPDEST PUSH2 0x36B2 JUMP JUMPDEST PUSH2 0x3110 JUMP JUMPDEST SWAP1 POP SWAP2 SWAP1 POP JUMP JUMPDEST PUSH1 0x0 DUP2 SWAP1 POP SWAP2 SWAP1 POP JUMP JUMPDEST PUSH2 0x4668 DUP4 PUSH2 0x4633 JUMP JUMPDEST PUSH2 0x467C PUSH2 0x4674 DUP3 PUSH2 0x4655 JUMP JUMPDEST DUP5 DUP5 SLOAD PUSH2 0x45E1 JUMP JUMPDEST DUP3 SSTORE POP POP POP POP JUMP JUMPDEST PUSH1 0x0 SWAP1 JUMP JUMPDEST PUSH2 0x4691 PUSH2 0x4684 JUMP JUMPDEST PUSH2 0x469C DUP2 DUP5 DUP5 PUSH2 0x465F JUMP JUMPDEST POP POP POP JUMP JUMPDEST JUMPDEST DUP2 DUP2 LT ISZERO PUSH2 0x46C0 JUMPI PUSH2 0x46B5 PUSH1 0x0 DUP3 PUSH2 0x4689 JUMP JUMPDEST PUSH1 0x1 DUP2 ADD SWAP1 POP PUSH2 0x46A2 JUMP JUMPDEST POP POP JUMP JUMPDEST PUSH1 0x1F DUP3 GT ISZERO PUSH2 0x4705 JUMPI PUSH2 0x46D6 DUP2 PUSH2 0x45AF JUMP JUMPDEST PUSH2 0x46DF DUP5 PUSH2 0x45C4 JUMP JUMPDEST DUP2 ADD PUSH1 0x20 DUP6 LT ISZERO PUSH2 0x46EE JUMPI DUP2 SWAP1 POP JUMPDEST PUSH2 0x4702 PUSH2 0x46FA DUP6 PUSH2 0x45C4 JUMP JUMPDEST DUP4 ADD DUP3 PUSH2 0x46A1 JUMP JUMPDEST POP POP JUMPDEST POP POP POP JUMP JUMPDEST PUSH1 0x0 DUP3 DUP3 SHR SWAP1 POP SWAP3 SWAP2 POP POP JUMP JUMPDEST PUSH1 0x0 PUSH2 0x4728 PUSH1 0x0 NOT DUP5 PUSH1 0x8 MUL PUSH2 0x470A JUMP JUMPDEST NOT DUP1 DUP4 AND SWAP2 POP POP SWAP3 SWAP2 POP POP JUMP JUMPDEST PUSH1 0x0 PUSH2 0x4741 DUP4 DUP4 PUSH2 0x4717 JUMP JUMPDEST SWAP2 POP DUP3 PUSH1 0x2 MUL DUP3 OR SWAP1 POP SWAP3 SWAP2 POP POP JUMP JUMPDEST PUSH2 0x475A DUP3 PUSH2 0x3213 JUMP JUMPDEST PUSH8 0xFFFFFFFFFFFFFFFF DUP2 GT ISZERO PUSH2 0x4773 JUMPI PUSH2 0x4772 PUSH2 0x33EB JUMP JUMPDEST JUMPDEST PUSH2 0x477D DUP3 SLOAD PUSH2 0x3B60 JUMP JUMPDEST PUSH2 0x4788 DUP3 DUP3 DUP6 PUSH2 0x46C4 JUMP JUMPDEST PUSH1 0x0 PUSH1 0x20 SWAP1 POP PUSH1 0x1F DUP4 GT PUSH1 0x1 DUP2 EQ PUSH2 0x47BB JUMPI PUSH1 0x0 DUP5 ISZERO PUSH2 0x47A9 JUMPI DUP3 DUP8 ADD MLOAD SWAP1 POP JUMPDEST PUSH2 0x47B3 DUP6 DUP3 PUSH2 0x4735 JUMP JUMPDEST DUP7 SSTORE POP PUSH2 0x481B JUMP JUMPDEST PUSH1 0x1F NOT DUP5 AND PUSH2 0x47C9 DUP7 PUSH2 0x45AF JUMP JUMPDEST PUSH1 0x0 JUMPDEST DUP3 DUP2 LT ISZERO PUSH2 0x47F1 JUMPI DUP5 DUP10 ADD MLOAD DUP3 SSTORE PUSH1 0x1 DUP3 ADD SWAP2 POP PUSH1 0x20 DUP6 ADD SWAP5 POP PUSH1 0x20 DUP2 ADD SWAP1 POP PUSH2 0x47CC JUMP JUMPDEST DUP7 DUP4 LT ISZERO PUSH2 0x480E JUMPI DUP5 DUP10 ADD MLOAD PUSH2 0x480A PUSH1 0x1F DUP10 AND DUP3 PUSH2 0x4717 JUMP JUMPDEST DUP4 SSTORE POP JUMPDEST PUSH1 0x1 PUSH1 0x2 DUP9 MUL ADD DUP9 SSTORE POP POP POP JUMPDEST POP POP POP POP POP POP JUMP JUMPDEST PUSH1 0x0 PUSH1 0x80 DUP3 ADD SWAP1 POP DUP2 DUP2 SUB PUSH1 0x0 DUP4 ADD MSTORE PUSH2 0x483D DUP2 DUP8 PUSH2 0x326A JUMP JUMPDEST SWAP1 POP PUSH2 0x484C PUSH1 0x20 DUP4 ADD DUP7 PUSH2 0x311A JUMP JUMPDEST DUP2 DUP2 SUB PUSH1 0x40 DUP4 ADD MSTORE PUSH2 0x485E DUP2 DUP6 PUSH2 0x326A JUMP JUMPDEST SWAP1 POP DUP2 DUP2 SUB PUSH1 0x60 DUP4 ADD MSTORE PUSH2 0x4872 DUP2 DUP5 PUSH2 0x326A JUMP JUMPDEST SWAP1 POP SWAP6 SWAP5 POP POP POP POP POP JUMP JUMPDEST PUSH32 0x537562736372697074696F6E204944206E6F7420736574000000000000000000 PUSH1 0x0 DUP3 ADD MSTORE POP JUMP JUMPDEST PUSH1 0x0 PUSH2 0x48B3 PUSH1 0x17 DUP4 PUSH2 0x321E JUMP JUMPDEST SWAP2 POP PUSH2 0x48BE DUP3 PUSH2 0x487D JUMP JUMPDEST PUSH1 0x20 DUP3 ADD SWAP1 POP SWAP2 SWAP1 POP JUMP JUMPDEST PUSH1 0x0 PUSH1 0x20 DUP3 ADD SWAP1 POP DUP2 DUP2 SUB PUSH1 0x0 DUP4 ADD MSTORE PUSH2 0x48E2 DUP2 PUSH2 0x48A6 JUMP JUMPDEST SWAP1 POP SWAP2 SWAP1 POP JUMP JUMPDEST PUSH1 0x0 DUP2 SWAP1 POP SWAP2 SWAP1 POP JUMP JUMPDEST PUSH1 0x0 PUSH2 0x490E PUSH2 0x4909 PUSH2 0x4904 DUP5 PUSH2 0x48E9 JUMP JUMPDEST PUSH2 0x36B2 JUMP JUMPDEST PUSH2 0x417E JUMP JUMPDEST SWAP1 POP SWAP2 SWAP1 POP JUMP JUMPDEST PUSH2 0x491E DUP2 PUSH2 0x48F3 JUMP JUMPDEST DUP3 MSTORE POP POP JUMP JUMPDEST PUSH1 0x0 DUP2 SWAP1 POP SWAP2 SWAP1 POP JUMP JUMPDEST PUSH1 0x0 PUSH2 0x4949 PUSH2 0x4944 PUSH2 0x493F DUP5 PUSH2 0x4924 JUMP JUMPDEST PUSH2 0x36B2 JUMP JUMPDEST PUSH2 0x3851 JUMP JUMPDEST SWAP1 POP SWAP2 SWAP1 POP JUMP JUMPDEST PUSH2 0x4959 DUP2 PUSH2 0x492E JUMP JUMPDEST DUP3 MSTORE POP POP JUMP JUMPDEST PUSH1 0x0 PUSH1 0xA0 DUP3 ADD SWAP1 POP PUSH2 0x4974 PUSH1 0x0 DUP4 ADD DUP9 PUSH2 0x4160 JUMP JUMPDEST PUSH2 0x4981 PUSH1 0x20 DUP4 ADD DUP8 PUSH2 0x416F JUMP JUMPDEST PUSH2 0x498E PUSH1 0x40 DUP4 ADD DUP7 PUSH2 0x4915 JUMP JUMPDEST PUSH2 0x499B PUSH1 0x60 DUP4 ADD DUP6 PUSH2 0x419B JUMP JUMPDEST PUSH2 0x49A8 PUSH1 0x80 DUP4 ADD DUP5 PUSH2 0x4950 JUMP JUMPDEST SWAP7 SWAP6 POP POP POP POP POP POP JUMP JUMPDEST PUSH32 0x4552433732313A20617070726F766520746F2063616C6C657200000000000000 PUSH1 0x0 DUP3 ADD MSTORE POP JUMP JUMPDEST PUSH1 0x0 PUSH2 0x49E8 PUSH1 0x19 DUP4 PUSH2 0x321E JUMP JUMPDEST SWAP2 POP PUSH2 0x49F3 DUP3 PUSH2 0x49B2 JUMP JUMPDEST PUSH1 0x20 DUP3 ADD SWAP1 POP SWAP2 SWAP1 POP JUMP JUMPDEST PUSH1 0x0 PUSH1 0x20 DUP3 ADD SWAP1 POP DUP2 DUP2 SUB PUSH1 0x0 DUP4 ADD MSTORE PUSH2 0x4A17 DUP2 PUSH2 0x49DB JUMP JUMPDEST SWAP1 POP SWAP2 SWAP1 POP JUMP JUMPDEST PUSH32 0x4552433732313A207472616E7366657220746F206E6F6E204552433732315265 PUSH1 0x0 DUP3 ADD MSTORE PUSH32 0x63656976657220696D706C656D656E7465720000000000000000000000000000 PUSH1 0x20 DUP3 ADD MSTORE POP JUMP JUMPDEST PUSH1 0x0 PUSH2 0x4A7A PUSH1 0x32 DUP4 PUSH2 0x321E JUMP JUMPDEST SWAP2 POP PUSH2 0x4A85 DUP3 PUSH2 0x4A1E JUMP JUMPDEST PUSH1 0x40 DUP3 ADD SWAP1 POP SWAP2 SWAP1 POP JUMP JUMPDEST PUSH1 0x0 PUSH1 0x20 DUP3 ADD SWAP1 POP DUP2 DUP2 SUB PUSH1 0x0 DUP4 ADD MSTORE PUSH2 0x4AA9 DUP2 PUSH2 0x4A6D JUMP JUMPDEST SWAP1 POP SWAP2 SWAP1 POP JUMP JUMPDEST PUSH1 0x0 DUP2 SWAP1 POP SWAP3 SWAP2 POP POP JUMP JUMPDEST PUSH1 0x0 PUSH2 0x4AC6 DUP3 PUSH2 0x3213 JUMP JUMPDEST PUSH2 0x4AD0 DUP2 DUP6 PUSH2 0x4AB0 JUMP JUMPDEST SWAP4 POP PUSH2 0x4AE0 DUP2 DUP6 PUSH1 0x20 DUP7 ADD PUSH2 0x322F JUMP JUMPDEST DUP1 DUP5 ADD SWAP2 POP POP SWAP3 SWAP2 POP POP JUMP JUMPDEST PUSH1 0x0 PUSH2 0x4AF8 DUP3 DUP6 PUSH2 0x4ABB JUMP JUMPDEST SWAP2 POP PUSH2 0x4B04 DUP3 DUP5 PUSH2 0x4ABB JUMP JUMPDEST SWAP2 POP DUP2 SWAP1 POP SWAP4 SWAP3 POP POP POP JUMP JUMPDEST PUSH1 0x0 PUSH1 0x40 DUP3 ADD SWAP1 POP DUP2 DUP2 SUB PUSH1 0x0 DUP4 ADD MSTORE PUSH2 0x4B2A DUP2 DUP6 PUSH2 0x326A JUMP JUMPDEST SWAP1 POP PUSH2 0x4B39 PUSH1 0x20 DUP4 ADD DUP5 PUSH2 0x311A JUMP JUMPDEST SWAP4 SWAP3 POP POP POP JUMP JUMPDEST PUSH1 0x0 PUSH1 0x80 DUP3 ADD SWAP1 POP PUSH2 0x4B55 PUSH1 0x0 DUP4 ADD DUP8 PUSH2 0x3350 JUMP JUMPDEST PUSH2 0x4B62 PUSH1 0x20 DUP4 ADD DUP7 PUSH2 0x3350 JUMP JUMPDEST PUSH2 0x4B6F PUSH1 0x40 DUP4 ADD DUP6 PUSH2 0x311A JUMP JUMPDEST DUP2 DUP2 SUB PUSH1 0x60 DUP4 ADD MSTORE PUSH2 0x4B81 DUP2 DUP5 PUSH2 0x3748 JUMP JUMPDEST SWAP1 POP SWAP6 SWAP5 POP POP POP POP POP JUMP JUMPDEST PUSH1 0x0 DUP2 MLOAD SWAP1 POP PUSH2 0x4B9B DUP2 PUSH2 0x3184 JUMP JUMPDEST SWAP3 SWAP2 POP POP JUMP JUMPDEST PUSH1 0x0 PUSH1 0x20 DUP3 DUP5 SUB SLT ISZERO PUSH2 0x4BB7 JUMPI PUSH2 0x4BB6 PUSH2 0x314E JUMP JUMPDEST JUMPDEST PUSH1 0x0 PUSH2 0x4BC5 DUP5 DUP3 DUP6 ADD PUSH2 0x4B8C JUMP JUMPDEST SWAP2 POP POP SWAP3 SWAP2 POP POP JUMP JUMPDEST PUSH32 0x4552433732313A206D696E7420746F20746865207A65726F2061646472657373 PUSH1 0x0 DUP3 ADD MSTORE POP JUMP JUMPDEST PUSH1 0x0 PUSH2 0x4C04 PUSH1 0x20 DUP4 PUSH2 0x321E JUMP JUMPDEST SWAP2 POP PUSH2 0x4C0F DUP3 PUSH2 0x4BCE JUMP JUMPDEST PUSH1 0x20 DUP3 ADD SWAP1 POP SWAP2 SWAP1 POP JUMP JUMPDEST PUSH1 0x0 PUSH1 0x20 DUP3 ADD SWAP1 POP DUP2 DUP2 SUB PUSH1 0x0 DUP4 ADD MSTORE PUSH2 0x4C33 DUP2 PUSH2 0x4BF7 JUMP JUMPDEST SWAP1 POP SWAP2 SWAP1 POP JUMP JUMPDEST PUSH32 0x4552433732313A20746F6B656E20616C7265616479206D696E74656400000000 PUSH1 0x0 DUP3 ADD MSTORE POP JUMP JUMPDEST PUSH1 0x0 PUSH2 0x4C70 PUSH1 0x1C DUP4 PUSH2 0x321E JUMP JUMPDEST SWAP2 POP PUSH2 0x4C7B DUP3 PUSH2 0x4C3A JUMP JUMPDEST PUSH1 0x20 DUP3 ADD SWAP1 POP SWAP2 SWAP1 POP JUMP JUMPDEST PUSH1 0x0 PUSH1 0x20 DUP3 ADD SWAP1 POP DUP2 DUP2 SUB PUSH1 0x0 DUP4 ADD MSTORE PUSH2 0x4C9F DUP2 PUSH2 0x4C63 JUMP JUMPDEST SWAP1 POP SWAP2 SWAP1 POP JUMP JUMPDEST PUSH1 0x0 PUSH2 0x4CB1 DUP3 PUSH2 0x3110 JUMP JUMPDEST SWAP2 POP PUSH2 0x4CBC DUP4 PUSH2 0x3110 JUMP JUMPDEST SWAP3 POP DUP3 PUSH2 0x4CCC JUMPI PUSH2 0x4CCB PUSH2 0x42E5 JUMP JUMPDEST JUMPDEST DUP3 DUP3 DIV SWAP1 POP SWAP3 SWAP2 POP POP JUMP JUMPDEST PUSH32 0x4E487B7100000000000000000000000000000000000000000000000000000000 PUSH1 0x0 MSTORE PUSH1 0x31 PUSH1 0x4 MSTORE PUSH1 0x24 PUSH1 0x0 REVERT INVALID LOG2 PUSH5 0x6970667358 0x22 SLT KECCAK256 0xAF CALLVALUE BALANCE PUSH12 0x814FB5F2334787F550C3887A 0xE4 PUSH3 0x77378 EXTCODESIZE 0xE1 0xE1 0x5C 0xFC 0xBB PUSH5 0xEBC135D964 PUSH20 0x6F6C6343000811003368747470733A2F2F697066 PUSH20 0x2E696F2F697066732F516D646355526D4E316B45 GASLIMIT PUSH21 0x4B676E626B564A4A3868726D73535748705A764C6B MSTORE PUSH8 0x734B4B6F69577657 CODECOPY PUSH8 0x3F66696C656E616D PUSH6 0x3D73696D706C PUSH6 0x5F62756C6C2E PUSH11 0x736F6E68747470733A2F2F PUSH10 0x7066732E696F2F697066 PUSH20 0x2F516D5258796669336F4E5A4375624478695646 PUSH19 0x65336B4C5A3858654774367051736E4151525A CALLDATACOPY PUSH2 0x6B68 MSTORE8 0x4E PUSH20 0x3F66696C656E616D653D67616D65725F62756C6C 0x2E PUSH11 0x736F6E68747470733A2F2F PUSH10 0x7066732E696F2F697066 PUSH20 0x2F516D624B68425856576D777259735450465966 PUSH19 0x6F52324E374E41656B414D7848555667324357 PUSH12 0x73376939716A3F66696C656E PUSH2 0x6D65 RETURNDATASIZE PUSH20 0x696D706C655F626561722E6A736F6E6874747073 GASPRICE 0x2F 0x2F PUSH10 0x7066732E696F2F697066 PUSH20 0x2F516D6478394878374643445A474578796A4C52 CALLDATASIZE PUSH23 0x59636E75745552384B68425A426E5A6641504869556F6D PUSH14 0x4E3F66696C656E616D653D626561 PUSH15 0x69655F626561722E6A736F6E687474 PUSH17 0x733A2F2F697066732E696F2F697066732F MLOAD PUSH14 0x524A5646654D7274595332435556 SSTORE 0x4D ORIGIN PUSH4 0x484A7042 JUMP CALLDATALOAD PUSH2 0x5832 PUSH25 0x7572706E73665A784C545451626944333F66696C656E616D65 RETURNDATASIZE PUSH17 0x617274795F62756C6C2E6A736F6E687474 PUSH17 0x733A2F2F697066732E696F2F697066732F MLOAD PUSH14 0x54564C79545375694B4755456D62 CODESIZE CODESIZE TIMESTAMP PUSH8 0x584733714E433859 PUSH8 0x70485A6946626A48 PUSH19 0x584B4833514845753F66696C656E616D653D63 PUSH16 0x6F6C696F5F626561722E6A736F6E0000 "
		},
		"gasEstimates": {
			"creation": {
				"codeDepositCost": "3954400",
				"executionCost": "infinite",
				"totalCost": "infinite"
			},
			"external": {
				"approve(address,uint256)": "infinite",
				"balanceOf(address)": "3009",
				"checkUpkeep(bytes)": "infinite",
				"currentMarketTrend()": "2698",
				"currentPrice()": "2540",
				"getApproved(uint256)": "5302",
				"getLatestPrice()": "infinite",
				"interval()": "2496",
				"isApprovedForAll(address,address)": "infinite",
				"name()": "infinite",
				"owner()": "2634",
				"ownerOf(uint256)": "3045",
				"performUpkeep(bytes)": "infinite",
				"pricefeed()": "infinite",
				"rawFulfillRandomWords(uint256,uint256[])": "infinite",
				"renounceOwnership()": "30444",
				"requestId()": "2476",
				"requestRandomWords()": "infinite",
				"s_randomWords(uint256)": "infinite",
				"safeMint(address)": "infinite",
				"safeTransferFrom(address,address,uint256)": "infinite",
				"safeTransferFrom(address,address,uint256,bytes)": "infinite",
				"setApprovalForAll(address,bool)": "infinite",
				"setCallbackGasLimit(uint32)": "26988",
				"setInterval(uint256)": "24896",
				"setPriceFeed(address)": "27054",
				"setSubscriptionId(uint64)": "27059",
				"setVrfCoordinator(address)": "27076",
				"supportsInterface(bytes4)": "974",
				"symbol()": "infinite",
				"tokenByIndex(uint256)": "infinite",
				"tokenOfOwnerByIndex(address,uint256)": "infinite",
				"tokenURI(uint256)": "infinite",
				"totalSupply()": "2513",
				"transferFrom(address,address,uint256)": "infinite",
				"transferOwnership(address)": "30854"
			},
			"internal": {
				"_beforeTokenTransfer(address,address,uint256)": "infinite",
				"_burn(uint256)": "infinite",
				"compareStrings(string memory,string memory)": "infinite",
				"fulfillRandomWords(uint256,uint256[] memory)": "infinite",
				"requestRandomnessForNFTUris()": "infinite"
			}
		},
		"methodIdentifiers": {
			"approve(address,uint256)": "095ea7b3",
			"balanceOf(address)": "70a08231",
			"checkUpkeep(bytes)": "6e04ff0d",
			"currentMarketTrend()": "f0e8b3ae",
			"currentPrice()": "9d1b464a",
			"getApproved(uint256)": "081812fc",
			"getLatestPrice()": "8e15f473",
			"interval()": "947a36fb",
			"isApprovedForAll(address,address)": "e985e9c5",
			"name()": "06fdde03",
			"owner()": "8da5cb5b",
			"ownerOf(uint256)": "6352211e",
			"performUpkeep(bytes)": "4585e33b",
			"pricefeed()": "590f2113",
			"rawFulfillRandomWords(uint256,uint256[])": "1fe543e3",
			"renounceOwnership()": "715018a6",
			"requestId()": "006d6cae",
			"requestRandomWords()": "e0c86289",
			"s_randomWords(uint256)": "f6eaffc8",
			"safeMint(address)": "40d097c3",
			"safeTransferFrom(address,address,uint256)": "42842e0e",
			"safeTransferFrom(address,address,uint256,bytes)": "b88d4fde",
			"setApprovalForAll(address,bool)": "a22cb465",
			"setCallbackGasLimit(uint32)": "a4eb718c",
			"setInterval(uint256)": "22a90082",
			"setPriceFeed(address)": "724e78da",
			"setSubscriptionId(uint64)": "ea7b4f77",
			"setVrfCoordinator(address)": "8c424f09",
			"supportsInterface(bytes4)": "01ffc9a7",
			"symbol()": "95d89b41",
			"tokenByIndex(uint256)": "4f6ccce7",
			"tokenOfOwnerByIndex(address,uint256)": "2f745c59",
			"tokenURI(uint256)": "c87b56dd",
			"totalSupply()": "18160ddd",
			"transferFrom(address,address,uint256)": "23b872dd",
			"transferOwnership(address)": "f2fde38b"
		}
	},
	"abi": [
		{
			"inputs": [
				{
					"internalType": "uint256",
					"name": "intervalArg",
					"type": "uint256"
				},
				{
					"internalType": "address",
					"name": "_pricefeed",
					"type": "address"
				},
				{
					"internalType": "uint64",
					"name": "subscriptionId",
					"type": "uint64"
				},
				{
					"internalType": "address",
					"name": "_vrfCoordinator",
					"type": "address"
				}
			],
			"stateMutability": "nonpayable",
			"type": "constructor"
		},
		{
			"inputs": [
				{
					"internalType": "address",
					"name": "have",
					"type": "address"
				},
				{
					"internalType": "address",
					"name": "want",
					"type": "address"
				}
			],
			"name": "OnlyCoordinatorCanFulfill",
			"type": "error"
		},
		{
			"anonymous": false,
			"inputs": [
				{
					"indexed": true,
					"internalType": "address",
					"name": "owner",
					"type": "address"
				},
				{
					"indexed": true,
					"internalType": "address",
					"name": "approved",
					"type": "address"
				},
				{
					"indexed": true,
					"internalType": "uint256",
					"name": "tokenId",
					"type": "uint256"
				}
			],
			"name": "Approval",
			"type": "event"
		},
		{
			"anonymous": false,
			"inputs": [
				{
					"indexed": true,
					"internalType": "address",
					"name": "owner",
					"type": "address"
				},
				{
					"indexed": true,
					"internalType": "address",
					"name": "operator",
					"type": "address"
				},
				{
					"indexed": false,
					"internalType": "bool",
					"name": "approved",
					"type": "bool"
				}
			],
			"name": "ApprovalForAll",
			"type": "event"
		},
		{
			"anonymous": false,
			"inputs": [
				{
					"indexed": true,
					"internalType": "address",
					"name": "previousOwner",
					"type": "address"
				},
				{
					"indexed": true,
					"internalType": "address",
					"name": "newOwner",
					"type": "address"
				}
			],
			"name": "OwnershipTransferred",
			"type": "event"
		},
		{
			"anonymous": false,
			"inputs": [
				{
					"indexed": false,
					"internalType": "uint256",
					"name": "requestId",
					"type": "uint256"
				},
				{
					"indexed": false,
					"internalType": "uint256[]",
					"name": "randomWords",
					"type": "uint256[]"
				}
			],
			"name": "RequestFulfilled",
			"type": "event"
		},
		{
			"anonymous": false,
			"inputs": [
				{
					"indexed": false,
					"internalType": "uint256",
					"name": "requestId",
					"type": "uint256"
				},
				{
					"indexed": false,
					"internalType": "uint32",
					"name": "numWords",
					"type": "uint32"
				}
			],
			"name": "RequestSent",
			"type": "event"
		},
		{
			"anonymous": false,
			"inputs": [
				{
					"indexed": false,
					"internalType": "string",
					"name": "marketTrend",
					"type": "string"
				}
			],
			"name": "TokensUpdated",
			"type": "event"
		},
		{
			"anonymous": false,
			"inputs": [
				{
					"indexed": true,
					"internalType": "address",
					"name": "from",
					"type": "address"
				},
				{
					"indexed": true,
					"internalType": "address",
					"name": "to",
					"type": "address"
				},
				{
					"indexed": true,
					"internalType": "uint256",
					"name": "tokenId",
					"type": "uint256"
				}
			],
			"name": "Transfer",
			"type": "event"
		},
		{
			"inputs": [
				{
					"internalType": "address",
					"name": "to",
					"type": "address"
				},
				{
					"internalType": "uint256",
					"name": "tokenId",
					"type": "uint256"
				}
			],
			"name": "approve",
			"outputs": [],
			"stateMutability": "nonpayable",
			"type": "function"
		},
		{
			"inputs": [
				{
					"internalType": "address",
					"name": "owner",
					"type": "address"
				}
			],
			"name": "balanceOf",
			"outputs": [
				{
					"internalType": "uint256",
					"name": "",
					"type": "uint256"
				}
			],
			"stateMutability": "view",
			"type": "function"
		},
		{
			"inputs": [
				{
					"internalType": "bytes",
					"name": "",
					"type": "bytes"
				}
			],
			"name": "checkUpkeep",
			"outputs": [
				{
					"internalType": "bool",
					"name": "upkeepNeeded",
					"type": "bool"
				},
				{
					"internalType": "bytes",
					"name": "",
					"type": "bytes"
				}
			],
			"stateMutability": "nonpayable",
			"type": "function"
		},
		{
			"inputs": [],
			"name": "currentMarketTrend",
			"outputs": [
				{
					"internalType": "enum BullBear.MarketTrend",
					"name": "",
					"type": "uint8"
				}
			],
			"stateMutability": "view",
			"type": "function"
		},
		{
			"inputs": [],
			"name": "currentPrice",
			"outputs": [
				{
					"internalType": "int256",
					"name": "",
					"type": "int256"
				}
			],
			"stateMutability": "view",
			"type": "function"
		},
		{
			"inputs": [
				{
					"internalType": "uint256",
					"name": "tokenId",
					"type": "uint256"
				}
			],
			"name": "getApproved",
			"outputs": [
				{
					"internalType": "address",
					"name": "",
					"type": "address"
				}
			],
			"stateMutability": "view",
			"type": "function"
		},
		{
			"inputs": [],
			"name": "getLatestPrice",
			"outputs": [
				{
					"internalType": "int256",
					"name": "",
					"type": "int256"
				}
			],
			"stateMutability": "view",
			"type": "function"
		},
		{
			"inputs": [],
			"name": "interval",
			"outputs": [
				{
					"internalType": "uint256",
					"name": "",
					"type": "uint256"
				}
			],
			"stateMutability": "view",
			"type": "function"
		},
		{
			"inputs": [
				{
					"internalType": "address",
					"name": "owner",
					"type": "address"
				},
				{
					"internalType": "address",
					"name": "operator",
					"type": "address"
				}
			],
			"name": "isApprovedForAll",
			"outputs": [
				{
					"internalType": "bool",
					"name": "",
					"type": "bool"
				}
			],
			"stateMutability": "view",
			"type": "function"
		},
		{
			"inputs": [],
			"name": "name",
			"outputs": [
				{
					"internalType": "string",
					"name": "",
					"type": "string"
				}
			],
			"stateMutability": "view",
			"type": "function"
		},
		{
			"inputs": [],
			"name": "owner",
			"outputs": [
				{
					"internalType": "address",
					"name": "",
					"type": "address"
				}
			],
			"stateMutability": "view",
			"type": "function"
		},
		{
			"inputs": [
				{
					"internalType": "uint256",
					"name": "tokenId",
					"type": "uint256"
				}
			],
			"name": "ownerOf",
			"outputs": [
				{
					"internalType": "address",
					"name": "",
					"type": "address"
				}
			],
			"stateMutability": "view",
			"type": "function"
		},
		{
			"inputs": [
				{
					"internalType": "bytes",
					"name": "",
					"type": "bytes"
				}
			],
			"name": "performUpkeep",
			"outputs": [],
			"stateMutability": "nonpayable",
			"type": "function"
		},
		{
			"inputs": [],
			"name": "pricefeed",
			"outputs": [
				{
					"internalType": "contract AggregatorV3Interface",
					"name": "",
					"type": "address"
				}
			],
			"stateMutability": "view",
			"type": "function"
		},
		{
			"inputs": [
				{
					"internalType": "uint256",
					"name": "requestId",
					"type": "uint256"
				},
				{
					"internalType": "uint256[]",
					"name": "randomWords",
					"type": "uint256[]"
				}
			],
			"name": "rawFulfillRandomWords",
			"outputs": [],
			"stateMutability": "nonpayable",
			"type": "function"
		},
		{
			"inputs": [],
			"name": "renounceOwnership",
			"outputs": [],
			"stateMutability": "nonpayable",
			"type": "function"
		},
		{
			"inputs": [],
			"name": "requestId",
			"outputs": [
				{
					"internalType": "uint256",
					"name": "",
					"type": "uint256"
				}
			],
			"stateMutability": "view",
			"type": "function"
		},
		{
			"inputs": [],
			"name": "requestRandomWords",
			"outputs": [
				{
					"internalType": "uint256",
					"name": "requestId",
					"type": "uint256"
				}
			],
			"stateMutability": "nonpayable",
			"type": "function"
		},
		{
			"inputs": [
				{
					"internalType": "uint256",
					"name": "",
					"type": "uint256"
				}
			],
			"name": "s_randomWords",
			"outputs": [
				{
					"internalType": "uint256",
					"name": "",
					"type": "uint256"
				}
			],
			"stateMutability": "view",
			"type": "function"
		},
		{
			"inputs": [
				{
					"internalType": "address",
					"name": "to",
					"type": "address"
				}
			],
			"name": "safeMint",
			"outputs": [],
			"stateMutability": "nonpayable",
			"type": "function"
		},
		{
			"inputs": [
				{
					"internalType": "address",
					"name": "from",
					"type": "address"
				},
				{
					"internalType": "address",
					"name": "to",
					"type": "address"
				},
				{
					"internalType": "uint256",
					"name": "tokenId",
					"type": "uint256"
				}
			],
			"name": "safeTransferFrom",
			"outputs": [],
			"stateMutability": "nonpayable",
			"type": "function"
		},
		{
			"inputs": [
				{
					"internalType": "address",
					"name": "from",
					"type": "address"
				},
				{
					"internalType": "address",
					"name": "to",
					"type": "address"
				},
				{
					"internalType": "uint256",
					"name": "tokenId",
					"type": "uint256"
				},
				{
					"internalType": "bytes",
					"name": "data",
					"type": "bytes"
				}
			],
			"name": "safeTransferFrom",
			"outputs": [],
			"stateMutability": "nonpayable",
			"type": "function"
		},
		{
			"inputs": [
				{
					"internalType": "address",
					"name": "operator",
					"type": "address"
				},
				{
					"internalType": "bool",
					"name": "approved",
					"type": "bool"
				}
			],
			"name": "setApprovalForAll",
			"outputs": [],
			"stateMutability": "nonpayable",
			"type": "function"
		},
		{
			"inputs": [
				{
					"internalType": "uint32",
					"name": "maxGas",
					"type": "uint32"
				}
			],
			"name": "setCallbackGasLimit",
			"outputs": [],
			"stateMutability": "nonpayable",
			"type": "function"
		},
		{
			"inputs": [
				{
					"internalType": "uint256",
					"name": "newInterval",
					"type": "uint256"
				}
			],
			"name": "setInterval",
			"outputs": [],
			"stateMutability": "nonpayable",
			"type": "function"
		},
		{
			"inputs": [
				{
					"internalType": "address",
					"name": "newFeed",
					"type": "address"
				}
			],
			"name": "setPriceFeed",
			"outputs": [],
			"stateMutability": "nonpayable",
			"type": "function"
		},
		{
			"inputs": [
				{
					"internalType": "uint64",
					"name": "_id",
					"type": "uint64"
				}
			],
			"name": "setSubscriptionId",
			"outputs": [],
			"stateMutability": "nonpayable",
			"type": "function"
		},
		{
			"inputs": [
				{
					"internalType": "address",
					"name": "_address",
					"type": "address"
				}
			],
			"name": "setVrfCoordinator",
			"outputs": [],
			"stateMutability": "nonpayable",
			"type": "function"
		},
		{
			"inputs": [
				{
					"internalType": "bytes4",
					"name": "interfaceId",
					"type": "bytes4"
				}
			],
			"name": "supportsInterface",
			"outputs": [
				{
					"internalType": "bool",
					"name": "",
					"type": "bool"
				}
			],
			"stateMutability": "view",
			"type": "function"
		},
		{
			"inputs": [],
			"name": "symbol",
			"outputs": [
				{
					"internalType": "string",
					"name": "",
					"type": "string"
				}
			],
			"stateMutability": "view",
			"type": "function"
		},
		{
			"inputs": [
				{
					"internalType": "uint256",
					"name": "index",
					"type": "uint256"
				}
			],
			"name": "tokenByIndex",
			"outputs": [
				{
					"internalType": "uint256",
					"name": "",
					"type": "uint256"
				}
			],
			"stateMutability": "view",
			"type": "function"
		},
		{
			"inputs": [
				{
					"internalType": "address",
					"name": "owner",
					"type": "address"
				},
				{
					"internalType": "uint256",
					"name": "index",
					"type": "uint256"
				}
			],
			"name": "tokenOfOwnerByIndex",
			"outputs": [
				{
					"internalType": "uint256",
					"name": "",
					"type": "uint256"
				}
			],
			"stateMutability": "view",
			"type": "function"
		},
		{
			"inputs": [
				{
					"internalType": "uint256",
					"name": "tokenId",
					"type": "uint256"
				}
			],
			"name": "tokenURI",
			"outputs": [
				{
					"internalType": "string",
					"name": "",
					"type": "string"
				}
			],
			"stateMutability": "view",
			"type": "function"
		},
		{
			"inputs": [],
			"name": "totalSupply",
			"outputs": [
				{
					"internalType": "uint256",
					"name": "",
					"type": "uint256"
				}
			],
			"stateMutability": "view",
			"type": "function"
		},
		{
			"inputs": [
				{
					"internalType": "address",
					"name": "from",
					"type": "address"
				},
				{
					"internalType": "address",
					"name": "to",
					"type": "address"
				},
				{
					"internalType": "uint256",
					"name": "tokenId",
					"type": "uint256"
				}
			],
			"name": "transferFrom",
			"outputs": [],
			"stateMutability": "nonpayable",
			"type": "function"
		},
		{
			"inputs": [
				{
					"internalType": "address",
					"name": "newOwner",
					"type": "address"
				}
			],
			"name": "transferOwnership",
			"outputs": [],
			"stateMutability": "nonpayable",
			"type": "function"
		}
	]
}